:020000040800F2
:100000003807002091010008E3170008A714000832
:10001000E11700088F0400087B19000800000000A9
:10002000000000000000000000000000E7170008CA
:100030006906000800000000E517000841180008E4
:10004000AB010008AB010008AB010008AB010008E0
:10005000AB010008AB010008AB010008AB010008D0
:10006000AB010008AB010008AB010008AB010008C0
:10007000AB010008AB010008AB010008AB010008B0
:10008000AB010008AB010008AB010008AB010008A0
:10009000AB010008AB010008AB010008AB01000890
:1000A000AB010008AB010008AB010008AB01000880
:1000B000AB010008AB010008AB010008AB01000870
:1000C000AB010008AB010008AB010008AB01000860
:1000D000AB010008AB010008AB010008AB01000850
:1000E000AB010008AB010008AB01000800F002F80A
:1000F00000F03FF80AA090E8000C82448344AAF183
:100100000107DA4501D100F034F8AFF2090EBAE880
:100110000F0013F0010F18BFFB1A43F0010318473B
:10012000FC1B00001C1C0000103A24BF78C878C1DA
:10013000FAD8520724BF30C830C144BF04680C60ED
:10014000704700000023002400250026103A28BF35
:1001500078C1FBD8520728BF30C148BF0B60704739
:10016000642900F07D80002070471FB51FBD10B5C9
:1001700010BD00F052F91146FFF7F7FF01F0B8FC8F
:1001800000F070F903B4FFF7F2FF03BC00F078F958
:100190000948804709480047FEE7FEE7FEE7FEE71B
:1001A000FEE7FEE7FEE7FEE7FEE7FEE70448054957
:1001B000054A064B70470000A3180008ED00000830
:1001C00038010020380700203803002038030020C1
:1001D0000FB41CB5074B06AA7B44694600900598EE
:1001E00000F003F90020694600F012F91CBC5DF82C
:1001F00014FB0000350200002DE9F0410E460446D4
:10020000002020622046E168884730B3252805D0C9
:10021000D4E901219047206A401CF2E7E1682046BA
:1002200000278847050018D0A5F14100192802D8F9
:1002300020354FF400673246294620462760FFF7F5
:100240008FFF40B1012804D0F61D26F007060836BE
:10025000D8E7361DD6E72846DAE7206ABDE8F08100
:100260002DE9F0410646002410687529314616A58F
:1002700010D0AFF30080002802DA404213A507E057
:1002800031688A0701D512A502E0490704D511A5F6
:10029000012401E0AFF3008000210A2206F12407C7
:1002A00009E0B0FBF2FCB0FBF2F302FB1C003030C3
:1002B00078541846491C0028F3D123462A46304674
:1002C000BDE8F04100F032B8000000002D00000051
:1002D0002B000000200000004FF0000200B5134684
:1002E00094469646203922BFA0E80C50A0E80C5056
:1002F000B1F12001BFF4F7AF090728BFA0E80C5007
:1003000048BF0CC05DF804EB890028BF40F8042BFF
:1003100008BF704748BF20F8022B11F0804F18BF6C
:1003200000F8012B70477047704770472DE9F04780
:100330000D4699469246044600F124080168880655
:1003400004D5E06921F01001216000E00120A842FD
:1003500001DD471B00E00027A1697A1902EB0900C3
:10036000081AA0612078C00602D42046AFF30080AE
:10037000002608E0D4E901211AF806009047206A17
:10038000401C761C20624E45F4DB2078C0060AD55E
:100390002046AFF3008006E0D4E9012130209047E9
:1003A000206A401C2062381EA7F10107F4DC07E038
:1003B000D4E9012118F805009047206A401C20620A
:1003C000281EA5F10105F3DC2046AFF3008020785C
:1003D000000602D50220BDE8F0870120FBE70000FF
:1003E00001694A1C02610878704700B58FB0CDE9F9
:1003F00001310021059105497944CDE903101146E9
:100400006846FFF7F9FE0FB000BD0000E5FFFFFFF3
:100410000A6802F8010B0A607047754600F02CF874
:10042000AE4605006946534620F00700854618B0E1
:1004300020B5FFF7BBFEBDE820404FF000064FF0AF
:1004400000074FF000084FF0000B21F00701AC4609
:10045000ACE8C009ACE8C009ACE8C009ACE8C00928
:100460008D46704710B50446AFF300802046BDE8C6
:100470001040FFF787BE000000487047D4000020FE
:1004800001491820ABBEFEE7260002007047FEE7D8
:1004900070B50024282001F081FA0C4D0221284675
:1004A00000F056FA50B9502001F078FA022128469F
:1004B00000F04EFA08B1012400E0FF240221284692
:1004C00000F046FA0028F9D1204670BD000801402E
:1004D00070B50024282001F061FA0C4D0121284656
:1004E00000F036FA50B9502001F058FA01212846A0
:1004F00000F02EFA08B1012400E0FF240121284673
:1005000000F026FA0028F9D1204670BD000801400D
:100510002DE9F0410024144F01260221384600F055
:1005200017FA0028F9D0282001F038FA02213846BD
:1005300000F00EFA90B1C4F1070106FA01F0284369
:10054000C5B20221384600F003FA0028F9D1641C34
:10055000E4B2082CE1D32846BDE8F081C4F10700DD
:1005600006FA00F08543ECE7000801402DE9F04170
:100570000024144F01260121384600F0E9F9002833
:10058000F9D0282001F00AFA0121384600F0E0F9FC
:1005900090B1C4F1070106FA01F02843C5B2012168
:1005A000384600F0D5F90028F9D1641CE4B2082CD3
:1005B000E1D32846BDE8F081C4F1070006FA00F057
:1005C0008543ECE70008014010B5124C022120469B
:1005D00001F01EF901220221204600F0BEF94FF47D
:1005E0007A7000F0B3F800220221204600F0B5F93D
:1005F00044F2506001F0D2F901220221204600F0BD
:10060000ACF9142001F0CAF92046BDE810400221DF
:1006100001F0EAB80008014010B5124C0121204653
:1006200001F002F901221146204600F096F94FF43C
:100630007A7000F08BF800220121204600F08DF93D
:1006400044F2506001F0AAF901221146204600F060
:1006500084F9142001F0A2F92046BDE810400121E0
:1006600001F0CCB8000801407047000010B586B01A
:10067000044614216846FFF72FFE0A21002001F0EE
:10068000E1F9224605A16846FFF7A2FD684601F0A0
:1006900025FA252001F002FA06B010BD52683A256D
:1006A0006400000010B586B0044614216846FFF7C8
:1006B00013FE0A21012001F0C5F9224605A1684672
:1006C000FFF786FD684601F009FA252001F0E6F9FA
:1006D00006B010BD52683A256400000010B586B01F
:1006E000044614216846FFF7F7FD0021084601F093
:1006F000A9F9224605A16846FFF76AFD684601F0A0
:10070000EDF9432001F0CAF906B010BD54656D70D3
:100710003A25640010B586B0044614216846FFF7F8
:10072000DBFD0021012001F08DF9224605A168467C
:10073000FFF74EFD684601F0D1F9432001F0AEF914
:1007400006B010BD54656D703A25640070B504465E
:1007500000F008F90546601C02D004480078044403
:1007600000F000F9401BA042FAD370BD2800002021
:100770002DE9F84FDFF8B891002409F1040A0AF1D5
:10078000040B23460F270BF1040EC9E00125A540F9
:100790002A40AA427DD1674ED1F804C0ACEB0608CE
:1007A000B44532D014DCBCF1030F3AD009DCBCF103
:1007B000000F2AD0BCF1010F1CD0BCF1020F31D1C7
:1007C0001DE0BCF1110F17D0BCF1120F2AD119E0B6
:1007D000B8F5881F19D006DCB8F5803F15D0B8F5FC
:1007E000801F1FD111E0B8F5001F0ED0B8F5041F0F
:1007F00018D10AE0CB6815E0CB681B1D12E0CB686E
:1008000008330FE0CB680C330CE08B682BB1012B65
:100810004FF0080303D0456104E0042302E00561C2
:1008200000E00023FF2A01D8064601E000F104069B
:100830004FEA840501D9A5F12005D6F8008007FA12
:1008400005FC28EA0C0803FA05F548EA0508C6F88D
:1008500000804D68ED0062D5374DAE6946F0010667
:10086000AE61AD6924F0030605F001050095334D36
:1008700006EB050CDCF80850A607360F07FA06F859
:1008800025EA0805DFF8B880404503D14FF000089D
:1008900017E044E0DFF8AC80404502D14FF001089A
:1008A0000FE0DFF8A480404502D14FF0020808E0D5
:1008B000DFF89880404502D14FF0030801E04FF087
:1008C000040808FA06F848EA0508CCF808804D68DC
:1008D000D9F80060ED034D4601D5164300E096437C
:1008E0002E604D68DAF80060AD03554601D5164319
:1008F00000E096432E604D68DBF80060ED025D4637
:1009000001D5164300E096432E604D68DEF8006086
:10091000AD02754601D5164300E096432E60641C77
:100920000D682A46E5407FF431AFBDE8F88F00003E
:1009300000040140000011100010024000000140BE
:1009400000080140000C014000100140001401406B
:100950008068084000D0012070470AB101617047EB
:100960000904FBE701488068704700002800002068
:1009700070B5040025D094F83D00002520B984F816
:100980003C50204600F04EF9242084F83D002068B9
:10099000016821F0010101602068016841F4004113
:1009A00001602068016821F40041016000F088FACC
:1009B0004D4A6168914201D84C4900E04C49884257
:1009C00001D2012070BD4B492368B0FBF1F15E6894
:1009D00026F03F060E435E606368934206D94FF4EB
:1009E000967359434FF47A73B1FBF3F12368491CB2
:1009F0001E6A26F03F06314319626168914210D8A1
:100A00004900401EB0FBF1F2521CC2F30B02042A53
:100A100001D2042022E0B0FBF1F0401CC0F30B0037
:100A20001CE0A268F2B301EBC10303EB0116431E05
:100A3000B3FBF6F35B1C43F480431B0549D092B330
:100A400001EBC10202EB0111401EB0FBF1F0401CB2
:100A5000C0F30B0040F4804040F400402168CA69B4
:100A60004CF6FF739A431043C861D4E90710014361
:100A70002068026822F0C00211430160D4E903013A
:100A800001432068826848F2FF339A431143816032
:100A9000D4E9050108432168CA6822F0FF02104327
:100AA000C86001E00EE016E02068016841F0010135
:100AB00001602564202084F83D00256384F83E50C1
:100AC000002070BD01EB4106431EB3FBF6F35B1C37
:100AD000B3E70120C2E701EB4101401EB0FBF1F09A
:100AE000401CC0F30B00B7E7A086010080841E0005
:100AF00000093D0040420F002DE9F84F1F46904687
:100B00008A460446DDF82890FFF72CFF054694F846
:100B10003D0020287FD1192301224049204600951D
:100B200000F04EFD002876D194F83C00012872D0E8
:100B3000012084F83C0020680168C90703D10168DE
:100B400041F0010101602068016821F40061016049
:100B5000212084F83D00102084F83E000026266401
:100B6000C4F824806785608D20852D48E0622B467F
:100B70004A465146204600F0AFFC90B920684169D2
:100B80008069009036E02A464946204600F097FDED
:100B900050B1206C042804D12068016841F4007130
:100BA00001600120BDE8F88F606A21680078086163
:100BB000606A401C6062618D491E6185218D491EFD
:100BC00089B2218522685369DB435B070BD451B19D
:100BD00000781061606A401C6062608D401E608514
:100BE000208D401E20852A464946204600F0C2FC42
:100BF0000028CED1208D0028C5D154F83D0B0168C6
:100C000041F400710160202004F81E09E677667740
:100C10000020C7E7FFE70220C4E700000200100041
:100C20000000FFFF10B586B00021009101910291F4
:100C3000039100680F4988421AD10F4CA06940F017
:100C40000800A061A069694600F008000490C02077
:100C5000009012200190032003900848FFF788FDC0
:100C6000E06940F40010E061E06900F400100490D5
:100C700006B010BD0054004000100240000C0140BE
:100C80000248816802781144816070472800002082
:100C9000074810B5016841F010010160032000F021
:100CA00067F80F2000F006F800F024F8002010BDCF
:100CB0000020024070B50D4D04464FF47A7128783B
:100CC000B1FBF0F00A490968B1FBF0F000F0CEFA90
:100CD00048B9102C07D200222146501E00F028F8F7
:100CE00000206C6070BD012070BD00002800002055
:100CF000340000200C4808B5816941F00101816190
:100D0000816901F001010091C16941F08051C16127
:100D1000C06900F0805000900448416821F0E06113
:100D200041F00071416008BD001002400000014028
:100D3000F0B40E4B1B680C46C3F30223C3F1070546
:100D4000042D00D90425191D072901D2002300E034
:100D5000DB1E012606FA05F1491E214099409E40FE
:100D6000761E16403143F0BC00F008BE0CED00E0EA
:100D7000064900F0070208684FF6FF03184040EAF2
:100D80000220034A10430860704700000CED00E0A9
:100D90000000FA052DE9F0470F46050061D0434EEB
:100DA000306800F00700B84209D2306820F0070030
:100DB00038433060306800F00700B84251D12868ED
:100DC0003B4C810712D5400703D5606840F4E060D2
:100DD00060602878000703D5606840F46050606068
:100DE0006068A96820F0F000084360602878C007B8
:100DF00028D06868012810D02168022810D08907FF
:100E000000292EDA616821F0030101436160FFF7D8
:100E1000A9FD804641F288390DE021688903EFE79A
:100E20008901EDE7FFF79EFDA0EB0801494502D9D6
:100E30000320BDE8F0876068696800F00C00B0EB43
:100E4000810FEFD1306800F00700B8420BD930684D
:100E500020F0070038433060306800F00700B842E7
:100E600001D00120E5E72878400705D56068E968EA
:100E700020F4E060084360602878000706D56068C9
:100E8000296920F4605040EAC100606000F028F851
:100E90006168084AC1F30311515CC8400649086003
:100EA00006480068FFF706FF0020C2E70020024066
:100EB00000100240021D0008340000202C00002019
:100EC0000448054900684968044AC1F30221515C9D
:100ED000C84070473400002000100240121D000876
:100EE00012A185B00FC98DE80F0014A0144A006844
:100EF00004905168134801F00C03042B10D0082B08
:100F00000ED1C1F38343C9031DF803000AD551680C
:100F100004AAC1F34041515C0A4A5043B0FBF1F0CE
:100F200005B0704708494843FAE70000020304058A
:100F3000060708090A0B0C0D0E0F10100102000025
:100F40000010024000127A0000093D002DE9F84F20
:100F5000040070D02078C04DC00749D06868C0F345
:100F60008100012807D06868C0F38100022809D1F8
:100F70006868C00306D52868800339D560680028F2
:100F8000E7D035E06068B0F5803F0BD010B1B0F528
:100F9000A02F11D0286820F480302860286820F421
:100FA000802002E0286840F480302860606890B1BA
:100FB000FFF7D8FC06460AE0286840F48020286045
:100FC000F0E700BFFFF7CEFC801B642873D82868C9
:100FD0008003F7D50CE0FFF7C5FC064605E000BF2F
:100FE000FFF7C0FC801B6428F0D828688003F7D482
:100FF00020789A4E80074FF001094FF0000839D54C
:10100000686810F00C0F07D06868C0F381000228F0
:1010100009D16868C00306D42868800714D5206900
:10102000012808D110E02069B0B1C6F80090FFF7A0
:1010300099FC074605E00AE1FFF794FCC01B022873
:10104000C4D828688007F7D52868616920F0F800BF
:1010500040EAC10028600DE0C6F80080FFF782FC7E
:10106000074604E0FFF77EFCC01B022823D828684F
:101070008007F7D4207800072CD57948A169D9B129
:10108000C0F80090FFF76EFC074604E0FFF76AFC2B
:10109000C01B02280FD8686A8007F7D571484FF443
:1010A000FA510068B0FBF1F0009000BF0098411EBB
:1010B0000091FAD20EE080E0C0F80080FFF752FC09
:1010C000074604E0FFF74EFCC01B022875D8686A8B
:1010D0008007F7D42078400760D5E8690027C00072
:1010E00008D4E86940F08050E861E869012700F021
:1010F000805000905C480168C90513D4016883469C
:1011000041F480710160FFF72DFC824606E000BFCC
:10111000FFF728FCA0EB0A0064284ED8DBF800009B
:10112000C005F5D5E06801280AD008B1052813D01C
:10113000286A20F001002862286A20F0040002E0FA
:10114000286A40F001002862E06841F2883B98B1CB
:10115000FFF708FC82460BE0286A40F00400286292
:10116000EEE700BFFFF7FEFBA0EB0A0159455AD896
:10117000286A8007F6D50CE0FFF7F4FB824605E00D
:10118000FFF7F0FBA0EB0A0159454CD8286A80070D
:10119000F6D41FB1E86920F08050E861E06988B3B7
:1011A0006968C1F38101022944D00228C6F8608031
:1011B00004D0FFF7D7FB044638E034E0FFF7D2FB5A
:1011C000074604E0FFF7CEFBC01B02282BD8286897
:1011D0008001F7D4206AB0F5803F05D16868A16826
:1011E00020F4003008436860D4E9080108436968C6
:1011F00021F4741108436860C6F86090FFF7B2FBF1
:10120000044606E025E000BFFFF7ACFB001B022808
:1012100009D828688001F7D51BE000BFFFF7A2FBC3
:10122000001B022802D90320BDE8F88F286880013E
:10123000F4D40EE00128F7D06868226A00F4803107
:10124000914204D1616A00F47010884201D00120FB
:10125000EAE70020E8E700000010024000004242F8
:1012600080044242340000200070004010B5401E4F
:10127000B0F1807F01D3012010BD4FF0E024606108
:101280000F21601700F07AFB0020A0610720206189
:10129000002010BD70B590F83C20012A26D0012412
:1012A00080F83C40022280F83D2003685A689D681F
:1012B00022F070060A6832435A600D4B02689A4267
:1012C00008D0B2F1804F05D00A4B9A4202D00A4BA7
:1012D0009A4204D1496825F080031943916080F84F
:1012E0003D40002180F83C10084670BD022070BDD2
:1012F000002C0140000400400008004010B504002C
:1013000003D094F83D0010B107E0012010BD00208B
:1013100084F83C00204600F01FF8022084F83D00CD
:10132000211D206800F0BEFA012084F8460084F8F0
:101330003E0084F83F0084F8400084F8410084F8BF
:10134000420084F8430084F8440084F8450084F89F
:101350003D00002010BD000008B500680649884225
:1013600008D10648C16941F00401C161C06900F0BB
:101370000400009008BD000000080040001002407A
:1013800090F83D10012901D001207047022180F81A
:101390003D1000680B49884208D0B0F1804F05D05D
:1013A0000949884202D00949884204D1816801F084
:1013B0000701062903D0016841F001010160002006
:1013C00070470000002C014000040040000800406D
:1013D00070B5044690F83C00012817D0012584F828
:1013E0003C50022084F83D002068826822F0770299
:1013F00022F47F4282600868502830D00DDC20281B
:101400004DD005DC98B310283BD148E0022070BDD8
:10141000302844D0402834D139E0602828D07028C2
:1014200006D0B0F5805F2CD0B0F5005F29D10AE07E
:10143000CB68D1E90121206800F06AFA2068816850
:1014400041F0770109E0CB68D1E90121206800F083
:101450005FFA2068816841F48041816011E0CA68C8
:101460004968206800F066FA5021206807E016E01D
:10147000CA684968206800F06EFA6021206800F0B0
:1014800051FA84F83D50002084F83C0070BDCA68D1
:101490004968206800F04EFA40212068EFE7226892
:1014A00001461046EBE7FEE701684A69D243520560
:1014B0000FD46FF480624A61002140F8301F20226F
:1014C00042738173026942F00402026101730120D8
:1014D0007047002070470000F8B50446C06A1E46F9
:1014E0000D461746082807D0012805D010F5803F83
:1014F00002D0206B122804D12068016841F4807169
:101500000160134600224FF001112046009600F0C2
:1015100057F840B120680068C00502D54FF400704C
:1015200020640320F8BD2069B0F5804F0ED006205E
:10153000216800EAD51040F0F000086133463A46D1
:101540000B49204600F070F878B902E005F0FE0083
:1015500000E0E8B221680861054933463A46891F30
:10156000204600F061F80028DCD00120F8BD000022
:101570000800010070B516460D4604460DE02046F1
:10158000FFF792FF08B1012070BD681C05D0FFF77E
:10159000E9F9801BA84207D835B120684069C043EB
:1015A0004007ECD4002070BD002044F8300F20210B
:1015B0006173A073216941F0200121612073E2E78A
:1015C0002DE9F0471E4690460D460446C1F30747F5
:1015D000DDF8209008E0701C06D0FFF7C3F9A0EBFF
:1015E0000900B0420FD876B12068012F18D0806969
:1015F00025EA00000004000C14D000214145EAD087
:101600000020BDE8F087002044F8300F20216173EE
:10161000A073216941F02001216120730120F0E7CE
:101620004069E5E70121E9E72DE9F0479A4691464F
:101630000E46044600254FF02008C1F3074725E079
:1016400020684069C043400514D42068016841F413
:101650000071016021686FF480604861256384F83F
:101660003D8084F83E50206C40F00400206484F8F3
:101670003C501FE0B9F1FF3F08D0FFF773F9A0EB32
:101680000A0149450CD8B9F1000F09D02068012F93
:1016900013D0806926EA00000004000C0BD0CFE7CD
:1016A00044F8305F84F80D80A573206940F0200075
:1016B000206125730120BDE8F0874069EAE770B535
:1016C00016460D4604460DE02046FFF7EDFE08B134
:1016D000012070BD681C05D0FFF744F9801BA842AB
:1016E00007D835B120684069C0430006ECD400201B
:1016F00070BD002044F8300F20216173A073216970
:1017000041F0200121612073E2E7000030B585B08F
:10171000002417480094019402940394816941F0D5
:1017200020018161816901F020010491816941F00A
:1017300004018161816901F004010491816941F032
:101740000801816180690B4D00F0080004900122BE
:1017500002212846FFF701F902210120CDE90010FE
:10176000CDE9024169462846FFF702F805B030BDD1
:10177000001002400008014010B586B00024174850
:101780000094019402940394049413490594016015
:101790004721C0E901144FF6FE71C0E903148461CA
:1017A000FFF7ACFD08B172B6FEE74FF48050009031
:1017B00069460A48FFF70CFE08B172B6FEE70494CA
:1017C00004A906480594FFF765FD002801D072B60C
:1017D000FEE706B010BD0000000800408C000020AD
:1017E000FEE7FEE7704770471FB5002200910192A7
:1017F000029203926946FEF7BBFF1FBD1FB5002290
:1018000000910192029203926946FEF7B1FF1FBD5B
:101810001FB5002200910121CDE90112022103919F
:101820006946FEF7A5FF1FBD1FB5002200910121EB
:10183000CDE90112022103916946FEF799FF1FBD10
:10184000FFF71EBA30B58FB028216846FEF744FD79
:1018500014210AA8FEF740FD01210804CDE900107B
:101860000024029402250491CDE907504FF4E010C2
:1018700009906846FFF76AFB08B172B6FEE70F20D1
:10188000CDE90A054FF48060CDE90C4002210AA899
:101890000E94FFF77FFA002801D072B6FEE70FB072
:1018A00030BD7047F0B50268164B174C174D4FF01E
:1018B0008047984205D0B84203D0A04201D0A84248
:1018C00003D122F070064A683243984205D0B842EC
:1018D00003D0A04201D0A84203D122F44074CA68C8
:1018E00022434C6922F08002224302608A68C2626D
:1018F0000A688262984201D109690163012141614C
:10190000F0BD0000002C0140000400400008004031
:1019100010B5846842EA032224F47F440A43224338
:10192000826010BD826822F070020A4342F0070113
:101930008160704710B5036A046A24F001040462F0
:10194000846924F0F00444EA021423F00A020A43F2
:101950008461026210BD10B5036A23F010030362B4
:101960008369046A23F4704343EA023224F0A0033B
:1019700043EA01118261016210BDFEE70907090E09
:10198000002804DB00F1E02080F80014704700F02C
:101990000F0000F1E02080F8141D70470449002278
:1019A0000B685A6209684A6A8242FCD37047000099
:1019B0008C00002010B5802000F050F8002420207A
:1019C00000F06CF8641C462CF9DB10BD10B5322019
:1019D000FEF7BCFE302000F041F80520FEF7B6FE11
:1019E000302000F03BF80120FEF7B0FE302000F080
:1019F00035F80A20FEF7AAFE202000F02FF80A2072
:101A0000FEF7A4FE282000F029F80120FEF79EFE34
:101A1000082000F023F80120FEF798FE012000F0D6
:101A20001DF80120FEF792FE0120FEF78FFE062032
:101A300000F014F80120FEF789FEBDE810400C20EC
:101A400000F00CB810B1012805D102E041F080018E
:101A500001E041F0C001C8B2AFF300801CB500F056
:101A6000F00141F00C028DF8042041F00801000162
:101A70008DF8051040F00C018DF8061040F00800BC
:101A80008DF8070064200090042301AA4E2102482B
:101A9000FFF732F81CBD0000380000201CB500F034
:101AA000F00141F00D028DF8042041F00901000120
:101AB0008DF8051040F00D018DF8061040F009007A
:101AC0008DF8070064200090042301AA4E210248EB
:101AD000FFF712F81CBD00003800002010B50446C6
:101AE00002E0641CFFF7DAFF20780028F9D110BD6E
:101AF000FFF7CEF8FFF7A6FEFFF708FE3F483E4986
:101B00004FF4804201603E49416000218160C0E99C
:101B1000031241618161C1610162FEF729FF08B1D1
:101B200072B6FEE7FFF728FE34485430FFF728FC72
:101B3000FFF74CFF33A0FFF7D1FF4FF4FA60FEF739
:101B400005FEFFF737FF334C4FF47A76A06900F0BB
:101B500063F8FEF7C3FDE06900F05EF8FEF786FD6E
:101B6000FEF732FDFEF794FC2070FEF7D1FCA0706A
:101B7000FEF7CEFCE070FEF7CBFC2071FEF7C8FC50
:101B80006071FEF7C5FC60812079E081A578A581B0
:101B900000F05EF8A061284600F05AF8E061206A83
:101BA00000F03AF8FEF7B6FD606A00F035F8FEF78F
:101BB00079FDFEF731FDFEF78BFC6070FEF7D6FC79
:101BC000A071FEF7D3FCE071FEF7D0FC2072FEF7A7
:101BD000CDFC6072FEF7CAFC2082207AA082A57933
:101BE000658200F035F82062284600F031F8606226
:101BF0003046FEF7ABFDA9E7005400403800002056
:101C0000A0860100494E495449414C495A494E4722
:101C10002E2E00000000002041000B0ED3F19E028A
:101C200008D950F400034FEA032323FA02F048BF17
:101C30004042704710B500F01EF800BF4992248062
:101C4000002070476FF0004282EA200070470000D9
:101C5000B0FA80F310FA03F2C3F19D030AD0D9055C
:101C600001EB1220530638BF704700F1010008BF96
:101C700020F0010070470EF1020E2EF0030E5EF808
:101C8000044B244204D44FEA4102B2F17F4F11D8F1
:101C90004FEA4003B3F17F4F0CD80ED14FEAD07C0E
:101CA000B2F17F4F0CEB4C0C0CF1020C08BF4CEB6B
:101CB000D17C04E04FF0080C01E04FEAD17C0CEB42
:101CC0004C0324FA03F404F00704B4F1040C06D224
:101CD0000EEB840CBDE810404CF0010C6047DFE8CF
:101CE0000CF0070802024FF00040A0F5800010BD84
:101CF0000846420018BFD2F1807288BF00F0004051
:101D000010BD0000000000000000010203040607EF
:101D10000809000000000102030400003C1D000847
:101D2000000000203800000028010008741D000891
:101D300038000020000700004401000800000000F7
:101D40000000000000000000000000000000000093
:101D50000000000000000000000000000000000083
:101D60000000000001000000100000000000000062
:041D70000024F40057
:04000005080000ED02
:00000001FF
