:020000040800F2
:100000007007002091010008B71D0008AB19000817
:10001000B51D0008650500080B1F00080000000062
:10002000000000000000000000000000BB1D0008F0
:100030006705000800000000B91D0008BD1D00088C
:10004000AB010008AB010008AB010008AB010008E0
:10005000AB010008AB010008AB010008AB010008D0
:10006000AB010008AB010008AB010008AB010008C0
:10007000AB010008AB010008AB010008AB010008B0
:10008000AB010008AB010008AB010008AB010008A0
:10009000AB010008AB010008AB010008AB01000890
:1000A000AB010008AB010008AB010008AB01000880
:1000B000AB010008AB010008AB010008AB01000870
:1000C000AB010008AB010008AB010008AB01000860
:1000D000AB010008AB010008AB010008AB01000850
:1000E000AB010008AB010008AB01000800F002F80A
:1000F00000F03FF80AA090E8000C82448344AAF183
:100100000107DA4501D100F034F8AFF2090EBAE880
:100110000F0013F0010F18BFFB1A43F0010318473B
:100120002820000048200000103A24BF78C878C179
:10013000FAD8520724BF30C830C144BF04680C60ED
:10014000704700000023002400250026103A28BF35
:1001500078C1FBD8520728BF30C148BF0B60704739
:10016000642900F07D80002070471FB51FBD10B5C9
:1001700010BD00F052F91146FFF7F7FF01F074FFD0
:1001800000F070F903B4FFF7F2FF03BC00F078F958
:100190000948804709480047FEE7FEE7FEE7FEE71B
:1001A000FEE7FEE7FEE7FEE7FEE7FEE70448054957
:1001B000054A064B70470000331E0008ED0000089A
:1001C00070010020700700207003002070030020E1
:1001D0000FB41CB5074B06AA7B44694600900598EE
:1001E00000F003F90020694600F012F91CBC5DF82C
:1001F00014FB0000350200002DE9F0410E460446D4
:10020000002020622046E168884730B3252805D0C9
:10021000D4E901219047206A401CF2E7E1682046BA
:1002200000278847050018D0A5F14100192802D8F9
:1002300020354FF400673246294620462760FFF7F5
:100240008FFF40B1012804D0F61D26F007060836BE
:10025000D8E7361DD6E72846DAE7206ABDE8F08100
:100260002DE9F0410646002410687529314616A58F
:1002700010D0AFF30080002802DA404213A507E057
:1002800031688A0701D512A502E0490704D511A5F6
:10029000012401E0AFF3008000210A2206F12407C7
:1002A00009E0B0FBF2FCB0FBF2F302FB1C003030C3
:1002B00078541846491C0028F3D123462A46304674
:1002C000BDE8F04100F032B8000000002D00000051
:1002D0002B000000200000004FF0000200B5134684
:1002E00094469646203922BFA0E80C50A0E80C5056
:1002F000B1F12001BFF4F7AF090728BFA0E80C5007
:1003000048BF0CC05DF804EB890028BF40F8042BFF
:1003100008BF704748BF20F8022B11F0804F18BF6C
:1003200000F8012B70477047704770472DE9F04780
:100330000D4699469246044600F124080168880655
:1003400004D5E06921F01001216000E00120A842FD
:1003500001DD471B00E00027A1697A1902EB0900C3
:10036000081AA0612078C00602D42046AFF30080AE
:10037000002608E0D4E901211AF806009047206A17
:10038000401C761C20624E45F4DB2078C0060AD55E
:100390002046AFF3008006E0D4E9012130209047E9
:1003A000206A401C2062381EA7F10107F4DC07E038
:1003B000D4E9012118F805009047206A401C20620A
:1003C000281EA5F10105F3DC2046AFF3008020785C
:1003D000000602D50220BDE8F0870120FBE70000FF
:1003E00001694A1C02610878704700B58FB0CDE9F9
:1003F00001310021059105497944CDE903101146E9
:100400006846FFF7F9FE0FB000BD0000E5FFFFFFF3
:100410000A6802F8010B0A607047754600F02CF874
:10042000AE4605006946534620F00700854618B0E1
:1004300020B5FFF7BBFEBDE820404FF000064FF0AF
:1004400000074FF000084FF0000B21F00701AC4609
:10045000ACE8C009ACE8C009ACE8C009ACE8C00928
:100460008D46704710B50446AFF300802046BDE8C6
:100470001040FFF787BE0000004870470C010020C5
:1004800001491820ABBEFEE72600020070470000BD
:1004900070B5044600688168C943C90717D18168EF
:1004A00021F00101816000F0F5FB05460AE000BF84
:1004B00000F0F0FB401B022804D920688068C0438C
:1004C000C00706D020688068C043C007F0D0002075
:1004D00070BDA06A40F01000A062E06A40F0010028
:1004E000E062012070BD0000F8B5002604460096C9
:1004F00000688168C943C9072DD0816841F00101B6
:100500008160164816490068B0FBF1F000E0401E1B
:1005100000900028FBD100F0BDFB054616E000BFAF
:1005200000F0B8FB401B022810D920688068C04347
:10053000C0070BD0A06A40F01000A062E06A40F053
:100540000100E06284F824600120F8BD2068806822
:10055000C043C007E4D10020F8BD00000C0000201B
:1005600040420F00FEE7704710B586B004461421E4
:100570006846FFF7B1FE0021084601F01FFD224644
:1005800005A16846FFF724FE684601F063FD04A05C
:1005900001F060FD06B010BD4C3A2564000000007B
:1005A0004C75780010B586B0044614216846FFF7F4
:1005B00093FE0A21002001F001FD224605A16846B4
:1005C000FFF706FE684601F045FD04A001F042FD7C
:1005D00006B010BD4C3A2564000000004C75780050
:1005E000F8B50024009490F824202546012A12D062
:1005F000012280F824204A681F23072A0DD20668AA
:10060000776B521E02EB820293409F430B6893402C
:100610001F43776319E00220F8BD06680D2A0AD24D
:10062000376BD21F02EB820293409F430B689340CB
:100630001F43376309E0F76A0D3A02EB82029340E9
:100640009F430B6893401F43F7620A6807230668BD
:100650000A2A0AD3F7680A3A02EB420293409F4300
:100660008B6893401F43F76008E0376902EB420252
:1006700093409F438B6893401F4337610A68102A59
:1006800001D0112A20D1124B02689A4217D19368E7
:100690001B0219D4936843F400039360096810297E
:1006A00012D10C490C4A0968B1FBF2F101EB81014E
:1006B000490000E0491E00910029FBD104E0816A55
:1006C00041F020018162012480F824502046F8BDC9
:1006D000002401400C00002040420F000068C06C64
:1006E000704700002DE9F0414FF0000704003D463F
:1006F0007ED0A06A002628B9E66284F824602046ED
:1007000000F07EF82046FFF7C3FEA16A01F0100159
:10071000014304D0A06A40F01000A06268E0A16A22
:1007200021F4885141F00201A1626268E169237BF2
:100730000A4347EA43010A43A1684FF48077B9426C
:1007400008D0012906D0002194F814C0BCF1010F93
:1007500002D00AE03946F7E7F3B1A36A43F0200379
:10076000A362E36A43F00103E3622368D3F804C0A1
:100770002CF4694C4CEA010CC3F804C02368996856
:10078000DFF870C001EA0C0111439960A168B94219
:100790000BD0012909D00CE0DFF85CC0A3690CEB99
:1007A00043330B4343F40061DFE7218A0D05A5F5D0
:1007B00080152168CB6A23F470032B43CB62216838
:1007C00089680E4B1940914208D1E662A16A21F076
:1007D000020141F00101A162BDE8F081A06A20F0B0
:1007E000020040F01000A062E06A40F00100E06208
:1007F0000120F1E7FDF7E1FF00E0FFFFFE0E1FFF24
:1008000010B586B0002100910191029103911A4C1C
:1008100003681A4903221A48A34211D18B6943F491
:1008200000738B618B6903F4007304938B6943F04D
:1008300004038B61896901F004010491042113E030
:10084000104CA34215D18B6943F480638B618B6993
:1008500003F4806304938B6943F004038B6189691B
:1008600001F0040104910821CDE90012694600F06D
:100870001BF906B010BD000000240140001002402A
:1008800000080140002801402DE9F84300270D46EB
:100890000446009700F0FEF9804620688168C9058B
:1008A00008D5A06A40F02000A06284F824700120DE
:1008B000BDE8F8834168C90503D4C06A10F4700F1D
:1008C0002AD0022000F0FEFB3B490968B1FBF0F69C
:1008D0002068036939490B424FEA61014FEAA112CE
:1008E0001FD1C3684FEA611C13EA0C0F19D10369C9
:1008F0000B4225D1C068104222D1142023E0681C8D
:100900000AD02DB100F0C6F9A0EB0800A84203D927
:1009100020680068800725D5206800688007EED52C
:100920002DE003690B4202D1C168114206D0026971
:1009300023490A4206D1C068084203D1542002E08C
:10094000292000E0FC204643009816E0681C11D0E6
:100950002DB100F09FF9A0EB0800A8420AD9009839
:10096000B04207D2A06A40F00400A06284F824706C
:1009700003209DE70098401C0090B042E6D3216818
:100980006FF012000860A06A40F40070A062206856
:100990008068C0F3424007280CD1207B50B9A06A80
:1009A00020F48070A062A06AC00403D4A06A40F062
:1009B0000100A06200207BE70C0000202449922463
:1009C0004992240070B5044690F8240001280DD007
:1009D000012084F824002046FFF786FD02004FF036
:1009E000000005D084F82400104670BD022070BDC0
:1009F000A16A40F20123994341F48071A1621F4D25
:100A000023681F49AB4218D10E6816F4702F14D01A
:100A1000A66A46F48016A6620E68760505D5A66A13
:100A200026F4005646F48056A662A66AF6040AD555
:100A3000E66A26F00606E66206E0A66A26F4801656
:100A4000A6625E68E9E7E06284F824006FF00200C5
:100A5000186020688368C3F34243072B05D1A8427E
:100A600008D1096811F4702F04D0816841F4801115
:100A70008160B9E7816841F4A001F9E700280140ED
:100A80000424014070B5044600F004F90546601CDA
:100A900002D004480078044400F0FCF8401BA04257
:100AA000FAD370BD000000202DE9F84FDFF8B891AF
:100AB000002409F1040A0AF1040B23460F270BF165
:100AC000040EC9E00125A5402A40AA427DD1674E07
:100AD000D1F804C0ACEB0608B44532D014DCBCF14C
:100AE000030F3AD009DCBCF1000F2AD0BCF1010F92
:100AF0001CD0BCF1020F31D11DE0BCF1110F17D099
:100B0000BCF1120F2AD119E0B8F5881F19D006DC04
:100B1000B8F5803F15D0B8F5801F1FD111E0B8F5AA
:100B2000001F0ED0B8F5041F18D10AE0CB6815E0FD
:100B3000CB681B1D12E0CB6808330FE0CB680C3389
:100B40000CE08B682BB1012B4FF0080303D04561FB
:100B500004E0042302E0056100E00023FF2A01D83D
:100B6000064601E000F104064FEA840501D9A5F12B
:100B70002005D6F8008007FA05FC28EA0C0803FADD
:100B800005F548EA0508C6F800804D68ED0062D515
:100B9000374DAE6946F00106AE61AD6924F003063B
:100BA00005F001050095334D06EB050CDCF8085007
:100BB000A607360F07FA06F825EA0805DFF8B88019
:100BC000404503D14FF0000817E044E0DFF8AC8067
:100BD000404502D14FF001080FE0DFF8A480404506
:100BE00002D14FF0020808E0DFF89880404502D1BA
:100BF0004FF0030801E04FF0040808FA06F848EA4D
:100C00000508CCF808804D68D9F80060ED034D4622
:100C100001D5164300E096432E604D68DAF8006077
:100C2000AD03554601D5164300E096432E604D684E
:100C3000DBF80060ED025D4601D5164300E0964307
:100C40002E604D68DEF80060AD02754601D5164392
:100C500000E096432E60641C0D682A46E5407FF450
:100C600031AFBDE8F88F0000000401400000111012
:100C7000001002400000014000080140000C01404B
:100C800000100140001401400AB1016170470904DD
:100C9000FBE700000148806870470000000000206A
:100CA00070B5040025D094F83D00002520B984F8E3
:100CB0003C50204600F04EF9242084F83D00206886
:100CC000016821F0010101602068016841F40041E0
:100CD00001602068016821F40041016000F062FBBE
:100CE0004D4A6168914201D84C4900E04C49884224
:100CF00001D2012070BD4B492368B0FBF1F15E6861
:100D000026F03F060E435E606368934206D94FF4B7
:100D1000967359434FF47A73B1FBF3F12368491C7E
:100D20001E6A26F03F06314319626168914210D86D
:100D30004900401EB0FBF1F2521CC2F30B02042A20
:100D400001D2042022E0B0FBF1F0401CC0F30B0004
:100D50001CE0A268F2B301EBC10303EB0116431ED2
:100D6000B3FBF6F35B1C43F480431B0549D092B3FD
:100D700001EBC10202EB0111401EB0FBF1F0401C7F
:100D8000C0F30B0040F4804040F400402168CA6981
:100D90004CF6FF739A431043C861D4E9071001432E
:100DA0002068026822F0C00211430160D4E9030107
:100DB00001432068826848F2FF339A4311438160FF
:100DC000D4E9050108432168CA6822F0FF021043F4
:100DD000C86001E00EE016E02068016841F0010102
:100DE00001602564202084F83D00256384F83E508E
:100DF000002070BD01EB4106431EB3FBF6F35B1C04
:100E0000B3E70120C2E701EB4101401EB0FBF1F066
:100E1000401CC0F30B00B7E7A086010080841E00D1
:100E200000093D0040420F002DE9F84F1F46904653
:100E30008A460446DDF82890FFF72CFF054694F813
:100E40003D0020287FD119230122404920460095EA
:100E500000F038FE002876D194F83C00012872D0CA
:100E6000012084F83C0020680168C90703D10168AB
:100E700041F0010101602068016821F40061016016
:100E8000212084F83D00102084F83E0000262664CE
:100E9000C4F824806785608D20852D48E0622B464C
:100EA0004A465146204600F099FD90B920684169B4
:100EB0008069009036E02A464946204600F081FECF
:100EC00050B1206C042804D12068016841F40071FD
:100ED00001600120BDE8F88F606A21680078086130
:100EE000606A401C6062618D491E6185218D491ECA
:100EF00089B2218522685369DB435B070BD451B16A
:100F000000781061606A401C6062608D401E6085E0
:100F1000208D401E20852A464946204600F0ACFD23
:100F20000028CED1208D0028C5D154F83D0B016892
:100F300041F400710160202004F81E09E67766770D
:100F40000020C7E7FFE70220C4E70000020010000E
:100F50000000FFFF10B586B00021009101910291C1
:100F6000039100680F4988421AD10F4CA06940F0E4
:100F70000800A061A069694600F008000490C02044
:100F8000009012200190032003900848FFF78CFD89
:100F9000E06940F40010E061E06900F400100490A2
:100FA00006B010BD0054004000100240000C01408B
:100FB0000248816802781144816070470000002077
:100FC000074810B5016841F010010160032000F0EE
:100FD00067F80F2000F006F800F024F8002010BD9C
:100FE0000020024070B50D4D04464FF47A71287808
:100FF000B1FBF0F00A490968B1FBF0F000F0B8FB72
:1010000048B9102C07D200222146501E00F028F8C3
:1010100000206C6070BD012070BD00000000002049
:101020000C0000200C4808B5816941F00101816184
:10103000816901F001010091C16941F08051C161F4
:10104000C06900F0805000900448416821F0E061E0
:1010500041F00071416008BD0010024000000140F5
:10106000F0B40E4B1B680C46C3F30223C3F1070513
:10107000042D00D90425191D072901D2002300E001
:10108000DB1E012606FA05F1491E214099409E40CB
:10109000761E16403143F0BC00F038BF0CED00E086
:1010A000064900F0070208684FF6FF03184040EABF
:1010B0000220034A10430860704700000CED00E076
:1010C0000000FA0510B529A401461DCC86B08DE8B4
:1010D0001D002AA02A4C006804900020012923D07A
:1010E00002293AD010291DD161682268D20119D590
:1010F000C1F38342C9031DF8020009D5616804AA3F
:10110000C1F34041515C1F4AB2FBF1F1484301E099
:101110001D4948436168490204D440005FF003015F
:10112000B0FBF1F006B010BD226AC2F30121012923
:1011300003D1920701D5C803F4E7022905D1626AF9
:10114000920702D549F64040ECE70329EAD121682D
:101150008903E7D54FF22440E4E700F033F96168F2
:10116000C1F38131491C4900DAE70000020304059C
:10117000060708090A0B0C0D0E0F101001020000E3
:101180000010024000127A0000093D002DE9F843EA
:1011900005460078354CC00754D0E0690026C000F1
:1011A00008D4E06940F08050E061E069012600F079
:1011B000805000902E480168C90512D4016880460D
:1011C00041F480710160FFF765FD074605E000BF4F
:1011D000FFF760FDC01B642823D8D8F80000C005C5
:1011E000F6D5206A10F4407021D0A98801F440712E
:1011F00081421CD0206A1F49012220F440700A60FD
:1012000000220A602062C00711D0FFF743FD0746A5
:1012100041F2883808E000BFFFF73CFDC11B4145A3
:1012200002D90320BDE8F883206A8007F4D5206A3C
:10123000696820F44070084320621EB1E06920F024
:101240008050E0612878800705D56068A96820F49F
:101250004040084360602878C00605D56068E968AA
:1012600020F48000084360600020DBE700100240AB
:1012700000700040400442422DE9F0470F4605004F
:1012800061D0434E306800F00700B84209D23068A0
:1012900020F0070038433060306800F00700B842A3
:1012A00051D128683B4C810712D5400703D56068AF
:1012B00040F4E06060602878000703D5606840F47F
:1012C000605060606068A96820F0F00008436060CA
:1012D0002878C00728D06868012810D02168022823
:1012E00010D0890700292EDA616821F0030101433B
:1012F0006160FFF7CFFC804641F288390DE021683C
:101300008903EFE78901EDE7FFF7C4FCA0EB0801D3
:10131000494502D90320BDE8F0876068696800F09C
:101320000C00B0EB810FEFD1306800F00700B8423D
:101330000BD9306820F0070038433060306800F087
:101340000700B84201D00120E5E72878400705D51D
:101350006068E96820F4E06008436060287800076E
:1013600006D56068296920F4605040EAC1006060D9
:1013700000F038F86168084AC1F30311515CC840B5
:101380000649086006480068FFF72CFE0020C2E707
:101390000020024000100240302100080C00002014
:1013A000040000200448054900684968044AC1F364
:1013B0000221515CC84070470C0000200010024020
:1013C000402100080448054900684968044AC1F3FF
:1013D000C221515CC84070470C0000200010024040
:1013E0004021000812A185B00FC98DE80F0014A09C
:1013F000144A006804905168134801F00C03042B50
:1014000010D0082B0ED1C1F38343C9031DF803008C
:101410000AD5516804AAC1F34041515C0A4A5043BD
:10142000B0FBF1F005B0704708494843FAE7000007
:1014300002030405060708090A0B0C0D0E0F101015
:10144000010200000010024000127A0000093D0075
:101450002DE9F84F040070D02078C04DC00749D066
:101460006868C0F38100012807D06868C0F3810074
:10147000022809D16868C00306D52868800339D5D9
:1014800060680028E7D035E06068B0F5803F0BD099
:1014900010B1B0F5A02F11D0286820F4803028605A
:1014A000286820F4802002E0286840F4803028601A
:1014B000606890B1FFF7EEFB06460AE0286840F44A
:1014C00080202860F0E700BFFFF7E4FB801B642862
:1014D00073D828688003F7D50CE0FFF7DBFB0646DE
:1014E00005E000BFFFF7D6FB801B6428F0D8286812
:1014F0008003F7D420789A4E80074FF001094FF00F
:10150000000839D5686810F00C0F07D06868C0F380
:101510008100022809D16868C00306D428688007C2
:1015200014D52069012808D110E02069B0B1C6F8AF
:101530000090FFF7AFFB074605E00AE1FFF7AAFBC3
:10154000C01B0228C4D828688007F7D528686169BD
:1015500020F0F80040EAC10028600DE0C6F80080E5
:10156000FFF798FB074604E0FFF794FBC01B022837
:1015700023D828688007F7D4207800072CD579482D
:10158000A169D9B1C0F80090FFF784FB074604E0D9
:10159000FFF780FBC01B02280FD8686A8007F7D5C9
:1015A00071484FF4FA510068B0FBF1F0009000BFB1
:1015B0000098411E0091FAD20EE080E0C0F8008051
:1015C000FFF768FB074604E0FFF764FBC01B022837
:1015D00075D8686A8007F7D42078400760D5E86935
:1015E0000027C00008D4E86940F08050E861E8694D
:1015F000012700F0805000905C480168C90513D4B1
:101600000168834641F480710160FFF743FB824625
:1016100006E000BFFFF73EFBA0EB0A0064284ED8AF
:10162000DBF80000C005F5D5E06801280AD008B154
:10163000052813D0286A20F001002862286A20F0CB
:10164000040002E0286A40F001002862E06841F2EC
:10165000883B98B1FFF71EFB82460BE0286A40F0FA
:1016600004002862EEE700BFFFF714FBA0EB0A01BD
:1016700059455AD8286A8007F6D50CE0FFF70AFBCF
:10168000824605E0FFF706FBA0EB0A0159454CD85E
:10169000286A8007F6D41FB1E86920F08050E8611D
:1016A000E06988B36968C1F38101022944D0022846
:1016B000C6F8608004D0FFF7EDFA044638E034E065
:1016C000FFF7E8FA074604E0FFF7E4FAC01B022838
:1016D0002BD828688001F7D4206AB0F5803F05D167
:1016E0006868A16820F4003008436860D4E9080104
:1016F0000843696821F4741108436860C6F8609073
:10170000FFF7C8FA044606E025E000BFFFF7C2FA7B
:10171000001B022809D828688001F7D51BE000BF0C
:10172000FFF7B8FA001B022802D90320BDE8F88FA2
:1017300028688001F4D40EE00128F7D06868226A96
:1017400000F48031914204D1616A00F47010884243
:1017500001D00120EAE70020E8E700000010024085
:1017600000004242800442420C0000200070004011
:1017700010B5401EB0F1807F01D3012010BD4FF0A5
:10178000E02460610F21601700F0C0FB0020A06121
:1017900007202061002010BD70B590F83C20012A80
:1017A00026D0012480F83C40022280F83D200368C6
:1017B0005A689D6822F070060A6832435A600D4BE1
:1017C00002689A4208D0B2F1804F05D00A4B9A4283
:1017D00002D00A4B9A4204D1496825F0800319438C
:1017E000916080F83D40002180F83C10084670BDB3
:1017F000022070BD002C01400004004000080040A1
:1018000010B5040003D094F83D0010B107E00120AA
:1018100010BD002084F83C00204600F01FF8022094
:1018200084F83D00211D206800F004FB012084F8AD
:10183000460084F83E0084F83F0084F8400084F8B5
:10184000410084F8420084F8430084F8440084F89E
:10185000450084F83D00002010BD000008B5006878
:101860000649884208D10648C16941F00401C161B6
:10187000C06900F00400009008BD000000080040AE
:101880000010024090F83D10012901D0012070475E
:10189000022180F83D1000680B49884208D0B0F161
:1018A000804F05D00949884202D00949884204D1B5
:1018B000816801F00701062903D0016841F00101A8
:1018C0000160002070470000002C0140000400402F
:1018D0000008004070B5044690F83C00012817D07D
:1018E000012584F83C50022084F83D00206882687D
:1018F00022F0770222F47F4282600868502830D0BC
:101900000DDC20284DD005DC98B310283BD148E0F1
:10191000022070BD302844D0402834D139E06028FE
:1019200028D0702806D0B0F5805F2CD0B0F5005FCD
:1019300029D10AE0CB68D1E90121206800F0B0FA92
:101940002068816841F0770109E0CB68D1E9012185
:10195000206800F0A5FA2068816841F48041816028
:1019600011E0CA684968206800F0ACFA502120688C
:1019700007E016E0CA684968206800F0B4FA602100
:10198000206800F097FA84F83D50002084F83C006D
:1019900070BDCA684968206800F094FA4021206848
:1019A000EFE7226801461046EBE7FEE701684A6967
:1019B000D24352050FD46FF480624A61002140F88F
:1019C000301F202242738173026942F004020261D7
:1019D000017301207047002070470000F8B50446ED
:1019E000C06A1E460D461746082807D0012805D0B4
:1019F00010F5803F02D0206B122804D120680168C6
:101A000041F480710160134600224FF0011120461D
:101A1000009600F057F840B120680068C00502D574
:101A20004FF4007020640320F8BD2069B0F5804FAA
:101A30000ED00620216800EAD51040F0F0000861C1
:101A400033463A460B49204600F070F878B902E078
:101A500005F0FE0000E0E8B2216808610549334660
:101A60003A46891F204600F061F80028DCD00120AA
:101A7000F8BD00000800010070B516460D4604468A
:101A80000DE02046FFF792FF08B1012070BD681CF1
:101A900005D0FFF7FFF8801BA84207D835B12068B2
:101AA0004069C0434007ECD4002070BD002044F8DA
:101AB000300F20216173A073216941F02001216161
:101AC0002073E2E72DE9F0471E4690460D46044696
:101AD000C1F30747DDF8209008E0701C06D0FFF73F
:101AE000D9F8A0EB0900B0420FD876B12068012FD9
:101AF00018D0806925EA00000004000C14D00021F1
:101B00004145EAD00020BDE8F087002044F8300FBE
:101B100020216173A073216941F0200121612073AC
:101B20000120F0E74069E5E70121E9E72DE9F04709
:101B30009A4691460E46044600254FF02008C1F310
:101B4000074725E020684069C043400514D4206859
:101B5000016841F40071016021686FF480604861A0
:101B6000256384F83D8084F83E50206C40F00400EA
:101B7000206484F83C501FE0B9F1FF3F08D0FFF724
:101B800089F8A0EB0A0149450CD8B9F1000F09D03A
:101B90002068012F13D0806926EA00000004000CA1
:101BA0000BD0CFE744F8305F84F80D80A57320692F
:101BB00040F02000206125730120BDE8F0874069D6
:101BC000EAE770B516460D4604460DE02046FFF7DD
:101BD000EDFE08B1012070BD681C05D0FFF75AF872
:101BE000801BA84207D835B120684069C043000671
:101BF000ECD4002070BD002044F8300F2021617328
:101C0000A073216941F0200121612073E2E7000007
:101C10001FB500211548009101910291826942F49B
:101C2000007282618069124A00F4007003901148CA
:101C3000012402608160017301754FF46022046128
:101C4000C2614160FEF74EFD08B172B6FEE70220A8
:101C5000CDE900040520029069460648FEF7C0FC65
:101C6000002801D072B6FEE71FBD00000010024040
:101C700000240140100000201FB5002115480091EC
:101C800001910291826942F4806282618069124A04
:101C900000F48060039011480124026081600173A8
:101CA00001754FF460220461C2614160FEF71AFDC4
:101CB00008B172B6FEE70320CDE9000405200290CA
:101CC00069460648FEF78CFC002801D072B6FEE794
:101CD0001FBD00000010024000280140400000200D
:101CE00030B585B000241848009401940294039400
:101CF000816941F020018161816901F02001049135
:101D0000816941F004018161816901F0040104915C
:101D1000816941F00801816180690C4D00F0080083
:101D20000490002203212846FEF7AEFF0320009016
:101D30000120CDE901040220039069462846FEF700
:101D4000B3FE05B030BD00000010024000080140A5
:101D500010B586B0002416480094019402940394B0
:101D6000049412490594C0E900144FF6FF71C0E9CC
:101D7000024104618461FFF743FD08B172B6FEE7DA
:101D80004FF48050009069460948FFF7A3FD08B161
:101D900072B6FEE7049404A905480594FFF7FCFC1D
:101DA000002801D072B6FEE706B010BD0008004062
:101DB000C4000020FEE7FEE770477047FFF7F8B861
:101DC00030B593B028216846FEF786FA14210AA898
:101DD000FEF782FA0024012108040F941094129453
:101DE0000491CDE90010CDE9080411940294022574
:101DF00007956846FFF72CFB08B172B6FEE70F2087
:101E0000CDE90A054FF48060CDE90C4000210AA815
:101E10000E94FFF731FA08B172B6FEE70FA80F95DE
:101E20001194FFF7B3F9002801D072B6FEE713B0A2
:101E300030BD7047F0B50268164B174C174D4FF088
:101E40008047984205D0B84203D0A04201D0A842B2
:101E500003D122F070064A683243984205D0B84256
:101E600003D0A04201D0A84203D122F44074CA6832
:101E700022434C6922F08002224302608A68C262D7
:101E80000A688262984201D10969016301214161B6
:101E9000F0BD0000002C014000040040000800409C
:101EA00010B5846842EA032224F47F440A432243A3
:101EB000826010BD826822F070020A4342F007017E
:101EC0008160704710B5036A046A24F0010404625B
:101ED000846924F0F00444EA021423F00A020A435D
:101EE0008461026210BD10B5036A23F0100303621F
:101EF0008369046A23F4704343EA023224F0A003A6
:101F000043EA01118261016210BDFEE70907090E73
:101F1000002804DB00F1E02080F80014704700F096
:101F20000F0000F1E02080F8141D704710B58020EC
:101F300000F050F80024202000F06CF8641C462CBF
:101F4000F9DB10BD10B53220FEF79CFD302000F00B
:101F500041F80520FEF796FD302000F03BF8012007
:101F6000FEF790FD302000F035F80A20FEF78AFDDC
:101F7000202000F02FF80A20FEF784FD282000F032
:101F800029F80120FEF77EFD082000F023F801204B
:101F9000FEF778FD012000F01DF80120FEF772FD2C
:101FA0000120FEF76FFD062000F014F80120FEF777
:101FB00069FDBDE810400C2000F00CB810B10128FC
:101FC00005D102E041F0800101E041F0C001C8B25A
:101FD000AFF300801CB500F0F00141F00C028DF869
:101FE000042041F0080100018DF8051040F00C01BB
:101FF0008DF8061040F008008DF80700642000906E
:10200000042301AA4E210248FEF70EFF1CBD00006A
:10201000700000201CB500F0F00141F00D028DF8B9
:10202000042041F0090100018DF8051040F00D0178
:102030008DF8061040F009008DF80700642000902C
:10204000042301AA4E210248FEF7EEFE1CBD00004B
:102050007000002010B5044602E0641CFFF7DAFFB0
:1020600020780028F9D110BDFEF7AAFFFFF7A8FEDF
:10207000FFF736FE294828494FF48042016028497D
:10208000416000218160C0E9031241618161C16149
:102090000162FEF705FE08B172B6FEE7FFF758FED3
:1020A000FFF7B6FDFFF7E8FD1C485430FFF7EAFBE9
:1020B000FFF748FF1BA0FFF7CDFF4FF4FA60FEF7D4
:1020C000E1FCFFF733FF4FF0FF354FF496741348F0
:1020D0006038FEF777FC114829466038FEF7D4FBDC
:1020E0000E486038FEF7FAFAFEF73EFA2046FEF791
:1020F000C9FC0A483038FEF765FC084829463038E4
:10210000FEF7C2FB05483038FEF7E8FAFEF74AFA58
:102110002046FEF7B7FCDAE70054004070000020CC
:10212000A086010057616974696E672E2E00000059
:102130000000000000000000010203040607080977
:1021400000000000010203046821000800000020D4
:10215000100000002801000878210008100000206D
:1021600060070000440100080100000010000000AA
:08217000000000000024F4004F
:04000005080000ED02
:00000001FF
