:020000040800F2
:100000005017002029020008CB1C0008EF18000838
:10001000C91C00086B0600084B1F00080000000008
:100020000000000000000000000000009101000836
:10003000F908000800000000D5010008FD1D0008B7
:10004000430200084302000843020008430200087C
:10005000430200084302000843020008430200086C
:10006000430200084302000843020008430200085C
:10007000430200084302000843020008430200084C
:10008000430200084302000843020008430200083C
:10009000430200084302000843020008430200082C
:1000A000430200084302000843020008430200081C
:1000B000430200084302000843020008430200080C
:1000C00043020008430200084302000843020008FC
:1000D00043020008430200084302000843020008EC
:1000E00043020008430200084302000800F002F83F
:1000F00000F03FF80AA090E8000C82448344AAF183
:100100000107DA4501D100F034F8AFF2090EBAE880
:100110000F0013F0010F18BFFB1A43F0010318473B
:100120000434000024340000103A24BF78C878C199
:10013000FAD8520724BF30C830C144BF04680C60ED
:10014000704700000023002400250026103A28BF35
:1001500078C1FBD8520728BF30C148BF0B60704739
:10016000642900F0C980002070471FB51FBD10B57D
:1001700010BD00F014FA1146FFF7F7FF01F0A0FFE1
:1001800000F032FA03B4FFF7F2FF03BC00F03AFAD2
:10019000224B19680868B0E8F00F80F30988BFF3B4
:1001A0006F8F4FF0000080F311884EF00D0E7047F6
:1001B0000000000006480068006880F3088862B606
:1001C00061B6BFF34F8FBFF36F8F00DF00BF00BF7B
:1001D00008ED00E0EFF30980BFF36F8F0F4B1A6853
:1001E00020E9F00F106008B54FF0500080F311883F
:1001F000BFF34F8FBFF36F8F02F094FC4FF00000FE
:1002000080F31188BDE8084019680868B0E8F00F6D
:1002100080F30988BFF36F8F704700BF5000002044
:10022000EFF3058070470000094880470948004700
:10023000FEE7FEE7FEE7FEE7FEE7FEE7FEE7FEE796
:10024000FEE7FEE704480549054A064B70470000F3
:10025000731E0008ED000008501100205017002008
:1002600050130020501300200FB41CB5074B06AAF2
:100270007B4469460090059800F079F900206946B2
:1002800000F088F91CBC5DF814FB0000210300009D
:100290002DE9F0410E460446002020622046E16828
:1002A000884730B3252805D0D4E901219047206A3A
:1002B000401CF2E7E168204600278847050018D077
:1002C000A5F14100192802D820354FF400673246C5
:1002D000294620462760FFF743FF40B1012804D09C
:1002E000F61D26F007060836D8E7361DD6E728465D
:1002F000DAE7206ABDE8F0812DE9F04106460024E6
:1003000010687529314616A510D0AFF3008000287B
:1003100002DA404213A507E031688A0701D512A529
:1003200002E0490704D511A5012401E0AFF30080E4
:1003300000210A2206F1240709E0B0FBF2FCB0FB21
:10034000F2F302FB1C00303078541846491C002898
:10035000F3D123462A463046BDE8F04100F0A9B863
:10036000000000002D0000002B0000002000000015
:10037000032A40F2308010F0030C00F0158011F8D1
:10038000013BBCF1020F624498BF11F801CB00F8A9
:10039000013B38BF11F8013BA2F1040298BF00F8FD
:1003A00001CB38BF00F8013B11F0030300F02580BA
:1003B000083AC0F0088051F8043B083A51F804CBE1
:1003C000A0E80810F5E7121D5CBF51F8043B40F8A7
:1003D000043BAFF30080D20724BF11F8013B11F8B2
:1003E00001CB48BF11F8012B24BF00F8013B00F8F6
:1003F00001CB48BF00F8012B704710B5203AC0F080
:100400000B80B1E81850203AA0E81850B1E8185015
:10041000A0E81850BFF4F5AF5FEA027C24BFB1E852
:100420001850A0E8185044BF18C918C0BDE81040C3
:100430005FEA827C24BF51F8043B40F8043B08BFCC
:100440007047D20728BF31F8023B48BF11F8012B93
:1004500028BF20F8023B48BF00F8012B70474FF03F
:10046000000200B5134694469646203922BFA0E804
:100470000C50A0E80C50B1F12001BFF4F7AF090710
:1004800028BFA0E80C5048BF0CC05DF804EB890001
:1004900028BF40F8042B08BF704748BF20F8022B44
:1004A00011F0804F18BF00F8012B7047704770475C
:1004B00070472DE9F0470D4699469246044600F1F3
:1004C00024080168880604D5E06921F01001216044
:1004D00000E00120A84201DD471B00E00027A169E0
:1004E0007A1902EB0900081AA0612078C00602D42C
:1004F0002046AFF30080002608E0D4E901211AF875
:1005000006009047206A401C761C20624E45F4DBB2
:100510002078C0060AD52046AFF3008006E0D4E973
:10052000012130209047206A401C2062381EA7F12C
:100530000107F4DC07E0D4E9012118F80500904731
:10054000206A401C2062281EA5F10105F3DC20462C
:10055000AFF300802078000602D50220BDE8F087C6
:100560000120FBE701694A1C02610878704700B569
:100570008FB0CDE901310021059105497944CDE9DC
:10058000031011466846FFF783FE0FB000BD000060
:10059000E5FFFFFF0A6802F8010B0A607047754625
:1005A00000F02CF8AE4605006946534620F00700DF
:1005B000854618B020B5FFF745FEBDE820404FF056
:1005C00000064FF000074FF000084FF0000B21F03D
:1005D0000701AC46ACE8C009ACE8C009ACE8C0090A
:1005E000ACE8C0098D46704710B50446AFF30080F3
:1005F0002046BDE81040FFF7C5BD00000048704729
:10060000F010002001491820ABBEFEE726000200D2
:100610007047000070B5044600688168C943C90787
:1006200017D1816821F00101816000F0C3FB05460C
:100630000AE000BF00F0BEFB401B022804D920687E
:100640008068C043C00706D020688068C043C007E8
:10065000F0D0002070BDA06A40F01000A062E06AF7
:1006600040F00100E062012070BDFEE770B500249B
:10067000282001F07BFC0C4D0221284600F090FB65
:1006800050B9502001F072FC0221284600F088FB8E
:1006900008B1012400E0FF240221284600F080FB7D
:1006A0000028F9D1204670BD0008014070B5002433
:1006B000282001F05BFC0C4D0121284600F070FB66
:1006C00050B9502001F052FC0121284600F068FB8F
:1006D00008B1012400E0FF240121284600F060FB5E
:1006E0000028F9D1204670BD000801402B4C4FF086
:1006F000FF3500BF00F0B0F8FFF7B8FF207000F042
:100700004FF8A07000F04CF8E07000F049F820714C
:1007100000F046F8607100F043F860812079E081D4
:10072000A178A181C4E9060100F0BEF8FFF7BEFF81
:10073000607000F063F8A07100F060F8E07100F004
:100740005DF8207200F05AF8607200F057F82082CD
:10075000207AA082A1796182C4E908010F490023AF
:100760002A461831206B02F023FB0C4900232A464D
:100770001C31606B02F01CFB084900232A46203123
:10078000A06B02F015FB054900232A462431E06BDB
:1007900002F00EFB012001F027FDABE70000002076
:1007A0002DE9F0410024144F01260221384600F0C3
:1007B000F7FA0028F9D0282001F0D8FB02213846AA
:1007C00000F0EEFA90B1C4F1070106FA01F02843F7
:1007D000C5B20221384600F0E3FA0028F9D1641CC2
:1007E000E4B2082CE1D32846BDE8F081C4F107004B
:1007F00006FA00F08543ECE7000801402DE9F041DE
:100800000024144F01260121384600F0C9FA0028BF
:10081000F9D0282001F0AAFB0121384600F0C0FAE7
:1008200090B1C4F1070106FA01F02843C5B20121D5
:10083000384600F0B5FA0028F9D1641CE4B2082C5F
:10084000E1D32846BDE8F081C4F1070006FA00F0C4
:100850008543ECE70008014010B5124C0221204608
:1008600001F048FA01220221204600F09EFA4FF4DE
:100870007A7000F093F900220221204600F095FAE8
:1008800044F2506001F072FB01220221204600F088
:100890008CFA142001F06AFB2046BDE810400221CA
:1008A00001F014BA0008014010B5124C0121204695
:1008B00001F02CFA01221146204600F076FA4FF49E
:1008C0007A7000F06BF900220121204600F06DFAE9
:1008D00044F2506001F04AFB01221146204600F02C
:1008E00064FA142001F042FB2046BDE810400121CB
:1008F00001F0F6B90008014070470000F8B5002487
:10090000009490F824202546012A12D0012280F874
:1009100024204A681F23072A0DD20668776B521ECF
:1009200002EB820293409F430B6893401F4377631F
:1009300019E00220F8BD06680D2A0AD2376BD21FD3
:1009400002EB820293409F430B6893401F4337633F
:1009500009E0F76A0D3A02EB820293409F430B686D
:1009600093401F43F7620A68072306680A2A0AD3DE
:10097000F7680A3A02EB420293409F438B68934028
:100980001F43F76008E0376902EB420293409F4340
:100990008B6893401F4337610A68102A01D0112ADF
:1009A00020D1124B02689A4217D193681B0219D4C6
:1009B000936843F4000393600968102912D10C492D
:1009C0000C4A0968B1FBF2F101EB8101490000E03A
:1009D000491E00910029FBD104E0816A41F0200109
:1009E0008162012480F824502046F8BD0024014093
:1009F0004C00002040420F002DE9F0414FF000076D
:100A000004003D467ED0A06A002628B9E66284F83C
:100A10002460204600F07EF82046FFF7FBFDA16A27
:100A200001F01001014304D0A06A40F01000A06260
:100A300068E0A16A21F4885141F00201A162626874
:100A4000E169237B0A4347EA43010A43A1684FF463
:100A50008077B94208D0012906D0002194F814C04B
:100A6000BCF1010F02D00AE03946F7E7F3B1A36AFF
:100A700043F02003A362E36A43F00103E3622368C7
:100A8000D3F804C02CF4694C4CEA010CC3F804C040
:100A900023689968DFF870C001EA0C01114399607E
:100AA000A168B9420BD0012909D00CE0DFF85CC085
:100AB000A3690CEB43330B4343F40061DFE7218A66
:100AC0000D05A5F580152168CB6A23F470032B432F
:100AD000CB62216889680E4B1940914208D1E662C9
:100AE000A16A21F0020141F00101A162BDE8F0819B
:100AF000A06A20F0020040F01000A062E06A40F01E
:100B00000100E0620120F1E7FDF7E1FF00E0FFFFF7
:100B1000FE0E1FFF10B586B00021009101910291D9
:100B200003911A4C03681A4903221A48A34211D1AF
:100B30008B6943F400738B618B6903F40073049336
:100B40008B6943F004038B61896901F0040104910E
:100B5000042113E0104CA34215D18B6943F4806348
:100B60008B618B6903F4806304938B6943F0040306
:100B70008B61896901F0040104910821CDE900121B
:100B8000694600F01DF806B010BD000000240140C9
:100B900000100240000801400028014070B50446E2
:100BA00000F008F90546601C02D0044800780444AF
:100BB00000F000F9401BA042FAD370BD40000020B5
:100BC0002DE9F84FDFF8B891002409F1040A0AF181
:100BD000040B23460F270BF1040EC9E00125A540A5
:100BE0002A40AA427DD1674ED1F804C0ACEB06087A
:100BF000B44532D014DCBCF1030F3AD009DCBCF1AF
:100C0000000F2AD0BCF1010F1CD0BCF1020F31D172
:100C10001DE0BCF1110F17D0BCF1120F2AD119E061
:100C2000B8F5881F19D006DCB8F5803F15D0B8F5A7
:100C3000801F1FD111E0B8F5001F0ED0B8F5041FBA
:100C400018D10AE0CB6815E0CB681B1D12E0CB6819
:100C500008330FE0CB680C330CE08B682BB1012B11
:100C60004FF0080303D0456104E0042302E005616E
:100C700000E00023FF2A01D8064601E000F1040647
:100C80004FEA840501D9A5F12005D6F8008007FABE
:100C900005FC28EA0C0803FA05F548EA0508C6F839
:100CA00000804D68ED0062D5374DAE6946F0010613
:100CB000AE61AD6924F0030605F001050095334DE2
:100CC00006EB050CDCF80850A607360F07FA06F805
:100CD00025EA0805DFF8B880404503D14FF0000849
:100CE00017E044E0DFF8AC80404502D14FF0010846
:100CF0000FE0DFF8A480404502D14FF0020808E081
:100D0000DFF89880404502D14FF0030801E04FF032
:100D1000040808FA06F848EA0508CCF808804D6887
:100D2000D9F80060ED034D4601D5164300E0964327
:100D30002E604D68DAF80060AD03554601D51643C4
:100D400000E096432E604D68DBF80060ED025D46E2
:100D500001D5164300E096432E604D68DEF8006032
:100D6000AD02754601D5164300E096432E60641C23
:100D70000D682A46E5407FF431AFBDE8F88F0000EA
:100D8000000401400000111000100240000001406A
:100D900000080140000C0140001001400014014017
:100DA0008068084000D0012070470AB10161704797
:100DB0000904FBE7014880687047000040000020FC
:100DC00070B5040025D094F83D00002520B984F8C2
:100DD0003C50204600F04EF9242084F83D00206865
:100DE000016821F0010101602068016841F40041BF
:100DF00001602068016821F40041016000F084FA7C
:100E00004D4A6168914201D84C4900E04C49884202
:100E100001D2012070BD4B492368B0FBF1F15E683F
:100E200026F03F060E435E606368934206D94FF496
:100E3000967359434FF47A73B1FBF3F12368491C5D
:100E40001E6A26F03F06314319626168914210D84C
:100E50004900401EB0FBF1F2521CC2F30B02042AFF
:100E600001D2042022E0B0FBF1F0401CC0F30B00E3
:100E70001CE0A268F2B301EBC10303EB0116431EB1
:100E8000B3FBF6F35B1C43F480431B0549D092B3DC
:100E900001EBC10202EB0111401EB0FBF1F0401C5E
:100EA000C0F30B0040F4804040F400402168CA6960
:100EB0004CF6FF739A431043C861D4E9071001430D
:100EC0002068026822F0C00211430160D4E90301E6
:100ED00001432068826848F2FF339A4311438160DE
:100EE000D4E9050108432168CA6822F0FF021043D3
:100EF000C86001E00EE016E02068016841F00101E1
:100F000001602564202084F83D00256384F83E506C
:100F1000002070BD01EB4106431EB3FBF6F35B1CE2
:100F2000B3E70120C2E701EB4101401EB0FBF1F045
:100F3000401CC0F30B00B7E7A086010080841E00B0
:100F400000093D0040420F002DE9F84F1F46904632
:100F50008A460446DDF82890FFF72CFF054694F8F2
:100F60003D0020287FD119230122404920460095C9
:100F700000F04AFD002876D194F83C00012872D098
:100F8000012084F83C0020680168C90703D101688A
:100F900041F0010101602068016821F400610160F5
:100FA000212084F83D00102084F83E0000262664AD
:100FB000C4F824806785608D20852D48E0622B462B
:100FC0004A465146204600F0ABFC90B92068416982
:100FD0008069009036E02A464946204600F093FD9D
:100FE00050B1206C042804D12068016841F40071DC
:100FF00001600120BDE8F88F606A2168007808610F
:10100000606A401C6062618D491E6185218D491EA8
:1010100089B2218522685369DB435B070BD451B148
:1010200000781061606A401C6062608D401E6085BF
:10103000208D401E20852A464946204600F0BEFCF1
:101040000028CED1208D0028C5D154F83D0B016871
:1010500041F400710160202004F81E09E6776677EC
:101060000020C7E7FFE70220C4E7000002001000ED
:101070000000FFFF10B586B00021009101910291A0
:10108000039100680F4988421AD10F4CA06940F0C3
:101090000800A061A069694600F008000490C02023
:1010A000009012200190032003900848FFF788FD6C
:1010B000E06940F40010E061E06900F40010049081
:1010C00006B010BD0054004000100240000C01406A
:1010D0000248816802781144816070474000002016
:1010E000074810B5016841F010010160032000F0CD
:1010F00063F80F2000F006F800F024F8002010BD7F
:101100000020024070B50D4D04464FF47A712878E6
:10111000B1FBF0F00A490968B1FBF0F000F0CAFA3F
:1011200048B9102C07D200222146501E00F024F8A6
:1011300000206C6070BD012070BD000040000020E8
:101140004C0000200B4882B0816941F001018161AF
:10115000816901F001010091C16941F08051C161D3
:10116000C069002200F0805000900F21901E02B054
:1011700000F002B800100240F0B40E4B1B680C46A1
:10118000C3F30223C3F10705042D00D90425191D5B
:10119000072901D2002300E0DB1E012606FA05F133
:1011A000491E214099409E40761E16403143F0BCB6
:1011B00000F0CCBE0CED00E0064900F00702086824
:1011C0004FF6FF03184040EA0220034A104308602C
:1011D000704700000CED00E00000FA052DE9F04733
:1011E0000F46050061D0434E306800F00700B8425A
:1011F00009D2306820F0070038433060306800F0D2
:101200000700B84251D128683B4C810712D54007EE
:1012100003D5606840F4E06060602878000703D57B
:10122000606840F4605060606068A96820F0F00079
:10123000084360602878C00728D06868012810D06B
:101240002168022810D0890700292EDA616821F070
:10125000030101436160FFF7ADFD804641F288392B
:101260000DE021688903EFE78901EDE7FFF7A2FDB3
:10127000A0EB0801494502D90320BDE8F08760686A
:10128000696800F00C00B0EB810FEFD1306800F01E
:101290000700B8420BD9306820F0070038433060AF
:1012A000306800F00700B84201D00120E5E7287857
:1012B000400705D56068E96820F4E0600843606095
:1012C0002878000706D56068296920F4605040EA54
:1012D000C100606000F028F86168084AC1F303119A
:1012E000515CC8400649086006480068FFF70AFFDD
:1012F0000020C2E70020024000100240F83400083D
:101300004C0000204400002004480549006849685A
:10131000044AC1F30221515CC84070474C000020D0
:10132000001002400835000812A185B00FC98DE8F1
:101330000F0014A0144A006804905168134801F08B
:101340000C03042B10D0082B0ED1C1F38343C90327
:101350001DF803000AD5516804AAC1F34041515C4D
:101360000A4A5043B0FBF1F005B0704708494843C2
:10137000FAE7000002030405060708090A0B0C0D32
:101380000E0F1010010200000010024000127A003F
:1013900000093D002DE9F84F040070D02078C04DC1
:1013A000C00749D06868C0F38100012807D0686889
:1013B000C0F38100022809D16868C00306D52868F7
:1013C000800339D560680028E7D035E06068B0F563
:1013D000803F0BD010B1B0F5A02F11D0286820F4B9
:1013E00080302860286820F4802002E0286840F4DB
:1013F00080302860606890B1FFF7DCFC06460AE0A8
:10140000286840F480202860F0E700BFFFF7D2FC96
:10141000801B642873D828688003F7D50CE0FFF799
:10142000C9FC064605E000BFFFF7C4FC801B64282A
:10143000F0D828688003F7D420789A4E80074FF0C0
:1014400001094FF0000839D5686810F00C0F07D07B
:101450006868C0F38100022809D16868C00306D417
:101460002868800714D52069012808D110E0206978
:10147000B0B1C6F80090FFF79DFC074605E00AE111
:10148000FFF798FCC01B0228C4D828688007F7D54E
:101490002868616920F0F80040EAC10028600DE08A
:1014A000C6F80080FFF786FC074604E0FFF782FCE1
:1014B000C01B022823D828688007F7D420780007AB
:1014C0002CD57948A169D9B1C0F80090FFF772FC1A
:1014D000074604E0FFF76EFCC01B02280FD8686ABD
:1014E0008007F7D571484FF4FA510068B0FBF1F06E
:1014F000009000BF0098411E0091FAD20EE080E0FB
:10150000C0F80080FFF756FC074604E0FFF752FCE6
:10151000C01B022875D8686A8007F7D42078400776
:1015200060D5E8690027C00008D4E86940F0805021
:10153000E861E869012700F0805000905C4801688C
:10154000C90513D40168834641F480710160FFF737
:1015500031FC824606E000BFFFF72CFCA0EB0A003E
:1015600064284ED8DBF80000C005F5D5E0680128F6
:101570000AD008B1052813D0286A20F0010028629B
:10158000286A20F0040002E0286A40F00100286286
:10159000E06841F2883B98B1FFF70CFC82460BE013
:1015A000286A40F004002862EEE700BFFFF702FC63
:1015B000A0EB0A0159455AD8286A8007F6D50CE0F5
:1015C000FFF7F8FB824605E0FFF7F4FBA0EB0A010A
:1015D00059454CD8286A8007F6D41FB1E86920F035
:1015E0008050E861E06988B36968C1F3810102292C
:1015F00044D00228C6F8608004D0FFF7DBFB044625
:1016000038E034E0FFF7D6FB074604E0FFF7D2FBF3
:10161000C01B02282BD828688001F7D4206AB0F5B7
:10162000803F05D16868A16820F4003008436860F5
:10163000D4E908010843696821F47411084368601B
:10164000C6F86090FFF7B6FB044606E025E000BF51
:10165000FFF7B0FB001B022809D828688001F7D5E6
:101660001BE000BFFFF7A6FB001B022802D90320E6
:10167000BDE8F88F28688001F4D40EE00128F7D087
:101680006868226A00F48031914204D1616A00F4F2
:101690007010884201D00120EAE70020E8E700004E
:1016A0000010024000004242800442424C000020F0
:1016B0000070004010B5401EB0F1807F01D30120C2
:1016C00010BD4FF0E02460610F21601700F03EFC78
:1016D0000020A06107202061002010BD70B590F8A7
:1016E0003C20012A26D0012480F83C40022280F8C8
:1016F0003D2003685A689D6822F070060A683243EC
:101700005A600D4B02689A4208D0B2F1804F05D062
:101710000A4B9A4202D00A4B9A4204D1496825F0FA
:1017200080031943916080F83D40002180F83C100F
:10173000084670BD022070BD002C0140000400402E
:101740000008004010B5040003D094F83D0010B12B
:1017500007E0012010BD002084F83C00204600F086
:101760001FF8022084F83D00211D206800F082FB54
:10177000012084F8460084F83E0084F83F0084F895
:10178000400084F8410084F8420084F8430084F863
:10179000440084F8450084F83D00002010BD00009E
:1017A00008B500680649884208D10648C16941F079
:1017B0000401C161C06900F00400009008BD000090
:1017C000000800400010024090F83D10012901D0AF
:1017D00001207047022180F83D1000680B498842C3
:1017E00008D0B0F1804F05D00949884202D009499C
:1017F000884204D1816801F00701062903D00168FD
:1018000041F001010160002070470000002C014000
:10181000000400400008004070B5044690F83C0009
:10182000012817D0012584F83C50022084F83D009F
:101830002068826822F0770222F47F428260086882
:10184000502830D00DDC20284DD005DC98B310286E
:101850003BD148E0022070BD302844D0402834D12C
:1018600039E0602828D0702806D0B0F5805F2CD0F1
:10187000B0F5005F29D10AE0CB68D1E901212068E9
:1018800000F02EFB2068816841F0770109E0CB6809
:10189000D1E90121206800F023FB2068816841F430
:1018A0008041816011E0CA684968206800F02AFB25
:1018B0005021206807E016E0CA684968206800F0F7
:1018C00032FB6021206800F015FB84F83D500020B9
:1018D00084F83C0070BDCA684968206800F012FBBB
:1018E00040212068EFE7226801461046EBE7FEE75B
:1018F00001684A69D24352050FD46FF480624A618D
:10190000002140F8301F202242738173026942F0A7
:10191000040202610173012070470020704700003B
:10192000F8B50446C06A1E460D461746082807D07B
:10193000012805D010F5803F02D0206B122804D179
:101940002068016841F480710160134600224FF065
:1019500001112046009600F057F840B12068006859
:10196000C00502D54FF4007020640320F8BD206943
:10197000B0F5804F0ED00620216800EAD51040F067
:10198000F000086133463A460B49204600F070F8F3
:1019900078B902E005F0FE0000E0E8B221680861D5
:1019A000054933463A46891F204600F061F8002871
:1019B000DCD00120F8BD00000800010070B516461B
:1019C0000D4604460DE02046FFF792FF08B10120C6
:1019D00070BD681C05D0FFF7EDF9801BA84207D841
:1019E00035B120684069C0434007ECD4002070BD89
:1019F000002044F8300F20216173A073216941F069
:101A0000200121612073E2E72DE9F0471E46904650
:101A10000D460446C1F30747DDF8209008E0701C2E
:101A200006D0FFF7C7F9A0EB0900B0420FD876B196
:101A30002068012F18D0806925EA00000004000CFE
:101A400014D000214145EAD00020BDE8F0870020F5
:101A500044F8300F20216173A073216941F0200107
:101A6000216120730120F0E74069E5E70121E9E702
:101A70002DE9F0479A4691460E46044600254FF060
:101A80002008C1F3074725E020684069C0434005AE
:101A900014D42068016841F40071016021686FF47A
:101AA00080604861256384F83D8084F83E50206C56
:101AB00040F00400206484F83C501FE0B9F1FF3F7F
:101AC00008D0FFF777F9A0EB0A0149450CD8B9F126
:101AD000000F09D02068012F13D0806926EA00008A
:101AE0000004000C0BD0CFE744F8305F84F80D8081
:101AF000A573206940F02000206125730120BDE816
:101B0000F0874069EAE770B516460D4604460DE0D9
:101B10002046FFF7EDFE08B1012070BD681C05D01E
:101B2000FFF748F9801BA84207D835B12068406903
:101B3000C0430006ECD4002070BD002044F8300FF4
:101B400020216173A073216941F02001216120737C
:101B5000E2E700003EB500211148009101910F4AD3
:101B60000291026081600173017501244FF46022CB
:101B70000461C2614160FEF73FFF08B172B6FEE743
:101B80000220CDE900040520029069460448FEF7D2
:101B9000B5FE002801D072B6FEE73EBD002401402C
:101BA000B00000203EB500211148009101910F4A7C
:101BB0000291026081600173017501244FF460227B
:101BC0000461C2614160FEF717FF08B172B6FEE71B
:101BD0000320CDE900040520029069460448FEF781
:101BE0008DFE002801D072B6FEE73EBD0028014000
:101BF000E000002030B585B000241748009401941F
:101C000002940394816941F020018161816901F0AE
:101C100020010491816941F004018161816901F031
:101C200004010491816941F00801816180690B4DD3
:101C300000F008000490012202212846FFF7B5F8C1
:101C400002210120CDE90010CDE902416946284674
:101C5000FEF7B6FF05B030BD00100240000801409D
:101C600010B586B0002417480094019402940394A0
:101C700004941349059401604721C0E901144FF60B
:101C8000FE71C0E903148461FFF75CFD08B172B610
:101C9000FEE74FF48050009069460A48FFF7BCFD0C
:101CA00008B172B6FEE7049404A906480594FFF74C
:101CB00015FD002801D072B6FEE706B010BD000089
:101CC0000008004064010020FEE7FEE71FB5002287
:101CD00000910192029203926946FEF771FF1FBDC7
:101CE0001FB5002200910192029203926946FEF70D
:101CF00067FF1FBD1FB5002200910121CDE9011230
:101D0000022103916946FEF75BFF1FBD1FB500224C
:101D100000910121CDE90112022103916946FEF7EC
:101D20004FFF1FBD86B000F039F92F4C4FF0FF3543
:101D30002D492A461831206B01F0F2F82A492A462B
:101D40001C31606B01F0ECF827492A462031A06B6A
:101D500001F0E6F824492A462431E06B01F0E0F86E
:101D600014216846FEF77BFB0021084600F052F97B
:101D70001EA16846A269FEF777FA684600F096F958
:101D8000432000F073F90A21002000F043F919A163
:101D90006846E269FEF768FA684600F087F9252090
:101DA00000F064F90021012000F034F90FA1684629
:101DB000226AFEF759FA684600F078F9432000F0ED
:101DC00055F90A21012000F025F90AA16846626A46
:101DD000FEF74AFA684600F069F9252000F046F956
:101DE000012000F001FAA3E70000002054656D70A7
:101DF0003A25640052683A256400000010B5FFF7E8
:101E000067F901F0D7F9012803D0BDE8104000F0D0
:101E100013BF10BD30B58FB028216846FEF71FFBF9
:101E200014210AA8FEF71BFB01210804CDE90010CC
:101E30000024029402250491CDE907504FF4E010EC
:101E400009906846FFF7A6FA08B172B6FEE70F20C0
:101E5000CDE90A054FF48060CDE90C4002210AA8C3
:101E60000E94FFF7BBF9002801D072B6FEE70FB061
:101E700030BD7047F0B50268164B174C174D4FF048
:101E80008047984205D0B84203D0A04201D0A84272
:101E900003D122F070064A683243984205D0B84216
:101EA00003D0A04201D0A84203D122F44074CA68F2
:101EB00022434C6922F08002224302608A68C26297
:101EC0000A688262984201D1096901630121416176
:101ED000F0BD0000002C014000040040000800405C
:101EE00010B5846842EA032224F47F440A43224363
:101EF000826010BD826822F070020A4342F007013E
:101F00008160704710B5036A046A24F0010404621A
:101F1000846924F0F00444EA021423F00A020A431C
:101F20008461026210BD10B5036A23F010030362DE
:101F30008369046A23F4704343EA023224F0A00365
:101F400043EA01118261016210BDFEE70907090E33
:101F5000002804DB00F1E02080F80014704700F056
:101F60000F0000F1E02080F8141D704704490022A2
:101F70000B685A6209684A6A8242FCD370470000C3
:101F80006401002010B5802000F050F800242020CB
:101F900000F06CF8641C462CF9DB10BD10B5322043
:101FA000FEF7FCFD302000F041F80520FEF7F6FDBD
:101FB000302000F03BF80120FEF7F0FD302000F06B
:101FC00035F80A20FEF7EAFD202000F02FF80A205D
:101FD000FEF7E4FD282000F029F80120FEF7DEFDE1
:101FE000082000F023F80120FEF7D8FD012000F0C2
:101FF0001DF80120FEF7D2FD0120FEF7CFFD0620DF
:1020000000F014F80120FEF7C9FDBDE810400C20D7
:1020100000F00CB810B1012805D102E041F08001B8
:1020200001E041F0C001C8B2AFF300801CB500F080
:10203000F00141F00C028DF8042041F0080100018C
:102040008DF8051040F00C018DF8061040F00800E6
:102050008DF8070064200090042301AA4E21024855
:10206000FEF772FF1CBD0000100100201CB500F03F
:10207000F00141F00D028DF8042041F0090100014A
:102080008DF8051040F00D018DF8061040F00900A4
:102090008DF8070064200090042301AA4E21024815
:1020A000FEF752FF1CBD00001001002010B50446D1
:1020B00002E0641CFFF7DAFF20780028F9D110BD98
:1020C0009EB0FFF70DF8FFF7A5FEFFF793FD3B4825
:1020D00039494FF4804201603949416000218160F3
:1020E000C0E9031241618161C1610162FEF768FECE
:1020F00008B172B6FEE7FFF7B3FDFFF72BFDFFF760
:1021000051FD2E485430FFF75FFBFFF747FF2DA02E
:10211000FFF7CCFF4FF4FA60FEF740FDFFF732FF08
:102120002C4D0DF1380C95E80F008CE80F000021C4
:102130000EA800F066F8284C10350DF1480C20630D
:1021400095E80F008CE80F00002112A8103D00F068
:1021500058F82035606395E80F000DF1580C203DCC
:102160008CE80F00002116A800F04BF83035A06372
:1021700095E80F000DF1680C8CE80F0000211AA8FB
:1021800000F03FF8E0631C2205F110016846FEF7FD
:1021900034F90021684600F049F8A0621C2205F1DC
:1021A0002C0107A8FEF729F9002107A800F03EF846
:1021B000E06200F021F8FEE700540040100100202A
:1021C000A0860100494E495449414C495A494E475D
:1021D0002E2E0000803400080000002000218428FA
:1021E00000D0C11C0846704710B5002800D101205E
:1021F00000F0FCFB002010BD10B500F047FC0020F3
:1022000010BD08B58268D0F800C04168002A07D028
:10221000C3682BB100200090604600F048FD08BD67
:10222000BDE808400022604600F01CBD30B585B016
:1022300004460D466169B4F90800002910D0A1696F
:1022400071B1FFF7CBFF6269A16901920291009021
:102250002B4622692168606800F07CFF049010E042
:10226000FFF7BCFF04A901910090208A2B4682B29F
:102270002168606800F038FF012802D005B0002016
:1022800030BD049805B030BD2DE9F04104460F463D
:10229000194E75693068001D00F0DEFA48B93068E3
:1022A000012190F82C0001FA00F0B16921EA000048
:1022B000B061B4F1FF3F07D137B13068BDE8F041FC
:1022C000011D0E4800F00FBB2C4430684460AC4246
:1022D00006D23068011DB068BDE8F04100F0E8BAF0
:1022E0003068011D706800F0E3FA306B844200D260
:1022F0003463BDE8F081000050000020DC040020C1
:1023000070B5044600F0FCFA1C4D2869401C286199
:10231000286810B1E86938B10CE02C602869012800
:1023200008D100F03DF905E02868E16AC06A8842FA
:1023300000D82C60E86A401CE862E06A0121AA69C2
:1023400081401143A9610E4900EB800001EB800040
:10235000211D00F0C8FA00F0F3FAE86900280CD05B
:102360002868E16AC06A884207D206494FF0805067
:102370000860BFF34F8FBFF36F8F70BD5000002018
:102380000004002004ED00E070B50D4CE06800286A
:1023900015D00C4E00F0B4FAF068C568281D00F0A6
:1023A0005BFA2069401E2061E068401EE06000F09A
:1023B000C7FA284600F051F8E0680028EAD170BD5D
:1023C00050000020C80400200B46026C002A0CD0EC
:1023D000C1681144C160D0F804C0614501D30168EF
:1023E000C160C1681846FDF7C3BF70472DE9F041D1
:1023F000044616460027A56B226C002A10D0C6B1F1
:10240000E068FDF7B5FFE168206C091AE160226819
:10241000914202D26168081AE060022E16D017E0DD
:102420002068A8B9606800F03BFF074600206060A4
:102430000EE0A068FDF79CFF216CA0680844A06036
:102440006168884204D32068A06001E005B16D1E78
:10245000681CA0633846BDE8F08110B5044694F8C6
:10246000511000290BD0012911D0022914D050207D
:1024700080F31188BFF34F8FBFF36F8FFEE7206BA0
:1024800000F074FA2046BDE8104000F06FBA204614
:10249000BDE8104000F06ABA10BD00004FF4406182
:1024A000104810F0070F06D0C01D20F007000D499E
:1024B000411AC1F540610C4A106000235360014489
:1024C000083921F00701103A11604B600B600B1ABC
:1024D000436001604068906050604FF00040D06001
:1024E00070470000F00400209C000020074E4FF0D1
:1024F0008054074DFFF748FF30680128FAD92C6057
:10250000BFF34F8FBFF36F8FF4E70000000400208C
:1025100004ED00E003460098002905D00260C36383
:102520000164012100F0FCBB0060F8E72DE9F047F1
:102530008146099E089D0A9C9A46521E206B00EB1C
:10254000820020F007080027002023180A5C83F887
:1025500034200A5C12B1401C1028F6D384F8437072
:10256000072D00D30625E5626564A764201D00F0F1
:102570009CF904F1180000F098F92461C5F10700F6
:10258000A0616462E76484F8507052464946404650
:1025900000F050F92060002E00D03460BDE8F087D4
:1025A00070B500240F4D04EB840005EB800000F0B3
:1025B00071F9641C072CF6D30B4800F06BF90B483B
:1025C00000F068F90A4800F065F90A4800F062F97D
:1025D000094800F05FF909480349416014318160FE
:1025E00070BD0000000400208C040020A004002026
:1025F000B4040020C8040020DC04002050000020A7
:1026000010B4144900E011460A688242FBD34B68BB
:1026100003EB010C844503D1406818444860084628
:102620000C68D0F804C00CEB0003A3420CD10A4B99
:102630001B689A4206D05268624442600A68126877
:10264000026002E0036000E00260814200D00860A6
:1026500010BC70479C0000208C00002010B5044680
:1026600000F04EF9A06B20B1002400F069F920467B
:1026700010BD0124F9E710B5044600F041F9A06B44
:10268000E16B884201D1012400E0002400F058F9F8
:10269000204610BD074948680068002805D04868F2
:1026A000C068C0684068086370474FF0FF30086337
:1026B00070470000500000200A484068B0F1FF3F1A
:1026C00007D0502080F31188BFF34F8FBFF36F8F77
:1026D000FEE7502080F31188BFF34F8FBFF36F8F59
:1026E000FEE70000A400002070B5044600F008F9E1
:1026F00094F94550002D0CDD606A50B104F12400BE
:1027000000F01CFE08B100F0A1F9681E45B2002DD2
:10271000F2DC4FF0FF3684F8456000F011F900F06C
:10272000EFF894F94450002D0CDD206950B104F10C
:10273000100000F003FE08B100F088F9681E45B2F1
:10274000002DF2DC84F84460BDE8704000F0F8B879
:102750002DE9F0410546002600F0DCF9334F3868DA
:1027600008B9FFF79BFEF86805424ED19DB10835C8
:1027700015F0070F0FD005F00700C0F10800054461
:1027800015F0070F07D0502080F31188BFF34F8F4B
:10279000BFF36F8FFEE7002D37D07868854234D8BD
:1027A00023490846046801E0214604466068A842BF
:1027B00002D220680028F7D13868844225D0086802
:1027C00000F10806206808606068411B10290FD9D5
:1027D000601910F0070F07D0502080F31188BFF365
:1027E0004F8FBFF36F8FFEE741606560FFF708FF13
:1027F00061687868401A7860BA68904200D2B86020
:10280000F868084360600020206000F0D3FD16F0F7
:10281000070F07D0502080F31188BFF34F8FBFF30D
:102820006F8FFEE73046BDE8F08100008C0000208D
:102830009C000020001F4FF080730360001F21F0F8
:1028400001010160001F0349016014380260203853
:1028500070470000B92600080169436882689A60E1
:10286000836842685A604A68824201D182684A603D
:10287000002202610868401E086008687047000076
:10288000034B036003F15400086080201060704720
:10289000AC01002000F1080141604FF0FF3282607E
:1028A000C160016100210160704700210161704732
:1028B00010B4D1F800C0BCF1FF3F02D000F1080213
:1028C00002E0026904E01A4653681C686445FAD9BC
:1028D00053684B6099608A60516008610168491CC7
:1028E000016010BC704742684A6093688B609368CF
:1028F0005960916008610168491C016070470000DF
:10290000502080F31188BFF34F8FBFF36F8F0A49B8
:102910004868401C486001280CD10848006810F045
:10292000FF0F07D0502080F31188BFF34F8FBFF304
:102930006F8FFEE770470000A400002004ED00E068
:1029400009494868002806D0401E4860002801D187
:1029500080F311887047502080F31188BFF34F8FA8
:10296000BFF36F8FFEE70000A400002070B50028C1
:1029700027D0A0F10804134D6068E968084207D128
:10298000502080F31188BFF34F8FBFF36F8FFEE7A6
:1029900022683AB1502080F31188BFF34F8FBFF304
:1029A0006F8FFEE78843606000F0B4F86068696884
:1029B000084468602046FFF723FEBDE8704000F041
:1029C000F9BC70BD8C0000204FF0E02000210161B7
:1029D000816105494FF47A720968B1FBF2F1491E31
:1029E00041610721016170474C00002010B502468B
:1029F0000020002A12D00F48806B38B1502080F39D
:102A00001188BFF34F8FBFF36F8FFEE700F082F89E
:102A100000211046FFF738FC00F0CCFC002807D15D
:102A200005494FF080500860BFF34F8FBFF36F8FA1
:102A300010BD00005000002004ED00E002498A6A49
:102A4000026049694160704750000020014901203F
:102A5000486270475000002010B50C4600280BD08B
:102A6000094A126802F11801FFF722FF2046BDE86B
:102A700010400121FFF708BC502080F31188BFF3FC
:102A80004F8FBFF36F8FFEE75000002010B586B068
:102A900000240594049403AA04A905A8FFF7F0FEF6
:102AA00005980499019102900023009415A11748FC
:102AB000039A00F04FFB1649486308B1012000E07B
:102AC000002001280AD0B0F1FF3F19D1502080F337
:102AD0001188BFF34F8FBFF36F8FFEE7502080F355
:102AE0001188BFF34F8FBFF36F8F4FF0FF30086334
:102AF0000120C8614C6106B0BDE8104000F042B84A
:102B000006B010BD49444C4500000000ED2400080B
:102B1000500000200248816B491C8163704700000F
:102B200050000020154A906B002802D0012050620E
:102B30007047002050629069B0FA80F0C0F11F0029
:102B40000F4900EB800051F8203073B101EB800099
:102B500041684968416000F10803994201D1496820
:102B600041604068C06810607047502080F3118851
:102B7000BFF34F8FBFF36F8FFEE7000050000020C0
:102B80000004002000B583B0284908780290FF2097
:102B90000870087801909DF804009DF8042000F06A
:102BA000F000904207D0502080F31188BFF34F8F80
:102BB000BFF36F8FFEE79DF804001D4B00F050003F
:102BC0001870072098609DF8040010F0800F0BD05B
:102BD0009868401E98609DF80400400001909DF8A0
:102BE000040010F0800FF3D19868032807D050201C
:102BF00080F31188BFF34F8FBFF36F8FFEE74FF461
:102C000040709860029808700A48016841F47001A9
:102C10000160016841F070410160FFF7D5FE0020BE
:102C20005860FDF7C7FA03B0002000BD00E400E0E3
:102C3000A400002020ED00E010B5502080F31188A2
:102C4000BFF34F8FBFF36F8F00F0C2FA18B1044982
:102C50004FF080500860002080F3118810BD000004
:102C600004ED00E0F8B505460E461746002D14D0D9
:102C7000DEB105FB06F04830FFF76AFD044654B1AB
:102C800004F14802002084F846003B4631462846BD
:102C90000094FFF73FFC2046F8BD502080F31188D8
:102CA000BFF34F8FBFF36F8FFEE70020E3E738B528
:102CB000049D002804D05BB102B189B1C2B120E00B
:102CC000502080F31188BFF34F8FBFF36F8FFEE763
:102CD000502080F31188BFF34F8FBFF36F8FFEE753
:102CE000502080F31188BFF34F8FBFF36F8FFEE743
:102CF00039B1502080F31188BFF34F8FBFF36F8F2E
:102D0000FEE74FF0480CCDF800C01C46012384F8C4
:102D100046302B460094FFF7FDFB204638BD0000EF
:102D200070B504460D46002C25D0FFF7E9FD226C56
:102D3000E16B206801FB020060600020A063206856
:102D4000A060E16B226C2068491E01FB0200E0607C
:102D50004FF0FF3084F8440084F845009DB104F141
:102D60001000FFF797FD04F12400FFF793FDFFF734
:102D7000E7FD012070BD502080F31188BFF34F8F15
:102D8000BFF36F8FFEE720690028F0D004F1100038
:102D900000F0D4FA0028EAD004494FF080500860CF
:102DA000BFF34F8FBFF36F8FE1E7000004ED00E04A
:102DB0002DE9FF4782B004468A461F460025002CB5
:102DC00003D0BAF1000F08D011E0502080F3118831
:102DD000BFF34F8FBFF36F8FFEE7206C38B15020E9
:102DE00080F31188BFF34F8FBFF36F8FFEE7022F81
:102DF0000AD1E06B012807D0502080F31188BFF37F
:102E00004F8FBFF36F8FFEE700F0D4F948B90498F5
:102E100038B1502080F31188BFF34F8FBFF36F8F0D
:102E2000FEE700264FF08058DFF8F090FFF768FDCE
:102E3000A06BE16B884205D3022F03D0049808B33E
:102E400035B329E03A4651462046FFF7CFFA616A8A
:102E500059B104F1240000F071FA68B1C9F800809A
:102E6000BFF34F8FBFF36F8F06E028B1C9F8008022
:102E7000BFF34F8FBFF36F8FFFF762FD06B00120E6
:102E8000BDE8F087FFF75CFD06B00020BDE8F087E5
:102E90006846FFF7D3FD0125FFF752FDFFF73AFE25
:102EA000FFF72EFD94F94400B0F1FF3F01D184F803
:102EB000446094F94500B0F1FF3F01D184F84560CA
:102EC000FFF73EFD04A9684600F0CEF840B1204669
:102ED000FFF70AFC00F06EFA06B00020BDE8F087AC
:102EE0002046FFF7C8FB90B104F110000499FFF7EA
:102EF000B3FD2046FFF7F8FB00F05CFA002895D1FF
:102F0000C9F80080BFF34F8FBFF36F8F8EE7204665
:102F1000FFF7EAFB00F04EFA88E7000004ED00E05E
:102F20002DE9F74783B004468A460025002C03D0DC
:102F3000BAF1000F08D011E0502080F31188BFF3E0
:102F40004F8FBFF36F8FFEE7206C38B1502080F3B6
:102F50001188BFF34F8FBFF36F8FFEE700F02AF9A0
:102F600048B9059838B1502080F31188BFF34F8FCE
:102F7000BFF36F8FFEE700274FF08058DFF8E49033
:102F8000FFF7BEFCA66BC6B151462046FFF71CFA00
:102F9000701EA063206950B104F1100000F0CEF95A
:102FA00028B1C9F80080BFF34F8FBFF36F8FFFF7D1
:102FB000C7FC06B00120BDE8F087059808B135B11F
:102FC00009E0FFF7BDFC06B00020BDE8F0876846C9
:102FD000FFF734FD0125FFF7B3FCFFF79BFDFFF77B
:102FE0008FFC94F94400B0F1FF3F01D184F84470A4
:102FF00094F94500B0F1FF3F01D184F84570FFF727
:103000009FFC05A9684600F02FF868B12046FFF73D
:103010006BFB00F0CFF92046FFF720FB0028AFD074
:1030200006B00020BDE8F0872046FFF717FB90B1FF
:1030300004F124000599FFF70FFD2046FFF754FB2C
:1030400000F0B8F900289BD1C9F80080BFF34F8F7A
:10305000BFF36F8F94E72046FFF746FB00F0AAF915
:103060008EE7000004ED00E070B505460C46002D2B
:1030700015D0E4B1FFF744FCDFF868C0DCF81400B9
:103080006B68C11A2268B2F1FF3F18D02E68DCF8D5
:1030900028C0664515D0834213D801241DE0502076
:1030A00080F31188BFF34F8FBFF36F8FFEE750207F
:1030B00080F31188BFF34F8FBFF36F8FFEE70024BB
:1030C0000BE08A4206D9501A20602846FFF7B6FC6A
:1030D000002402E0002020600124FFF731FC20469C
:1030E00070BD0000500000202DE9F04F85B08146F2
:1030F0000F9F0E9E8A4690469B464FEA8800FFF738
:1031000027FB054628000AD05420FFF721FB044680
:103110000CB1256304E02846FFF728FC00E00024FA
:103120009CB1002084F8510003905B464246514612
:103130000197009602944846FFF7F8F92046FFF7FA
:10314000DFF805B00120BDE8F08F05B04FF0FF308B
:10315000BDE8F08F70B586B00646DDF828C00C9C3F
:103160000B98002816D0ECB154250495206302205A
:1031700084F85100002005AD0390CDF800C0019502
:1031800002943046FFF7D2F92046FFF7B9F80598C8
:1031900006B070BD502080F31188BFF34F8FBFF38E
:1031A0006F8FFEE7502080F31188BFF34F8FBFF37E
:1031B0006F8FFEE70548C169002903D0806B18B105
:1031C0000020704701207047022070475000002007
:1031D0002DE9F0470026304FB86B002808D0386A38
:1031E000401C3862786A00B101263046BDE8F0879D
:1031F0007869451C7D619DB97868006838B15020B8
:1032000080F31188BFF34F8FBFF36F8FFEE77868AD
:10321000B9687960B860B86A401CB862FFF73AFADA
:10322000386BDFF8788085420FD34FF0010978685A
:10323000006838B17868C068C468606885420ED29A
:10324000386302E04FF0FF3038633868C06A00EB43
:10325000800058F820000128C4D90126C2E7201DAB
:10326000FFF7FAFAA06A18B104F11800FFF7F4FAB0
:10327000E16ABA6909FA01F01043B86101EB810013
:1032800008EB8000211DFFF72EFBE06A3968C96A50
:103290008842CCD30126CAE7500000200004002059
:1032A00070B504460021002841D0224D2868844290
:1032B00007D0502080F31188BFF34F8FBFF36F8F7B
:1032C000FEE7A06C38B1401EA064636CE26A9A42CB
:1032D0002DD040B12BE0502080F31188BFF34F8FE9
:1032E000BFF36F8FFEE7201DFFF7B6FA12490122E8
:1032F00058B9E06A00EB800351F823302BB9AB6971
:1033000002FA00F023EA0000A861606CE062C0F1FC
:103310000700A061E06AAB6982401A43AA6100EB32
:10332000800001EB8000211DFFF7DDFA0121084636
:1033300070BD0000500000200004002070B5C0687F
:10334000C468002C14D004F11800FFF785FA164D5C
:10335000A86B0126A0B104F118011448FFF7C3FAC5
:10336000E06A2968C96A88421CD901206E6270BD72
:10337000502080F31188BFF34F8FBFF36F8FFEE7AC
:10338000201DFFF769FAE06AAA6906FA00F1114305
:10339000A961074900EB800001EB8000211DFFF7C8
:1033A000A2FADDE7002070BD50000020B404002028
:1033B000000400202DE9F0470024A0462D4DA86B05
:1033C000002807D0FFF79CFAA86B401EA863A86BE3
:1033D00040B149E0502080F31188BFF34F8FBFF315
:1033E0006F8FFEE7286900283ED0234F38680126FA
:1033F00000B3A7F1B409F868C46804F11800FFF736
:103400002BFA201DFFF728FAE06AAA6906FA00F1F4
:103410001143A96100EB800009EB8000211DFFF73B
:1034200062FAE06A2968C96A884200D36E62386825
:103430000028E0D10CB1FFF72DF92C6A44B1FFF759
:10344000C7FE00B16E62641E002CF8D10020286215
:10345000686A48B14FF0010808494FF08050086091
:10346000BFF34F8FBFF36F8FFFF76AFA4046BDE897
:10347000F087000050000020B404002004ED00E0BC
:10348000100000000200000000000000000000002A
:10349000100000000200000000000000000000001A
:1034A000100000000200000000000000000000000A
:1034B00010000000020000000000000000000000FA
:1034C00018350008251D000800000000000000005D
:1034D000800000000000000000000000103500081F
:1034E000ED06000800000000000000008000000061
:1034F00000000000000000000000000000000000CC
:103500000102030406070809000000000102030489
:10351000444854313100000064656661756C745430
:1035200061736B004435000800000020B00000000B
:1035300028010008F4350008B0000020A0160000A3
:10354000440100080000000000000000000000002E
:10355000000000000000000000000000000000006B
:10356000000000000000000000000000000000005B
:10357000000000000000000000000000000000004B
:10358000000000000100000010000000000000002A
:103590000024F40000000000000000000000000013
:1035A000000000000000000000000000000000001B
:1035B000000000000000000000000000000000000B
:1035C00000000000000000000000000000000000FB
:1035D00000000000000000000000000000000000EB
:1035E000000000000000000000000000AAAAAAAA33
:0435F00000000000D7
:04000005080000ED02
:00000001FF
