:020000040800F2
:10000000D8160020290200082F190008CD14000876
:100010002D190008DF040008331C00080000000050
:100020000000000000000000000000009101000836
:10003000E505000800000000D5010008A11900082E
:10004000430200084302000843020008430200087C
:10005000430200084302000843020008430200086C
:10006000430200084302000843020008430200085C
:10007000430200084302000843020008430200084C
:10008000430200084302000843020008430200083C
:10009000430200084302000843020008430200082C
:1000A000430200084302000843020008430200081C
:1000B0004302000843020008000000004302000859
:1000C0004302000800000000000000004302000896
:1000D0000000000043020008430200080000000086
:1000E00043020008430200084302000800F002F83F
:1000F00000F03FF80AA090E8000C82448344AAF183
:100100000107DA4501D100F034F8AFF2090EBAE880
:100110000F0013F0010F18BFFB1A43F0010318473B
:100120003C2B00005C2B0000103A24BF78C878C13B
:10013000FAD8520724BF30C830C144BF04680C60ED
:10014000704700000023002400250026103A28BF35
:1001500078C1FBD8520728BF30C148BF0B60704739
:10016000632900F07681002070471FB51FBD10B5D0
:1001700010BD00F07AF91146FFF7F7FF01F006FE17
:1001800000F098F903B4FFF7F2FF03BC00F0A0F908
:10019000224B19680868B0E8F00F80F30988BFF3B4
:1001A0006F8F4FF0000080F311884EF00D0E7047F6
:1001B0000000000006480068006880F3088862B606
:1001C00061B6BFF34F8FBFF36F8F00DF00BF00BF7B
:1001D00008ED00E0EFF30980BFF36F8F0F4B1A6853
:1001E00020E9F00F106008B54FF0500080F311883F
:1001F000BFF34F8FBFF36F8F02F0EEFA4FF00000A6
:1002000080F31188BDE8084019680868B0E8F00F6D
:1002100080F30988BFF36F8F704700BF3400002060
:10022000EFF3058070470000094880470948004700
:10023000FEE7FEE7FEE7FEE7FEE7FEE7FEE7FEE796
:10024000FEE7FEE704480549054A064B70470000F3
:10025000091A0008ED000008D8100020D816002068
:10026000D8120020D81200200FB41CB5074B06AAE4
:100270007B4469460090059800F0C9F80020694663
:1002800000F0D8F81CBC5DF814FB0000C1010000B0
:100290002DE9F0410E460446002020622046E16828
:1002A000884730B3252805D0D4E901219047206A3A
:1002B000401CF2E7E168204600278847050018D077
:1002C000A5F14100192802D820354FF400673246C5
:1002D000294620462760FFF743FF40B1012804D09C
:1002E000F61D26F007060836D8E7361DD6E728465D
:1002F000DAE7206ABDE8F08170B50C460546012AB0
:1003000005D02878800600D5EA69002302E00123A1
:1003100005E05B1C934202D2E05C0028F9D1A86999
:10032000E618C01AA861286A184428622846AFF364
:10033000008004E0D5E9012114F8010B9047B44294
:10034000F8D32846AFF3008070BD10B5203AC0F056
:100350000B80B1E81850203AA0E81850B1E81850C6
:10036000A0E81850BFF4F5AF5FEA027C24BFB1E803
:100370001850A0E8185044BF18C918C0BDE8104074
:100380005FEA827C24BF51F8043B40F8043B08BF7D
:100390007047D20728BF31F8023B48BF11F8012B44
:1003A00028BF20F8023B48BF00F8012B70474FF0F0
:1003B000000200B5134694469646203922BFA0E8B5
:1003C0000C50A0E80C50B1F12001BFF4F7AF0907C1
:1003D00028BFA0E80C5048BF0CC05DF804EB8900B2
:1003E00028BF40F8042B08BF704748BF20F8022BF5
:1003F00011F0804F18BF00F8012B7047704770470D
:100400007047000001694A1C02610878704700B516
:100410008FB0CDE901310021059105497944CDE93D
:10042000031011466846FFF733FF0FB000BD000010
:10043000E5FFFFFF0A6802F8010B0A60704710B57C
:10044000436913B1AFF3008001E0FFF755FF0120CE
:1004500010BD127800F124010A7000224A700122B6
:10046000EDE711684FF0FF32E9E7754600F02CF830
:10047000AE4605006946534620F00700854618B091
:1004800020B5FFF7DFFEBDE820404FF000064FF03B
:1004900000074FF000084FF0000B21F00701AC46B9
:1004A000ACE8C009ACE8C009ACE8C009ACE8C009D8
:1004B0008D46704710B50446AFF300802046BDE876
:1004C0001040FFF75FBE0000004870477410002026
:1004D00001491820ABBEFEE7260002007047FEE788
:1004E0002DE9F047364D6878032863D2002405F1E2
:1004F000140905F11C062027A0464FF4FA7A315D55
:1005000019F8040081423AD1072C50D10020375409
:10051000401C0828FBDB444685F8008000210220AF
:1005200001F0D4FB27A001F027FC0421264800F0AD
:1005300083FF254EFA20316888630122DFF88C8022
:1005400057033946404600F046F941F2883000F042
:100550004BF8316840F2EE2088630022394640466D
:1005600000F039F90021022001F0B0FB18A001F0E1
:1005700003FC6C704FF4FA6000F036F81AE00020CB
:100580003754401C0828FBDB85F80080002102203E
:1005900001F09CFB11A001F0EFFB504600F024F8A5
:1005A0000021022001F092FB0DA001F0E5FB641C8C
:1005B000082CA4DB6878401C6870BDE8F087000058
:1005C000000000204F4B4500E800002000100140D3
:1005D00020202020202020202020000053414900FE
:1005E000202020007047000070B5044600F0F8F8A5
:1005F0000546601C02D004480078044400F0F0F87E
:10060000401BA042FAD370BD240000202DE9F84F12
:10061000DFF89C910024A9F1040B23460F2709F170
:10062000040AABF1040EBBE00125A5402A40AA4212
:1006300076D1DFF880C14E68A6EB0C0866452BD05A
:100640000DDC032E34D005DC36B3012E19D0022E7A
:100650002FD11BE0112E16D0122E2AD119E0B8F599
:10066000881F19D006DCB8F5803F15D0B8F5801F7B
:100670001FD111E0B8F5001F0ED0B8F5041F18D136
:100680000AE0CB6815E0CB681B1D12E0CB6808338D
:100690000FE0CB680C330CE08B682BB1012B4FF0D3
:1006A000080303D0456104E0042302E0056100E093
:1006B0000023FF2A01D8064601E000F104064FEAB4
:1006C000840501D9A5F12005D6F8008007FA05FCBC
:1006D00028EA0C0803FA05F548EA0508C6F8008080
:1006E0004D68ED005BD5344DAE6946F00106AE6154
:1006F000AD6924F0030605F0010500952F4D06EBCA
:10070000050CDCF80850A607360F07FA06F825EAAC
:100710000805DFF8AC80404503D14FF0000810E039
:100720003DE0DFF8A080404502D14FF0010808E02D
:10073000DFF89480404502D14FF0020801E04FF00D
:10074000030808FA06F848EA0508CCF808804D685E
:10075000D9F80060ED024D4601D5164300E09643FE
:100760002E604D68DAF80060AD02554601D516439B
:1007700000E096432E604D68DBF80060AD035D46F7
:1007800001D5164300E096432E604D68DEF8006008
:10079000ED03754601D5164300E096432E60641CB8
:1007A0000A6832FA04F57FF43FAFBDE8F88F000025
:1007B0000804014000001110001002400000014038
:1007C00000080140000C0140001001408068084012
:1007D00000D0012070470AB1016170470904FBE7AE
:1007E00001488068704700002400002070B50400B4
:1007F00025D094F83D00002520B984F83C502046CF
:1008000000F04EF9242084F83D002068016821F0B2
:10081000010101602068016841F400410160206825
:10082000016821F40041016000F098FA4D4A6168C6
:10083000914201D84C4900E04C49884201D2012044
:1008400070BD4B492368B0FBF1F15E6826F03F06AE
:100850000E435E606368934206D94FF49673594322
:100860004FF47A73B1FBF3F12368491C1E6A26F03A
:100870003F06314319626168914210D84900401E19
:10088000B0FBF1F2521CC2F30B02042A01D2042085
:1008900022E0B0FBF1F0401CC0F30B001CE0A268AA
:1008A000F2B301EBC10303EB0116431EB3FBF6F3F6
:1008B0005B1C43F480431B0549D092B301EBC1029A
:1008C00002EB0111401EB0FBF1F0401CC0F30B0025
:1008D00040F4804040F400402168CA694CF6FF7340
:1008E0009A431043C861D4E90710014320680268A5
:1008F00022F0C00211430160D4E9030101432068E2
:10090000826848F2FF339A4311438160D4E90501BC
:1009100008432168CA6822F0FF021043C86001E062
:100920000EE016E02068016841F0010101602564D5
:10093000202084F83D00256384F83E50002070BDDF
:1009400001EB4106431EB3FBF6F35B1CB3E701204A
:10095000C2E701EB4101401EB0FBF1F0401CC0F3C7
:100960000B00B7E7A086010080841E0000093D004F
:1009700040420F002DE9F84F1F4690468A46044634
:10098000DDF82890FFF72CFF054694F83D0020285D
:100990007FD11923012240492046009500F028FE0E
:1009A000002876D194F83C00012872D0012084F808
:1009B0003C0020680168C90703D1016841F00101CA
:1009C00001602068016821F400610160212084F841
:1009D0003D00102084F83E0000262664C4F82480E0
:1009E0006785608D20852D48E0622B464A4651463A
:1009F000204600F083FD90B920684169806900902D
:100A000036E02A464946204600F098FE50B1206C58
:100A1000042804D12068016841F4007101600120BC
:100A2000BDE8F88F606A216800780861606A401C40
:100A30006062618D491E6185218D491E89B22185C3
:100A400022685369DB435B070BD451B10078106116
:100A5000606A401C6062608D401E6085208D401E73
:100A600020852A464946204600F096FD0028CED132
:100A7000208D0028C5D154F83D0B016841F4007168
:100A80000160202004F81E09E67766770020C7E79A
:100A9000FFE70220C4E70000020010000000FFFF93
:100AA00010B586B000210091019102910391006878
:100AB0001349884222D1134CA06940F00800A0617C
:100AC000A069694600F0080004904FF4407000905F
:100AD00012200190032003900B48FFF797FD0B486D
:100AE000416841F0E06141F002014160E06940F499
:100AF0000010E061E06900F40010049006B010BD41
:100B00000054004000100240000C01400000014071
:100B100002488168027811448160704724000020F7
:100B2000074810B5016841F010010160032000F092
:100B30006DF80F2000F006F800F024F8002010BD3A
:100B40000020024070B50D4D04464FF47A712878AC
:100B5000B1FBF0F00A490968B1FBF0F000F0C4FA0B
:100B600048B9102C07D200222146501E00F02EF862
:100B700000206C6070BD012070BD000024000020CA
:100B8000300000200F4808B5816941F00101816102
:100B9000816901F001010091C16941F08051C16199
:100BA000C069002200F0805000900F21901E00F0DC
:100BB0000DF80548416821F0E06141F000714160A5
:100BC00008BD00000010024000000140F0B40E4BD0
:100BD0001B680C46C3F30223C3F10705042D00D99B
:100BE0000425191D072901D2002300E0DB1E012680
:100BF00006FA05F1491E214099409E40761E164096
:100C00003143F0BC01F016B80CED00E0064900F0ED
:100C1000070208684FF6FF03184040EA0220034A23
:100C200010430860704700000CED00E00000FA057A
:100C30002DE9F0470F46050061D0434E306800F0C3
:100C40000700B84209D2306820F00700384330600E
:100C5000306800F00700B84251D128683B4C81074A
:100C600012D5400703D5606840F4E06060602878E2
:100C7000000703D5606840F4605060606068A96850
:100C800020F0F000084360602878C00728D068682A
:100C9000012810D02168022810D0890700292EDAF7
:100CA000616821F0030101436160FFF799FD80460F
:100CB00041F288390DE021688903EFE78901EDE70A
:100CC000FFF78EFDA0EB0801494502D90320BDE8DE
:100CD000F0876068696800F00C00B0EB810FEFD11D
:100CE000306800F00700B8420BD9306820F00700E8
:100CF00038433060306800F00700B84201D001206E
:100D0000E5E72878400705D56068E96820F4E060E9
:100D1000084360602878000706D56068296920F4D8
:100D2000605040EAC100606000F028F86168084A3D
:100D3000C1F30311515CC8400649086006480068C9
:100D4000FFF700FF0020C2E7002002400010024031
:100D50001E2C00083000002028000020044805490F
:100D600000684968044AC1F30221515CC8407047D9
:100D700030000020001002402E2C00080E4A51685E
:100D80000E4801F00C03042B11D0082B0FD10C4896
:100D9000C1F38343C903C05C0AD55168084AC1F353
:100DA0004041921E515C054A5043B0FBF1F0704740
:100DB00004494843704700000010024000127A00C6
:100DC0000E2C000800093D002DE9F84F040070D0FA
:100DD0002078C04DC00749D06868C0F38100012861
:100DE00007D06868C0F38100022809D16868C00391
:100DF00006D52868800339D560680028E7D035E03B
:100E00006068B0F5803F0BD010B1B0F5A02F11D0C5
:100E1000286820F480302860286820F4802002E0D0
:100E2000286840F480302860606890B1FFF7D8FCF3
:100E300006460AE0286840F480202860F0E700BFFA
:100E4000FFF7CEFC801B642873D828688003F7D591
:100E50000CE0FFF7C5FC064605E000BFFFF7C0FC4D
:100E6000801B6428F0D828688003F7D420789A4E35
:100E700080074FF001094FF0000839D5686810F07D
:100E80000C0F07D06868C0F38100022809D1686898
:100E9000C00306D42868800714D52069012808D12A
:100EA00010E02069B0B1C6F80090FFF799FC074642
:100EB00005E00AE1FFF794FCC01B0228C4D82868AB
:100EC0008007F7D52868616920F0F80040EAC10082
:100ED00028600DE0C6F80080FFF782FC074604E0BA
:100EE000FFF77EFCC01B022823D828688007F7D4B0
:100EF000207800072CD57948A169D9B1C0F80090B5
:100F0000FFF76EFC074604E0FFF76AFCC01B0228EF
:100F10000FD8686A8007F7D571484FF4FA51006816
:100F2000B0FBF1F0009000BF0098411E0091FAD292
:100F30000EE080E0C0F80080FFF752FC074604E0B6
:100F4000FFF74EFCC01B022875D8686A8007F7D4EB
:100F50002078400760D5E8690027C00008D4E86918
:100F600040F08050E861E869012700F0805000906F
:100F70005C480168C90513D40168834641F4807157
:100F80000160FFF72DFC824606E000BFFFF728FC5A
:100F9000A0EB0A0064284ED8DBF80000C005F5D5A8
:100FA000E06801280AD008B1052813D0286A20F08B
:100FB00001002862286A20F0040002E0286A40F05C
:100FC00001002862E06841F2883B98B1FFF708FC15
:100FD00082460BE0286A40F004002862EEE700BF7A
:100FE000FFF7FEFBA0EB0A0159455AD8286A800793
:100FF000F6D50CE0FFF7F4FB824605E0FFF7F0FBC7
:10100000A0EB0A0159454CD8286A8007F6D41FB1D5
:10101000E86920F08050E861E06988B36968C1F34D
:101020008101022944D00228C6F8608004D0FFF76D
:10103000D7FB044638E034E0FFF7D2FB074604E074
:10104000FFF7CEFBC01B02282BD828688001F7D4FD
:10105000206AB0F5803F05D16868A16820F40030AF
:1010600008436860D4E908010843696821F47411F1
:1010700008436860C6F86090FFF7B2FB044606E0DC
:1010800025E000BFFFF7ACFB001B022809D8286849
:101090008001F7D51BE000BFFFF7A2FB001B022871
:1010A00002D90320BDE8F88F28688001F4D40EE04F
:1010B0000128F7D06868226A00F48031914204D197
:1010C000616A00F47010884201D00120EAE7002034
:1010D000E8E7000000100240000042428004424263
:1010E000300000200070004010B5401EB0F1807F3D
:1010F00001D3012010BD4FF0E02460610F21601783
:1011000000F098FD0020A06107202061002010BDA4
:1011100070B590F83C20012A23D0012480F83C408F
:10112000022280F83D2003685A689D6822F070060C
:101130000A6832435A600C4B02689A4205D0B2F1F9
:10114000804F02D0094B9A4204D1496825F08003B0
:101150001943916080F83D40002180F83C1008461A
:1011600070BD022070BD0000002C01400004004052
:1011700010B5040003D094F83D0010B107E0012041
:1011800010BD002084F83C00204600F01FF802202B
:1011900084F83D00211D206800F038FC012084F80F
:1011A000460084F83E0084F83F0084F8400084F84C
:1011B000410084F8420084F8430084F8440084F835
:1011C000450084F83D00002010BD000008B500680F
:1011D000B0F1804F08D10548C16941F00101C161FA
:1011E000C06900F00100009008BD0000001002403E
:1011F00070B5044690F83C000025012817D0012660
:1012000084F83C60022084F83D002068826822F067
:10121000770222F47F4282600868502838D00DDCC3
:1012200020284FD005DC90B3102811D14AE00220CD
:1012300070BD302846D040280AD13BE060282FD02E
:1012400070280DD0B0F5805F03D0B0F5005F12D0EC
:10125000012584F83D60002084F83C00284670BDDC
:10126000CB68D1E90121206800F00BFC206881687F
:1012700041F0770109E0CB68D1E90121206800F055
:1012800000FC2068816841F480418160E1E719E059
:10129000CA684968206800F0A9FC5021206806E06F
:1012A000CA684968206800F0B2FC6021206800F03C
:1012B000F2FBCEE7CA684968206800F097FC40213D
:1012C0002068F4E7226801461046F0E700B585B0D3
:1012D000002100910191029103910068B0F1804FCB
:1012E00010D10948816941F0040181618069694632
:1012F00000F0040004900220009001900390034845
:10130000FFF784F905B000BD00100240000801405D
:1013100070B5044690F83C0000260D4601280FD019
:10132000012084F83C006AB1042A1DD0082A2FD07D
:101330000C2A3FD00126002084F83C00304670BDC6
:10134000022070BD206800F0AFFB2068816941F089
:10135000080181612068816921F0040181612068B0
:1013600081692A69114311E0206800F0C5FB2068FB
:10137000816941F4006181612068816921F48061A3
:101380008161206881692A6941EA02218161D2E78D
:10139000206800F0DDFB2068C16941F00801C161EF
:1013A0002068C16921F00401C1612068C1692A690E
:1013B000114311E0206800F0F7FB2068C16941F497
:1013C0000061C1612068C16921F48061C161206848
:1013D000C1692A6941EA0221C161ACE710B5040084
:1013E00003D094F83D0010B107E0012010BD0020AB
:1013F00084F83C00204600F01EF8022084F83D00EE
:10140000211D206800F002FB012084F8460084F8CA
:101410003E0084F83F0084F8400084F8410084F8DE
:10142000420084F8430084F8440084F8450084F8BE
:101430003D00002010BD704710B50446022249B19E
:1014400004290ED0082913D094F84100012816D0A1
:10145000012010BD94F83E000128F9D184F83E2007
:101460000FE094F83F000128F2D184F83F2008E013
:1014700094F840000128EBD184F8402001E084F882
:1014800041200122206800F0EFFA0E4920688842CE
:1014900003D1426C42F4004242642068884205D085
:1014A000B0F1804F02D00849884204D1816801F030
:1014B0000701062903D0016841F001010160002005
:1014C00010BD0000002C014000040040FEE7016850
:1014D0004A69D24352050FD46FF480624A610021F9
:1014E00040F8301F202242738173026942F00402E7
:1014F000026101730120704700207047F8B504466F
:10150000C06A1E460D461746082807D0012805D098
:1015100010F5803F02D0206B122804D120680168AA
:1015200041F480710160134600224FF00111204602
:10153000009600F05DF840B120680068C00502D553
:101540004FF4007020640320F8BD2069B0F5804F8F
:101550000ED00620216800EAD51040F0F0000861A6
:1015600033463A460B49204600F08AF878B902E043
:1015700005F0FE0000E0E8B2216808610549334645
:101580003A46891F204600F07BF80028DCD0012075
:10159000F8BD00000800010070B516460D4604466F
:1015A0001EE02046FFF793FF08B1012070BD681CC4
:1015B00016D0FFF715F9801BA84200D885B920681E
:1015C0004069C04340070BD5002044F8300F20216C
:1015D0006173A073216941F0200121612073E4E768
:1015E00020684069C0434007DBD4002070BD000084
:1015F0002DE9F047984617460D460446C1F30746C5
:10160000DDF820902AE000BFB8F1FF3F26D0FFF7B9
:10161000E7F8A0EB0901414502D8B8F1000F1DD150
:101620002068012E16D0806925EA00000004000C15
:1016300012D00020B84211D1002044F8300F2021F0
:101640006173A073216941F02001216120730120A1
:10165000BDE8F0874069E7E70120EBE72068012E4D
:101660000AD0806925EA00000004000C06D00020A2
:10167000B842C9D00020EBE74069F3E70120F7E763
:101680002DE9F047984616460D4604464FF00009EE
:101690004FF0200AC1F3074723E020684069C043A8
:1016A000400515D42068016841F40071016021688B
:1016B0006FF480604861C4F8309084F83DA084F8ED
:1016C0003E90216C41F00401216484F83C9021E0BB
:1016D000701C06D0FFF784F8A0EB0800B04203D8D6
:1016E00016B1012F1FD021E02068012F15D080698D
:1016F00025EA00000004000C18D000BF44F8309F19
:1017000084F80DA084F80E90216941F02001216138
:1017100084F80C900120BDE8F087406925EA0000BC
:101720000004000CEAD12068406901E0206880696B
:1017300025EA00000004000CAFD1ECE770B51646B6
:101740000D4604461EE02046FFF7C1FE08B1012009
:1017500070BD681C16D0FFF743F8801BA84200D864
:1017600085B920684069C04300060BD5002044F8C5
:10177000300F20216173A073216941F020012161A4
:101780002073E4E720684069C0430006DBD40020F2
:1017900070BD00002DE9F04385B000243848009466
:1017A000019402940394816941F01001816181697F
:1017B00001F010010491816941F02001816181698A
:1017C00001F020010491816941F004018161816986
:1017D00001F004010491816941F00801816180698F
:1017E000284F00F008004FF40055049000222946CD
:1017F0003846FEF7F0FFDFF8908001228321404653
:10180000FEF7E9FFDFF88490002220214846FEF72A
:10181000E2FF0095022601250396CDE901546946B1
:101820003846FEF7F3FE8320CDE90005CDE90246F8
:1018300069464046FEF7EAFE042000901448CDE9D0
:10184000010469464046FEF7E1FE78208DE831004C
:1018500069464046FEF7DAFECDE90054694648463F
:101860000295FEF7D3FE2020CDE90005CDE9024622
:1018700069464846FEF7CAFE05B0BDE8F0830000A1
:101880000010024000100140000C0140000801401F
:101890000000111010B58EB000240794089409942C
:1018A0000A940B941C2168460C94FEF780FD1E4898
:1018B0004FF0804101600F21C0E9011442F20F7125
:1018C000C0E903148461FFF753FC08B172B6FEE768
:1018D0004FF48050079007A91348FFF789FC08B11F
:1018E00072B6FEE71048FFF779FD08B172B6FEE761
:1018F0000B940BA90C480C94FFF70AFC08B172B6C4
:10190000FEE76020CDE900040294042269460648FF
:101910000494FFF7FDFC08B172B6FEE70248FFF73A
:10192000D5FC0EB010BD0000E8000020FEE7FEE789
:101930001FB50B4D00F016FD00240AA12A5D684674
:10194000FEF792FC2146012000F0C0F9684600F045
:1019500013FA641C082CF0DB012000F085FAE9E79B
:101960001C00002025630000084C01212046FEF7E2
:101970002DFF012808D0002220212046FEF72BFF52
:10198000012000F071FAF0E70122F5E700080140BC
:10199000012000F069FAFBE7012000F065FAFBE79F
:1019A00010B5FFF7B5F801F01DF8012803D0BDE828
:1019B000104000F09BBF10BD10B590B028216846C4
:1019C000FEF7F5FC14210AA8FEF7F1FC02200090B6
:1019D0000120049010200024059007946846FFF72A
:1019E000F3F908B172B6FEE70F20CDE90A040C94B2
:1019F0000D9400210AA80E94FFF71AF9002801D0CF
:101A000072B6FEE710B010BD7047000070B50268F6
:101A1000134B144C4FF08046984203D0B04201D093
:101A2000A04203D122F070054A682A43984203D0AD
:101A3000B04201D0A04203D122F44074CA682243CC
:101A40004C6922F08002224302608A68C2620A68FE
:101A50008262984201D1096901630121416170BD2F
:101A6000002C01400004004010B501F01F030121CB
:101A7000046A99408C430462016A9A4011430162EE
:101A800010BD10B5846842EA032224F47F440A435F
:101A90002243826010BD826822F070020A4342F045
:101AA000070181607047000030B5036A026A22F0C6
:101AB000010202624268846924F073050C682C43B9
:101AC00023F002058B682B430A4DA8420BD123F06B
:101AD0000805CB6822F440722B434D6923F00403C0
:101AE00015438A692A4342608461496841630362FD
:101AF00030BD0000002C014030B5026A036A23F0BB
:101B000010030362436884690D6824F4E64444EAE0
:101B100005248D6822F0200242EA05120B4DA842EE
:101B20000ED1CD6822F0800242EA05124D6923F4FD
:101B3000406343EA85038D6922F0400243EA85034E
:101B40004360846149688163026230BD002C0140BA
:101B500030B5036A026A22F4807202624268C46984
:101B600023F4007324F073050C682C438D6843EA5A
:101B700005230C4DA8420ED1CD6823F4006343EA3F
:101B800005234D6922F4405242EA05128D6923F47F
:101B9000806342EA05124260C4614968C16303621E
:101BA00030BD0000002C014030B5046A026A22F406
:101BB000805202624268C3690D6823F4E64343EA37
:101BC00005238D6824F4005444EA0534064DA842E8
:101BD00004D14D6922F4804242EA85124260C36119
:101BE00049680164046230BD002C014010B5036AED
:101BF000046A24F001040462846924F0F00444EAD5
:101C0000021423F00A020A438461026210BD10B577
:101C1000036A046A24F010040462846923F0A003B8
:101C200024F4704444EA023243EA01118261016201
:101C300010BDFEE70907090E002804DB00F1E020D3
:101C400080F80014704700F00F0000F1E02080F8E9
:101C5000141D704710B53220FEF7C6FC302000F08E
:101C60004BF80520FEF7C0FC302000F045F80120BD
:101C7000FEF7BAFC302000F03FF80A20FEF7B4FC73
:101C8000202000F039F80A20FEF7AEFC282000F0F2
:101C900033F80120FEF7A8FC082000F02DF8012001
:101CA000FEF7A2FC012000F027F80120FEF79CFCC3
:101CB0000120FEF799FC062000F01EF80120FEF737
:101CC00093FCBDE810400C2000F016B830B101289C
:101CD00007D0022808D003280BD108E041F080018A
:101CE00007E041F0C00104E041F0940101E041F05F
:101CF000D401C8B2AFF300801CB500F0F00141F090
:101D00000C028DF8042041F0080100018DF8051047
:101D100040F00C018DF8061040F008008DF8070027
:101D200064200090042301AA4E210248FEF722FEFF
:101D30001CBD0000940000201CB500F0F00141F033
:101D40000D028DF8042041F0090100018DF8051005
:101D500040F00D018DF8061040F009008DF80700E5
:101D600064200090042301AA4E210248FEF702FEDF
:101D70001CBD00009400002010B5044602E0641C65
:101D8000FFF7DAFF20780028F9D110BD9CB0FEF7EC
:101D9000C7FEFFF711FEFFF7FDFC284826494FF468
:101DA000804201602649416000218160C0E9031240
:101DB00041618161C1610162FEF718FD08B172B62F
:101DC000FEE7FFF767FDFFF745FF01210020FFF762
:101DD0007DFF1CA0FFF7D0FF1C221E496846FEF7BE
:101DE000B4FA0021684600F04CF81B4C19491C223B
:101DF00060601C3107A8FEF7A8FA002107A800F0D0
:101E000040F81449A0601C2238310EA8FEF79DFA54
:101E100000210EA800F035F80E49E0601C22543174
:101E200015A8FEF792FA002115A800F02AF8206103
:101E300000F022F8FEE7000000540040940000206B
:101E4000A0860100204E686170204D6174204D61B4
:101E5000000000009C2B00080000002000218428C6
:101E600000D0C11C0846704710B5002800D10120E1
:101E700000F03EFC002010BD10B500F061FC002019
:101E800010BD30B585B004460D466169B4F908004F
:101E9000002910D0A16971B1FFF7E0FF6269A16963
:101EA0000192029100902B4622692168606800F03F
:101EB00069FD049010E0FFF7D1FF04A901910090A3
:101EC000208A2B4682B22168606800F025FD012837
:101ED00002D005B0002030BD049805B030BD000030
:101EE0002DE9F04104460F46194E75693068001D12
:101EF00000F034FB48B93068012190F82C0001FA59
:101F000000F0B16921EA0000B061B4F1FF3F07D1F0
:101F100037B13068BDE8F041011D0E4800F065BBE7
:101F20002C4430684460AC4206D23068011DB06871
:101F3000BDE8F04100F03EBB3068011D706800F064
:101F400039FB306B844200D23463BDE8F08100007D
:101F5000340000206004002070B5044600F052FBFD
:101F60001C4D2869401C2861286810B1E86938B107
:101F70000CE02C602869012808D100F0E7F805E0A2
:101F80002868E16AC06A884200D82C60E86A401C70
:101F9000E862E06A0121AA6981401143A9610E4902
:101FA00000EB800001EB8000211D00F01EFB00F023
:101FB00049FBE86900280CD02868E16AC06A8842B9
:101FC00007D206494FF080500860BFF34F8FBFF330
:101FD0006F8F70BD340000208403002004ED00E00A
:101FE00070B50D4CE068002815D00C4E00F00AFBCF
:101FF000F068C568281D00F0B1FA2069401E206114
:10200000E068401EE06000F01DFB284600F008F884
:10201000E0680028EAD170BD340000204C040020A4
:1020200010B5044694F8511000290BD0012911D0A5
:10203000022914D0502080F31188BFF34F8FBFF3D3
:102040006F8FFEE7206B00F013FB2046BDE81040C9
:1020500000F00EBB2046BDE8104000F009BB10BDEB
:102060004FF44061104810F0070F06D0C01D20F05B
:1020700007000D49411AC1F540610C4A1060002368
:1020800053600144083921F00701103A11604B6098
:102090000B600B1A436001604068906050604FF025
:1020A0000040D060704700007404002080000020D1
:1020B000074E4FF08054074DFFF792FF306801281C
:1020C000FAD92C60BFF34F8FBFF36F8FF4E7000096
:1020D0008403002004ED00E02DE9F0478146099ECD
:1020E000089D0A9C9A46521E206B00EB820020F04D
:1020F00007080027002023180A5C83F834200A5CB4
:1021000012B1401C1028F6D384F84370072D00D379
:102110000625E5626564A764201D00F048FA04F115
:10212000180000F044FA2461C5F10700A061646260
:10213000E76484F8507052464946404600F000F982
:102140002060002E00D03460BDE8F08770B5002418
:102150000F4D04EB840005EB800000F01DFA641CB9
:10216000072CF6D30B4800F017FA0B4800F014FACE
:102170000A4800F011FA0A4800F00EFA094800F087
:102180000BFA0948034941601431816070BD0000B9
:1021900084030020100400202404002038040020C0
:1021A0004C040020600400203400002010B41449C6
:1021B00000E011460A688242FBD34B6803EB010C36
:1021C000844503D140681844486008460C68D0F83C
:1021D00004C00CEB0003A3420CD10A4B1B689A42CB
:1021E00006D05268624442600A681268026002E0E7
:1021F000036000E00260814200D0086010BC7047BC
:10220000800000207000002007494868006800280E
:1022100005D04868C068C0684068086370474FF0E0
:10222000FF30086370470000340000200A4840680F
:10223000B0F1FF3F07D0502080F31188BFF34F8FDC
:10224000BFF36F8FFEE7502080F31188BFF34F8FED
:10225000BFF36F8FFEE70000880000202DE9F041FA
:102260000546002600F0B0FA334F386808B9FFF78A
:10227000F7FEF86805424ED19DB1083515F0070FFD
:102280000FD005F00700C0F10800054415F0070F56
:1022900007D0502080F31188BFF34F8FBFF36F8FAB
:1022A000FEE7002D37D07868854234D823490846A8
:1022B000046801E0214604466068A84202D2206812
:1022C0000028F7D13868844225D0086800F1080654
:1022D000206808606068411B10290FD9601910F050
:1022E000070F07D0502080F31188BFF34F8FBFF343
:1022F0006F8FFEE741606560FFF758FF616878689F
:10230000401A7860BA68904200D2B860F868084312
:1023100060600020206000F0DBFB16F0070F07D0A4
:10232000502080F31188BFF34F8FBFF36F8FFEE70C
:102330003046BDE8F08100007000002080000020E1
:10234000001F4FF080730360001F21F00101016046
:10235000001F0349016014380260203870470000F4
:102360002D22000870B57B4D002201212846FEF782
:1023700032FA08212846FEF729FA774EA6F11C0406
:1023800060B908212846FEF721FA0028F9D0207804
:10239000082803D231213154401C207010212846D6
:1023A000FEF714FA60B910212846FEF70FFA00284C
:1023B000F9D02078082803D234213154401C2070F1
:1023C00020212846FEF702FA60B920212846FEF7B0
:1023D000FDF90028F9D02078082803D2372131549C
:1023E000401C207040212846FEF7F0F960B94021DA
:1023F0002846FEF7EBF90028F9D0207820B1401EDE
:10240000C0B2207020213154012211462846FEF727
:10241000E2F9002202212846FEF7DDF908212846CC
:10242000FEF7D4F960B908212846FEF7CFF9002855
:10243000F9D02078082803D232213154401C207072
:1024400010212846FEF7C2F960B910212846FEF790
:10245000BDF90028F9D02178082903D2352070541D
:10246000491C217020212846FEF7B0F960B92021CF
:102470002846FEF7ABF90028F9D02078082803D2C7
:1024800038213154401C207040212846FEF79EF927
:1024900060B940212846FEF799F90028F9D0217843
:1024A000082903D230207054491C217001220221D6
:1024B0002846FEF790F9002280212846FEF78BF986
:1024C00008212846FEF782F960B908212846FEF760
:1024D0007DF90028F9D02078082803D2332131541F
:1024E000401C207010212846FEF770F960B91021B9
:1024F0002846FEF76BF90028F9D02178082903D285
:1025000036207054491C217020212846FEF75EF9C0
:1025100060B920212846FEF759F90028F9D0207823
:10252000082803D239213154401C2070402128460C
:10253000FEF74CF938B940212846FEF747F9002844
:10254000F9D0FDF7CDFF2846BDE87040012280217B
:10255000FEF741B9000C01401C00002001694368EE
:1025600082689A60836842685A604A68824201D1F0
:1025700082684A60002202610868401E086008689C
:1025800070470000034B036003F154000860802093
:10259000106070473001002000F1080141604FF0E9
:1025A000FF328260C160016100210160704700213B
:1025B0000161704710B4D1F800C0BCF1FF3F02D0F8
:1025C00000F1080202E0026904E01A4653681C6840
:1025D0006445FAD953684B6099608A60516008611C
:1025E0000168491C016010BC704742684A609368EA
:1025F0008B6093685960916008610168491C0160B3
:1026000070470000502080F31188BFF34F8FBFF355
:102610006F8F0A494868401C486001280CD108485F
:10262000006810F0FF0F07D0502080F31188BFF32F
:102630004F8FBFF36F8FFEE77047000088000020C8
:1026400004ED00E009494868002806D0401E4860B3
:10265000002801D180F311887047502080F3118841
:10266000BFF34F8FBFF36F8FFEE70000880000209D
:1026700070B5002827D0A0F10804134D6068E96800
:10268000084207D1502080F31188BFF34F8FBFF36A
:102690006F8FFEE722683AB1502080F31188BFF3B4
:1026A0004F8FBFF36F8FFEE78843606000F08CF8B8
:1026B00060686968084468602046FFF777FDBDE8F8
:1026C000704000F005BA70BD700000204FF0E020AF
:1026D00000210161816105494FF47A720968B1FBFB
:1026E000F2F1491E4161072101617047300000206D
:1026F00010B502460020002A12D00F48806B38B176
:10270000502080F31188BFF34F8FBFF36F8FFEE728
:1027100000F05AF800211046FFF7E2FB00F0D8F96C
:10272000002807D105494FF080500860BFF34F8F54
:10273000BFF36F8F10BD00003400002004ED00E0F7
:1027400010B586B000240594049403AA04A905A832
:10275000FFF718FF05980499019102900023009457
:1027600015A11748039A00F00DF91649486308B1FE
:10277000012000E0002001280AD0B0F1FF3F19D16C
:10278000502080F31188BFF34F8FBFF36F8FFEE7A8
:10279000502080F31188BFF34F8FBFF36F8F4FF03E
:1027A000FF3008630120C8614C6106B0BDE81040ED
:1027B00000F042B806B010BD49444C45000000008E
:1027C000B1200008340000200248816B491C81635D
:1027D0007047000034000020154A906B002802D09A
:1027E000012050627047002050629069B0FA80F07A
:1027F000C0F11F000F4900EB800051F8203073B189
:1028000001EB800041684968416000F1080399428A
:1028100001D1496841604068C0681060704750202D
:1028200080F31188BFF34F8FBFF36F8FFEE7000077
:10283000340000208403002000B583B028490878C4
:102840000290FF200870087801909DF804009DF820
:10285000042000F0F000904207D0502080F311884F
:10286000BFF34F8FBFF36F8FFEE79DF804001D4B42
:1028700000F050001870072098609DF8040010F0D8
:10288000800F0BD09868401E98609DF804004000AF
:1028900001909DF8040010F0800FF3D19868032890
:1028A00007D0502080F31188BFF34F8FBFF36F8F95
:1028B000FEE74FF440709860029808700A4801687B
:1028C00041F470010160016841F070410160FFF75F
:1028D000FDFE00205860FDF76DFC03B0002000BD38
:1028E00000E400E08800002020ED00E010B550205A
:1028F00080F31188BFF34F8FBFF36F8F00F080F824
:1029000018B104494FF080500860002080F311880E
:1029100010BD000004ED00E02DE9F04F85B08146C8
:102920000F9F0E9E8A4690469B464FEA8800FFF70F
:1029300095FC054628000AD05420FFF78FFC04467A
:102940000CB1256304E02846FFF792FE00E0002466
:102950009CB1002084F8510003905B4642465146EA
:102960000197009602944846FFF7B6FB2046FFF712
:10297000F3FA05B00120BDE8F08F05B04FF0FF304D
:10298000BDE8F08F70B586B00646DDF828C00C9C17
:102990000B98002816D0ECB1542504952063022032
:1029A00084F85100002005AD0390CDF800C00195DA
:1029B00002943046FFF790FB2046FFF7CDFA0598CA
:1029C00006B070BD502080F31188BFF34F8FBFF366
:1029D0006F8FFEE7502080F31188BFF34F8FBFF356
:1029E0006F8FFEE70548C169002903D0806B18B1DD
:1029F00000207047012070470220704734000020FB
:102A00002DE9F0470026304FB86B002808D0386A0F
:102A1000401C3862786A00B101263046BDE8F08774
:102A20007869451C7D619DB97868006838B150208F
:102A300080F31188BFF34F8FBFF36F8FFEE7786885
:102A4000B9687960B860B86A401CB862FFF7DCFB0F
:102A5000386BDFF8788085420FD34FF00109786832
:102A6000006838B17868C068C468606885420ED272
:102A7000386302E04FF0FF3038633868C06A00EB1B
:102A8000800058F820000128C4D90126C2E7201D83
:102A9000FFF764FDA06A18B104F11800FFF75EFDAE
:102AA000E16ABA6909FA01F01043B86101EB8100EB
:102AB00008EB8000211DFFF798FDE06A3968C96ABC
:102AC0008842CCD30126CAE73400002084030020CA
:102AD0002DE9F0470024A0462D4DA86B002807D013
:102AE000FFF790FDA86B401EA863A86B40B149E0BA
:102AF000502080F31188BFF34F8FBFF36F8FFEE735
:102B0000286900283ED0234F3868012600B3A7F17A
:102B1000B409F868C46804F11800FFF71FFD201D10
:102B2000FFF71CFDE06AAA6906FA00F11143A961EA
:102B300000EB800009EB8000211DFFF756FDE06AE5
:102B40002968C96A884200D36E6238680028E0D1DB
:102B50000CB1FFF759FB2C6A44B1FFF751FF00B1EC
:102B60006E62641E002CF8D100202862686A48B1A9
:102B70004FF0010808494FF080500860BFF34F8FB5
:102B8000BFF36F8FFFF75EFD4046BDE8F0870000A2
:102B9000340000203804002004ED00E0502C000830
:102BA0003119000800000000000000008000000053
:102BB0000000000000000000382C0008691900081F
:102BC0000000000000000000800000000000000085
:102BD00000000000402C00089119000800000000CF
:102BE0000000000080000000000000000000000065
:102BF000482C00089919000800000000000000009F
:102C0000800000000000000000000000010202033C
:102C10000405060708090A0B0C0D0E0F1010000022
:102C2000000000000000010203040607080900007C
:102C300000000102030400005461736B3031000096
:102C40005461736B303200005461736B3033000099
:102C500064656661756C745461736B007C2C00084C
:102C6000000000209400000028010008102D00083A
:102C700094000020441600004401000800000000F9
:102C80000000000000000000000000000000000044
:102C900031313131313131310000000000000000AC
:102CA0000100000010000000000000000024F400FB
:102CB0000000000000000000000000000000000014
:102CC0000000000000000000000000000000000004
:102CD00000000000000000000000000000000000F4
:102CE00000000000000000000000000000000000E4
:102CF00000000000000000000000000000000000D4
:102D00000000000000000000AAAAAAAA000000001B
:04000005080000ED02
:00000001FF
