:020000040800F2
:10000000B017002031020008BF2800089D24000816
:10001000BD280008650A0008ED2D0008000000005A
:10002000000000000000000000000000990100082E
:10003000650D000800000000DD010008492A0008E5
:100040004B0200084B0200084B0200084B0200085C
:100050004B0200084B0200084B0200084B0200084C
:100060004B0200084B0200084B0200084B0200083C
:100070004B0200084B0200084B0200084B0200082C
:100080004B0200084B0200084B0200084B0200081C
:100090004B0200084B0200084B0200084B0200080C
:1000A0004B0200084B0200084B0200084B020008FC
:1000B0004B0200084B0200084B0200084B020008EC
:1000C0004B0200084B0200084B0200084B020008DC
:1000D0004B020008E12D00084B0200084B0200080B
:1000E0004B0200084B0200084B02000800F002F827
:1000F00000F043F80AA090E8000C82448344AAF17F
:100100000107DA4501D100F038F8AFF2090EBAE87C
:100110000F0013F0010F18BFFB1A43F0010318473B
:10012000C4430000E4430000103A24BF78C878C1FB
:10013000FAD8520724BF30C830C144BF04680C60ED
:10014000704700000023002400250026103A28BF35
:1001500078C1FBD8520728BF30C148BF0B60704739
:10016000642900F02381002070471FB59DE803003B
:1001700000F076FA1FBD10B510BD00F045FB11462A
:10018000FFF7F3FF02F0F8FE00F063FB03B4FFF7A4
:10019000F2FF03BC00F094FB224B19680868B0E83A
:1001A000F00F80F30988BFF36F8F4FF0000080F3EA
:1001B00011884EF00D0E70470000000006480068E0
:1001C000006880F3088862B661B6BFF34F8FBFF353
:1001D0006F8F00DF00BF00BF08ED00E0EFF3098084
:1001E000BFF36F8F0F4B1A6820E9F00F106008B54E
:1001F0004FF0500080F31188BFF34F8FBFF36F8F24
:1002000003F03CFC4FF0000080F31188BDE808408B
:1002100019680868B0E8F00F80F30988BFF36F8FA2
:10022000704700BF6C000020EFF3058070470000AE
:100230000948804709480047FEE7FEE7FEE7FEE77A
:10024000FEE7FEE7FEE7FEE7FEE7FEE704480549B6
:10025000054A064B70470000BF2A0008ED00000861
:10026000B0110020B0170020B0130020B013002000
:1002700070B5064600F0D8F9056806F10B0020F0CD
:100280000704B4429CBF002070BD2B466A68BAB117
:100290001068A04210D304F1080188423CBF5068A6
:1002A000586007D35168101941601168091B01603B
:1002B00058601460101D70BD13465268002AE7D1C3
:1002C0002146284600F0B8F90028DED170BD70B58F
:1002D0000446051F00F0A8F90068002C14BF44680C
:1002E00070BD002C18BFAC423CBF20466468F8D3F8
:1002F00001680A18AA4218BF456003D12A6805465A
:100300001144016028684119A1421CBF6C6070BD96
:100310006168696021680844286070BD0FB41CB52D
:10032000074B06AA7B4469460090059800F02DFA19
:100330000020694600F03CFA1CBC5DF814FB00008C
:10034000890400002DE9F0410E4604460020206299
:100350002046E168884730B3252805D0D4E901213B
:100360009047206A401CF2E7E16820460027884752
:10037000050018D0A5F14100192802D820354FF406
:1003800000673246294620462760FFF7E9FE40B164
:10039000012804D0F61D26F007060836D8E7361DDA
:1003A000D6E72846DAE7206ABDE8F0812DE9F0417A
:1003B0000646002410687529314616A510D0AFF303
:1003C0000080002802DA404213A507E031688A075E
:1003D00001D512A502E0490704D511A5012401E0C9
:1003E000AFF3008000210A2206F1240709E0B0FBE8
:1003F000F2FCB0FBF2F302FB1C00303078541846DC
:10040000491C0028F3D123462A463046BDE8F04176
:1004100000F05CB9000000002D0000002B0000007F
:100420002000000010B5431C02E010F8011B71B160
:100430008107FAD14FF0013202C88C1A8C4314EABA
:10044000C211F9D0C01A0A0603D0C01E10BDC01ACE
:1004500010BD0A0401D0801E10BD0902FCD0401E50
:1004600010BD032A40F2308010F0030C00F015801C
:1004700011F8013BBCF1020F624498BF11F801CBA7
:1004800000F8013B38BF11F8013BA2F1040298BF0C
:1004900000F801CB38BF00F8013B11F0030300F076
:1004A0002580083AC0F0088051F8043B083A51F81A
:1004B00004CBA0E80810F5E7121D5CBF51F8043B1F
:1004C00040F8043BAFF30080D20724BF11F8013B92
:1004D00011F801CB48BF11F8012B24BF00F8013BF4
:1004E00000F801CB48BF00F8012B704710B5203A47
:1004F000C0F00B80B1E81850203AA0E81850B1E8DD
:100500001850A0E81850BFF4F5AF5FEA027C24BF92
:10051000B1E81850A0E8185044BF18C918C0BDE889
:1005200010405FEA827C24BF51F8043B40F8043B52
:1005300008BF7047D20728BF31F8023B48BF11F807
:10054000012B28BF20F8023B48BF00F8012B704761
:100550004FF0000200B5134694469646203922BF5C
:10056000A0E80C50A0E80C50B1F12001BFF4F7AFA7
:10057000090728BFA0E80C5048BF0CC05DF804EB89
:10058000890028BF40F8042B08BF704748BF20F8F7
:10059000022B11F0804F18BF00F8012B70470000AC
:1005A0004FF0013C50F8042B51F8043B9A4221D102
:1005B000A2EB0C03934313EACC1317D150F8042B8E
:1005C00051F8043B9A4215D1A2EB0C03934313EA72
:1005D000CC130BD150F8042B51F8043B9A4209D1AB
:1005E000A2EB0C03934313EACC13DBD04FF00000D3
:1005F000704700BFD01A01BAB1FA81F101F01801B9
:1006000022FA01F0CB40C1F12001DBB2C0B2C01A26
:100610002CFA01F3D11A914311EAC311E6D17047C4
:10062000704770477047000000487047581100201D
:10063000704770477047704738B504460A46002037
:100640006946AFF30080002808BF38BD0246009914
:10065000204600F0B7F8012038BD012000F0CCB8EA
:10066000F8B5AFF30080054600200C46102000BF0F
:100670000646A819A0420DD9324669460020AFF3BC
:100680000080070008BF00F0B7F80098A04218BF2C
:100690000546C419FFF7C8FF05600746F01D20F0A6
:1006A00007004619284600F00AF8B44208BFF8BD12
:1006B000A21B31463868BDE8F84000F083B800213D
:1006C0000160C0E901107047102070472DE9F04724
:1006D0000D4699469246044600F1240801688806B2
:1006E00004D5E06921F01001216000E00120A8425A
:1006F00001DD471B00E00027A1697A1902EB090020
:10070000081AA0612078C00602D42046AFF300800A
:10071000002608E0D4E901211AF806009047206A73
:10072000401C761C20624E45F4DB2078C0060AD5BA
:100730002046AFF3008006E0D4E901213020904745
:10074000206A401C2062381EA7F10107F4DC07E094
:10075000D4E9012118F805009047206A401C206266
:10076000281EA5F10105F3DC2046AFF300802078B8
:10077000000602D50220BDE8F0870120FBE700005B
:1007800001694A1C02610878704700B58FB0CDE955
:1007900001310021059105497944CDE90310114645
:1007A0006846FFF7CFFD0FB000BD0000E5FFFFFF7B
:1007B0000A6802F8010B0A607047000000487047A1
:1007C00050110020034640688C46002818BF88421C
:1007D0003CBF03464068F8D318681844884207D0E5
:1007E0000CF1030020F00700001D411A521A0146C7
:1007F000081D0A60FFF76BBD10B500F039F8BDE8C1
:10080000104000F02FB870477546FFF7D7FFAE468F
:1008100005006946534620F00700854618B020B50C
:10082000FFF714FDBDE820404FF000064FF0000731
:100830004FF000084FF0000B21F00701AC46ACE888
:10084000C009ACE8C009ACE8C009ACE8C0098D46F5
:10085000704710B50446AFF300802046BDE8104055
:10086000FFF794BC002801D000F02AB870470000C0
:1008700010B5012805D0002103A000F027F80120C1
:1008800010BD09A1F8E7000053494752544D454DAA
:100890003A204F7574206F662068656170206D6521
:1008A0006D6F7279000000003A2048656170206D1C
:1008B000656D6F727920636F727275707465640014
:1008C00001491820ABBEFEE72600020070B50546C0
:1008D0000C460A2000E06D1C00F011F835B12878B4
:1008E0000028F8D102E0641C00F009F814B1207867
:1008F0000028F8D1BDE870400A20AFF3008008B5A9
:1009000069468DF800000320ABBE08BD70B50446F3
:1009100000688168C943C90717D1816821F00101C6
:10092000816000F051FD05460AE000BF00F04CFD7B
:10093000401B022804D920688068C043C00706D045
:1009400020688068C043C007F0D0002070BDA06A56
:1009500040F01000A062E06A40F00100E062012077
:1009600070BD0000F8B50026044600960068816856
:10097000C943C9072DD0816841F001018160164843
:1009800016490068B0FBF1F000E0401E009000281E
:10099000FBD100F019FD054616E000BF00F014FD84
:1009A000401B022810D920688068C043C0070BD0C4
:1009B000A06A40F01000A062E06A40F00100E0622E
:1009C00084F824600120F8BD20688068C043C00717
:1009D000E4D10020F8BD00006800002040420F0074
:1009E0001D4C1E4F4FF0FF354FF47A761C4800F037
:1009F0000FFB1B4800F036FAE0611948303000F078
:100A000007FB1748303000F02DFA1349206200230D
:100A10002A461C31606C03F077F90F4900232A46FF
:100A20002031A06C03F070F9E069B04201D90122D5
:100A300000E000221021384600F0C1FC206AB042DC
:100A400001D9012200E000222021384600F0B7FC45
:100A5000012002F075FBC9E70000002000080140FA
:100A6000CC000020FEE7000070B50024282002F032
:100A7000CFF90C4D0221284600F09CFC50B95020C3
:100A800002F0C6F90221284600F094FC08B10124C6
:100A900000E0FF240221284600F08CFC0028F9D158
:100AA000204670BD0008014070B50024282002F0E7
:100AB000AFF90C4D0121284600F07CFC50B95020C4
:100AC00002F0A6F90121284600F074FC08B10124C7
:100AD00000E0FF240121284600F06CFC0028F9D139
:100AE000204670BD000801404FF0FF36414CDFF852
:100AF00008914FF480674FF4006800BF00F0E2F8FF
:100B0000FFF7B2FF207000F081F8A07000F07EF8CF
:100B1000E07000F07BF8207100F078F8607100F070
:100B200075F860812079E081A178A181C4E909018B
:100B300000F0F0F8FFF7B8FF607000F095F8A071D2
:100B400000F092F8E07100F08FF8207200F08CF85D
:100B5000607200F089F82082207AA082A1796182F7
:100B6000C4E90B012349002332462431E06C03F031
:100B7000CBF82049002332462831206D03F0C4F819
:100B80001C49002332462C31606D03F0BDF8194931
:100B9000002332463031A06D03F0B6F83846FFF737
:100BA00067FB050018D015A1626AFFF7B7FB642345
:100BB00002222946144801F047FB0028F7D12846B5
:100BC000FFF730FC82B24FF47A7329460E4801F0E9
:100BD0000BFC2846FFF77BFB606A1E2801D9012227
:100BE00000E000224146484600F0E9FB012002F007
:100BF000A7FA83E700000020000801400A0D202525
:100C00006420200D0A000000C80100202DE9F041F9
:100C10000024144F01260221384600F0CBFB0028A7
:100C2000F9D0282002F0F4F80221384600F0C2FB87
:100C300090B1C4F1070106FA01F02843C5B20221C0
:100C4000384600F0B7FB0028F9D1641CE4B2082C48
:100C5000E1D32846BDE8F081C4F1070006FA00F0B0
:100C60008543ECE7000801402DE9F0410024144FD2
:100C700001260121384600F09DFB0028F9D02820EC
:100C800002F0C6F80121384600F094FB90B1C4F19F
:100C9000070106FA01F02843C5B20121384600F0E9
:100CA00089FB0028F9D1641CE4B2082CE1D3284662
:100CB000BDE8F081C4F1070006FA00F08543ECE7D7
:100CC0000008014010B5124C0221204601F00CFE34
:100CD00001220221204600F072FB4FF47A7000F0EE
:100CE00067FA00220221204600F069FB44F25060BE
:100CF00002F08EF801220221204600F060FB142051
:100D000002F086F82046BDE81040022101F0D8BD6F
:100D10000008014010B5124C0121204601F0F0FD01
:100D200001221146204600F04AFB4FF47A7000F091
:100D30003FFA00220121204600F041FB44F25060BE
:100D400002F066F801221146204600F038FB14201C
:100D500002F05EF82046BDE81040012101F0BABD66
:100D60000008014070470000F8B50024009490F896
:100D700024202546012A12D0012280F824204A6826
:100D80001F23072A0DD20668776B521E02EB8202E0
:100D900093409F430B6893401F43776319E0022001
:100DA000F8BD06680D2A0AD2376BD21F02EB820209
:100DB00093409F430B6893401F43376309E0F76AF2
:100DC0000D3A02EB820293409F430B6893401F430E
:100DD000F7620A68072306680A2A0AD3F7680A3AFC
:100DE00002EB420293409F438B6893401F43F7609E
:100DF00008E0376902EB420293409F438B689340BF
:100E00001F4337610A68102A01D0112A20D1124BE2
:100E100002689A4217D193681B0219D4936843F46D
:100E2000000393600968102912D10C490C4A096823
:100E3000B1FBF2F101EB8101490000E0491E009194
:100E40000029FBD104E0816A41F020018162012484
:100E500080F824502046F8BD00240140680000209E
:100E600040420F000068C06C704700002DE9F0415F
:100E70004FF0000704003D467ED0A06A002628B946
:100E8000E66284F82460204600F07EF82046FFF7F2
:100E90003DFDA16A01F01001014304D0A06A40F0B9
:100EA0001000A06268E0A16A21F4885141F00201BB
:100EB000A1626268E169237B0A4347EA43010A436E
:100EC000A1684FF48077B94208D0012906D00021EB
:100ED00094F814C0BCF1010F02D00AE03946F7E7DC
:100EE000F3B1A36A43F02003A362E36A43F0010372
:100EF000E3622368D3F804C02CF4694C4CEA010C7B
:100F0000C3F804C023689968DFF870C001EA0C01D7
:100F100011439960A168B9420BD0012909D00CE0B6
:100F2000DFF85CC0A3690CEB43330B4343F400616F
:100F3000DFE7218A0D05A5F580152168CB6A23F42A
:100F400070032B43CB62216889680E4B1940914294
:100F500008D1E662A16A21F0020141F00101A1621B
:100F6000BDE8F081A06A20F0020040F01000A0620D
:100F7000E06A40F00100E0620120F1E7FDF7E1FFE7
:100F800000E0FFFFFE0E1FFF10B586B000210091AC
:100F90000191029103911A4C03681A4903221A48DD
:100FA000A34211D18B6943F400738B618B6903F405
:100FB000007304938B6943F004038B61896901F02A
:100FC00004010491042113E0104CA34215D18B6954
:100FD00043F480638B618B6903F4806304938B69B2
:100FE00043F004038B61896901F004010491082135
:100FF000CDE90012694600F0EDF806B010BD000022
:101000000024014000100240000801400028014077
:1010100070B5044690F8240001280DD0012084F812
:1010200024002046FFF79EFC02004FF0000005D090
:1010300084F82400104670BD022070BDA16A40F201
:101040000123994341F48071A1621F4D23681F4918
:10105000AB4218D10E6816F4702F14D0A66A46F46D
:101060008016A6620E68760505D5A66A26F4005697
:1010700046F48056A662A66AF6040AD5E66A26F009
:101080000606E66206E0A66A26F48016A6625E6898
:10109000E9E7E06284F824006FF00200186020683D
:1010A0008368C3F34243072B05D1A84208D10968DE
:1010B00011F4702F04D0816841F480118160B9E788
:1010C000816841F4A001F9E70028014004240140AF
:1010D00010B590F821100022022905D00421816367
:1010E00080F82020012010BD01680B6823F00E035A
:1010F0000B6001680B6823F001030B6090F840302F
:10110000C46B012101FA03F3636080F8211080F8B9
:101110002020104610BD000010B590F821100024CA
:10112000022903D00421816301243DE001680A689B
:1011300022F00E020A6001680A6822F001020A60C9
:101140001A4A0168914201D1012121E0174A143263
:10115000914201D110211BE0144A2832914201D161
:10116000891515E0114A3C32914201D189140FE0F2
:101170000E4A5032914202D14FF4803108E00B4ABE
:101180006432914202D14FF4801101E04FF080713E
:10119000064A083A5160012180F82110002180F8A8
:1011A0002010416B01B18847204610BD0800024065
:1011B00070B5044600F008F90546601C02D00448EA
:1011C0000078044400F000F9401BA042FAD370BD3F
:1011D0005C0000202DE9F84FDFF8B891002409F1F8
:1011E000040A0AF1040B23460F270BF1040EC9E091
:1011F0000125A5402A40AA427DD1674ED1F804C0FE
:10120000ACEB0608B44532D014DCBCF1030F3AD085
:1012100009DCBCF1000F2AD0BCF1010F1CD0BCF1DD
:10122000020F31D11DE0BCF1110F17D0BCF1120F2C
:101230002AD119E0B8F5881F19D006DCB8F5803F2F
:1012400015D0B8F5801F1FD111E0B8F5001F0ED0E2
:10125000B8F5041F18D10AE0CB6815E0CB681B1D58
:1012600012E0CB6808330FE0CB680C330CE08B68DE
:101270002BB1012B4FF0080303D0456104E0042398
:1012800002E0056100E00023FF2A01D8064601E0E4
:1012900000F104064FEA840501D9A5F12005D6F82E
:1012A000008007FA05FC28EA0C0803FA05F548EA6D
:1012B0000508C6F800804D68ED0062D5374DAE696F
:1012C00046F00106AE61AD6924F0030605F00105A4
:1012D0000095334D06EB050CDCF80850A607360FD9
:1012E00007FA06F825EA0805DFF8B880404503D17B
:1012F0004FF0000817E044E0DFF8AC80404502D131
:101300004FF001080FE0DFF8A480404502D14FF014
:10131000020808E0DFF89880404502D14FF003084A
:1013200001E04FF0040808FA06F848EA0508CCF88E
:1013300008804D68D9F80060ED034D4601D516438D
:1013400000E096432E604D68DAF80060AD03554624
:1013500001D5164300E096432E604D68DBF800602F
:10136000ED025D4601D5164300E096432E604D68C0
:10137000DEF80060AD02754601D5164300E09643E5
:101380002E60641C0D682A46E5407FF431AFBDE84D
:10139000F88F00000004014000001110001002400E
:1013A0000000014000080140000C01400010014015
:1013B000001401408068084000D0012070470AB145
:1013C000016170470904FBE701488068704700002D
:1013D0005C00002070B5040025D094F83D00002585
:1013E00020B984F83C50204600F04EF9242084F8BF
:1013F0003D002068016821F001010160206801685A
:1014000041F4004101602068016821F4004101605D
:1014100000F09CFA4D4A6168914201D84C4900E0C5
:101420004C49884201D2012070BD4B492368B0FB72
:10143000F1F15E6826F03F060E435E6063689342FA
:1014400006D94FF4967359434FF47A73B1FBF3F115
:101450002368491C1E6A26F03F0631431962616801
:10146000914210D84900401EB0FBF1F2521CC2F369
:101470000B02042A01D2042022E0B0FBF1F0401C50
:10148000C0F30B001CE0A268F2B301EBC10303EB55
:101490000116431EB3FBF6F35B1C43F480431B05AC
:1014A00049D092B301EBC10202EB0111401EB0FB27
:1014B000F1F0401CC0F30B0040F4804040F40040C9
:1014C0002168CA694CF6FF739A431043C861D4E996
:1014D000071001432068026822F0C0021143016036
:1014E000D4E9030101432068826848F2FF339A433C
:1014F00011438160D4E9050108432168CA6822F0DC
:10150000FF021043C86001E00EE016E020680168A9
:1015100041F0010101602564202084F83D0025632D
:1015200084F83E50002070BD01EB4106431EB3FB22
:10153000F6F35B1CB3E70120C2E701EB4101401E5B
:10154000B0FBF1F0401CC0F30B00B7E7A086010030
:1015500080841E0000093D0040420F002DE9F84F35
:101560001F4690468A460446DDF82890FFF72CFF78
:10157000054694F83D0020287FD1192301224049D7
:101580002046009501F016F8002876D194F83C002A
:10159000012872D0012084F83C0020680168C90746
:1015A00003D1016841F0010101602068016821F464
:1015B00000610160212084F83D00102084F83E0085
:1015C00000262664C4F824806785608D20852D4818
:1015D000E0622B464A465146204600F077FF90B91C
:1015E000206841698069009036E02A4649462046D5
:1015F00001F05FF850B1206C042804D12068016824
:1016000041F4007101600120BDE8F88F606A216833
:1016100000780861606A401C6062618D491E6185C6
:10162000218D491E89B2218522685369DB435B07FE
:101630000BD451B100781061606A401C6062608D0B
:10164000401E6085208D401E20852A464946204642
:1016500000F08AFF0028CED1208D0028C5D154F893
:101660003D0B016841F400710160202004F81E095F
:10167000E67766770020C7E7FFE70220C4E70000AF
:10168000020010000000FFFF10B586B0002100919D
:1016900001910291039100680F4988421AD10F4CC1
:1016A000A06940F00800A061A069694600F0080048
:1016B0000490C0200090122001900320039008485D
:1016C000FFF788FDE06940F40010E061E06900F494
:1016D0000010049006B010BD0054004000100240FD
:1016E000000C014002488168027811448160704713
:1016F0005C000020074810B5016841F0100101604E
:10170000032000F07BF80F2000F006F800F024F82A
:10171000002010BD0020024070B50D4D04464FF46E
:101720007A712878B1FBF0F00A490968B1FBF0F052
:1017300000F0F2FA48B9102C07D200222146501EC0
:1017400000F03CF800206C6070BD012070BD00000E
:101750005C000020680000200F4808B5816941F056
:1017600001018161816901F001010091C16941F0CC
:101770008051C161C069002200F0805000900F21AB
:10178000901E00F01BF80548416821F0E06141F02F
:101790000071416008BD00000010024000000140DF
:1017A000002809DB00F01F02012191404009800060
:1017B00000F1E020C0F8001170470000F0B40E4BBB
:1017C0001B680C46C3F30223C3F10705042D00D99F
:1017D0000425191D072901D2002300E0DB1E012684
:1017E00006FA05F1491E214099409E40761E16409A
:1017F0003143F0BC01F0FBBA0CED00E0064900F00B
:10180000070208684FF6FF03184040EA0220034A27
:1018100010430860704700000CED00E00000FA057E
:101820002DE9F0470F46050061D0434E306800F0C7
:101830000700B84209D2306820F007003843306012
:10184000306800F00700B84251D128683B4C81074E
:1018500012D5400703D5606840F4E06060602878E6
:10186000000703D5606840F4605060606068A96854
:1018700020F0F000084360602878C00728D068682E
:10188000012810D02168022810D0890700292EDAFB
:10189000616821F0030101436160FFF795FD804617
:1018A00041F288390DE021688903EFE78901EDE70E
:1018B000FFF78AFDA0EB0801494502D90320BDE8E6
:1018C000F0876068696800F00C00B0EB810FEFD121
:1018D000306800F00700B8420BD9306820F00700EC
:1018E00038433060306800F00700B84201D0012072
:1018F000E5E72878400705D56068E96820F4E060EE
:10190000084360602878000706D56068296920F4DC
:10191000605040EAC100606000F038F86168084A31
:10192000C1F30311515CC8400649086006480068CD
:10193000FFF7F2FE0020C2E7002002400010024044
:10194000A844000868000020600000200448054901
:1019500000684968044AC1F30221515CC8407047DD
:101960006800002000100240B844000804480549FF
:1019700000684968044AC1F3C221515CC8407047FD
:101980006800002000100240B844000812A185B091
:101990000FC98DE80F0014A0144A00680490516824
:1019A000134801F00C03042B10D0082B0ED1C1F307
:1019B0008343C9031DF803000AD5516804AAC1F383
:1019C0004041515C0A4A5043B0FBF1F005B070470A
:1019D00008494843FAE7000002030405060708091E
:1019E0000A0B0C0D0E0F1010010200000010024037
:1019F00000127A0000093D002DE9F84F040070D074
:101A00002078C04DC00749D06868C0F38100012824
:101A100007D06868C0F38100022809D16868C00354
:101A200006D52868800339D560680028E7D035E0FE
:101A30006068B0F5803F0BD010B1B0F5A02F11D089
:101A4000286820F480302860286820F4802002E094
:101A5000286840F480302860606890B1FFF7B4FCDB
:101A600006460AE0286840F480202860F0E700BFBE
:101A7000FFF7AAFC801B642873D828688003F7D579
:101A80000CE0FFF7A1FC064605E000BFFFF79CFC59
:101A9000801B6428F0D828688003F7D420789A4EF9
:101AA00080074FF001094FF0000839D5686810F041
:101AB0000C0F07D06868C0F38100022809D168685C
:101AC000C00306D42868800714D52069012808D1EE
:101AD00010E02069B0B1C6F80090FFF775FC07462A
:101AE00005E00AE1FFF770FCC01B0228C4D8286893
:101AF0008007F7D52868616920F0F80040EAC10046
:101B000028600DE0C6F80080FFF75EFC074604E0A1
:101B1000FFF75AFCC01B022823D828688007F7D497
:101B2000207800072CD57948A169D9B1C0F8009078
:101B3000FFF74AFC074604E0FFF746FCC01B0228FB
:101B40000FD8686A8007F7D571484FF4FA510068DA
:101B5000B0FBF1F0009000BF0098411E0091FAD256
:101B60000EE080E0C0F80080FFF72EFC074604E09E
:101B7000FFF72AFCC01B022875D8686A8007F7D4D3
:101B80002078400760D5E8690027C00008D4E869DC
:101B900040F08050E861E869012700F08050009033
:101BA0005C480168C90513D40168834641F480711B
:101BB0000160FFF709FC824606E000BFFFF704FC66
:101BC000A0EB0A0064284ED8DBF80000C005F5D56C
:101BD000E06801280AD008B1052813D0286A20F04F
:101BE00001002862286A20F0040002E0286A40F020
:101BF00001002862E06841F2883B98B1FFF7E4FBFE
:101C000082460BE0286A40F004002862EEE700BF3D
:101C1000FFF7DAFBA0EB0A0159455AD8286A80077A
:101C2000F6D50CE0FFF7D0FB824605E0FFF7CCFBD2
:101C3000A0EB0A0159454CD8286A8007F6D41FB199
:101C4000E86920F08050E861E06988B36968C1F311
:101C50008101022944D00228C6F8608004D0FFF731
:101C6000B3FB044638E034E0FFF7AEFB074604E080
:101C7000FFF7AAFBC01B02282BD828688001F7D4E5
:101C8000206AB0F5803F05D16868A16820F4003073
:101C900008436860D4E908010843696821F47411B5
:101CA00008436860C6F86090FFF78EFB044606E0C4
:101CB00025E000BFFFF788FB001B022809D8286831
:101CC0008001F7D51BE000BFFFF77EFB001B022859
:101CD00002D90320BDE8F88F28688001F4D40EE013
:101CE0000128F7D06868226A00F48031914204D15B
:101CF000616A00F47010884201D00120EAE70020F8
:101D0000E8E7000000100240000042428004424226
:101D1000680000200070004010B5401EB0F1807FC8
:101D200001D3012010BD4FF0E02460610F21601746
:101D300001F05DF80020A06107202061002010BDA7
:101D400070B590F83C20012A26D0012480F83C4050
:101D5000022280F83D2003685A689D6822F07006D0
:101D60000A6832435A600D4B02689A4208D0B2F1B9
:101D7000804F05D00A4B9A4202D00A4B9A4204D1B6
:101D8000496825F080031943916080F83D400021A7
:101D900080F83C10084670BD022070BD002C014048
:101DA000000400400008004010B5040003D094F87F
:101DB0003D0010B107E0012010BD002084F83C0078
:101DC000204600F01FF8022084F83D00211D206805
:101DD00000F076FE012084F8460084F83E0084F886
:101DE0003F0084F8400084F8410084F8420084F801
:101DF000430084F8440084F8450084F83D00002046
:101E000010BD000008B500680649884208D10648A0
:101E1000C16941F00401C161C06900F00400009093
:101E200008BD0000000800400010024090F83D107E
:101E3000012901D001207047022180F83D1000687F
:101E40000B49884208D0B0F1804F05D0094988423B
:101E500002D00949884204D1816801F007010629AE
:101E600003D0016841F001010160002070470000CB
:101E7000002C0140000400400008004070B50446FA
:101E800090F83C00012817D0012584F83C5002202E
:101E900084F83D002068826822F0770222F47F42B5
:101EA00082600868502830D00DDC20284DD005DC39
:101EB00098B310283BD148E0022070BD302844D0B0
:101EC000402834D139E0602828D0702806D0B0F5F9
:101ED000805F2CD0B0F5005F29D10AE0CB68D1E952
:101EE0000121206800F022FE2068816841F077011E
:101EF00009E0CB68D1E90121206800F017FE2068D5
:101F0000816841F48041816011E0CA6849682068B5
:101F100000F01EFE5021206807E016E0CA684968FC
:101F2000206800F026FE6021206800F009FE84F899
:101F30003D50002084F83C0070BDCA6849682068A4
:101F400000F006FE40212068EFE7226801461046B7
:101F5000EBE7704770470000F8B502680446106868
:101F6000D168536910F00F0F4FF0000554D003F003
:101F7000010601F4907737435FD0C20705D0CA0548
:101F800003D5226C42F001022264420705D5DA072C
:101F900003D0226C42F002022264820705D5DA07E0
:101FA00003D0226C42F004022264020707D501F03C
:101FB0002002324303D0226C42F008022264226CD9
:101FC000002A35D0800604D5880602D5204600F0C8
:101FD00002FE20684069216CC0F3801001F0080106
:101FE0000143204625D000F0DEFD20684169490606
:101FF0001BD5416921F040014161A06BA8B158494E
:102000004163A06BFFF788F8002811D0A06B416BEB
:1020100001B0BDE8F040084783060ED58B060CD50D
:102020002046BDE8F84000F0D6BD2046FFF792FFFD
:10203000F8BDFFF78FFF2564F8BD266B2023012E26
:1020400052D1C60650D5CE064ED5106850680090C5
:10205000506940062AD5A16B086840680004000C4E
:10206000EAD0A68D8642E7D9E0858869202818D075
:10207000D06820F48070D0602068416921F00101AF
:1020800041612068416921F04001416184F83E309E
:1020900025632068C16821F01001C160A06BFFF7C3
:1020A00017F8A08DE18D401A81B219E0A08DE18D65
:1020B000401A81B2E08D0028BED00029BCD0D06883
:1020C00020F49070D0602068426922F001024261E1
:1020D00084F83E3025632068C26822F01002C26096
:1020E0002046FFF736FFF8BD05062BD50D0629D58E
:1020F00094F83D002128F6D1A068B0F5805F01D1A9
:102100002069B0B1206A411C2162216800784860D2
:10211000E08C401E0004000CE084E4D12068C1681B
:1021200021F08001C1602068C16841F04001C160B8
:10213000F8BD206A0088C0F308005060206A801C47
:102140002062E5E74006F3D54806F1D5D168204680
:1021500021F04001D16084F83D3000F09EF9F8BDD7
:10216000972B000870B5040004D094F83D000025BA
:1021700010B106E0012070BD84F83C50204600F00C
:1021800023F8242084F83D002068C16821F4005120
:10219000C160204600F07AFD2068016921F4904179
:1021A00001612068416921F02A0141612068C1680C
:1021B00041F40051C1602564202084F83D0084F87A
:1021C0003E00002070BD000030B585B000240094B2
:1021D0000194029403940068184988422CD118484D
:1021E000816941F480418161816901F480410491F8
:1021F000816941F0040181618069124D00F00400A1
:1022000004904FF40070009002200190032003908E
:1022100069462846FEF7DEFF2815CDE90004694629
:1022200028460294FEF7D6FF002205212520FFF75D
:10223000C5FA2520FFF7B4FA05B030BD00380140DB
:1022400000100240000801402DE9F84F044690F8C4
:102250003E009A4616460D46202853D1FDB1F6B1F0
:1022600094F83C0001284DD0012084F83C00002760
:102270002764222084F83E002763FFF7A5F8A6858F
:102280008146E685A0684FF48058404501D1206919
:1022900040B12E465FF0000584F83C7027E0012035
:1022A000BDE8F88F0026F7E74B46002220212046A4
:1022B000CDF800A000F061FD08B10320F0E726B1E1
:1022C000A06840451BD038B108E020684068C0F3E2
:1022D000080025F8020B07E0206980B120684068FB
:1022E00000F07F0006F8010BE08D401EE085E08DD8
:1022F0000028D9D1202084F83E000020D0E72068B3
:102300004068EFE70220CBE790F83E30202B0ED15B
:1023100059B152B190F83C30012B08D0012380F81C
:102320003C300023036300F00DBD01207047022004
:102330007047000070B50068214988423FD121A153
:102340002148FEF72DF9214D28B121A11E48FEF7A5
:1023500027F910B106E0012200E0002240212846C2
:10236000FFF72DF81BA11848FEF71AF928B11AA19A
:102370001548FEF715F910B106E0012200E0002231
:1023800080212846FFF71BF814A10F48FEF708F933
:102390004FF4807428B112A10B48FEF701F910B177
:1023A00006E0012200E0002221462846FFF707F858
:1023B000BDE87040022204490A48FFF7A5BF70BD7E
:1023C000003801404F310000160000200008014095
:1023D000583100004F320000583200004F330000E7
:1023E00058330000C80100202DE9F843044690F856
:1023F0003D001F4616460D4620284CD1C5B1BEB142
:1024000094F83C00012846D0012084F83C004FF0AD
:102410000008C4F84080212084F83D00FEF7D4FF76
:10242000A6848146E684A068B0F5805F03D004E00E
:102430000120BDE8F883206928B12E465FF0000531
:1024400084F83C800EE00026FAE78021204600F068
:1024500094FCA0B9AEB116F8010B21684860E08C7D
:10246000401EE084E08C4B464FF0000200970028AD
:10247000EBD14FF04001204600F07FFC30B103204B
:10248000D7E735F8020BC0F30800E6E7202084F810
:102490003D000020CDE70220CBE77047FEE7016852
:1024A0004A69D24352050FD46FF480624A61002119
:1024B00040F8301F202242738173026942F0040207
:1024C000026101730120704700207047F8B504468F
:1024D000C06A1E460D461746082807D0012805D0B9
:1024E00010F5803F02D0206B122804D120680168CB
:1024F00041F480710160134600224FF00111204623
:10250000009600F057F840B120680068C00502D579
:102510004FF4007020640320F8BD2069B0F5804FAF
:102520000ED00620216800EAD51040F0F0000861C6
:1025300033463A460B49204600F070F878B902E07D
:1025400005F0FE0000E0E8B2216808610549334665
:102550003A46891F204600F061F80028DCD00120AF
:10256000F8BD00000800010070B516460D4604468F
:102570000DE02046FFF793FF08B1012070BD681CF5
:1025800005D0FEF721FF801BA84207D835B120688F
:102590004069C0434007ECD4002070BD002044F8DF
:1025A000300F20216173A073216941F02001216166
:1025B0002073E2E72DE9F0471E4690460D4604469B
:1025C000C1F30747DDF8209008E0701C06D0FEF745
:1025D000FBFEA0EB0900B0420FD876B12068012FB6
:1025E00018D0806925EA00000004000C14D00021F6
:1025F0004145EAD00020BDE8F087002044F8300FC4
:1026000020216173A073216941F0200121612073B1
:102610000120F0E74069E5E70121E9E72DE9F0470E
:102620009A4691460E46044600254FF02008C1F315
:10263000074725E020684069C043400514D420685E
:10264000016841F40071016021686FF480604861A5
:10265000256384F83D8084F83E50206C40F00400EF
:10266000206484F83C501FE0B9F1FF3F08D0FEF72A
:10267000ABFEA0EB0A0149450CD8B9F1000F09D017
:102680002068012F13D0806926EA00000004000CA6
:102690000BD0CFE744F8305F84F80D80A573206934
:1026A00040F02000206125730120BDE8F0874069DB
:1026B000EAE770B516460D4604460DE02046FFF7E2
:1026C000EEFE08B1012070BD681C05D0FEF77CFE4F
:1026D000801BA84207D835B120684069C043000676
:1026E000ECD4002070BD002044F8300F202161732D
:1026F000A073216941F0200121612073E2E70120EC
:1027000000F01EFDFBE700003EB5002111480091DE
:1027100001910F4A029102608160017301750124E9
:102720004FF460220461C2614160FEF79FFB08B173
:1027300072B6FEE70220CDE900040520029069464A
:102740000448FEF711FB002801D072B6FEE73EBD3B
:1027500000240140CC0000203EB50021114800912A
:1027600001910F4A02910260816001730175012499
:102770004FF460220461C2614160FEF777FB08B14B
:1027800072B6FEE70320CDE90004052002906946F9
:102790000448FEF7E9FA002801D072B6FEE73EBD14
:1027A00000280140FC00002030B585B000242748F7
:1027B0000094019402940394816941F020018161A5
:1027C000816901F020010491816941F00401816176
:1027D000816901F004010491816941F0080181617E
:1027E00080691B4D00F00800049001220221284658
:1027F000FEF7E5FD002210212846FEF7E0FD00224D
:1028000020212846FEF7DBFD002240212846FEF766
:10281000D6FD002280212846FEF7D1FD0022A91511
:102820002846FEF7CCFD0022E9142846FEF7C7FD36
:1028300040F6F21000900120CDE90104022003903F
:1028400069462846FEF7C6FC05B030BD00100240C0
:102850000008014010B586B0002417480094019488
:102860000294039404941349059401604721C0E93C
:1028700001144FF6FE71C0E903148461FFF794FA66
:1028800008B172B6FEE74FF48050009069460A48DE
:10289000FFF7F4FA08B172B6FEE7049404A90648FB
:1028A0000594FFF74DFA002801D072B6FEE706B096
:1028B00010BD00000008004080010020FEE7FEE798
:1028C0001FB5002200910192029203926946FEF721
:1028D00081FC1FBD1FB5002200910192029203925C
:1028E0006946FEF777FC1FBD1FB50022009101214C
:1028F000CDE90112022103916946FEF76BFC1FBD71
:102900001FB5002200910121CDE90112022103919E
:102910006946FEF75FFC1FBD86B000F091FA424C9D
:102920004FF0FF3540492A461C31606C01F0A4FA93
:102930003D492A462031A06C01F09EFA3A492A46C8
:102940002431E06C01F098FA37492A462831206D8D
:1029500001F092FA34492A462C31606D01F08CFA6C
:1029600031492A463031A06D01F086FA002108462F
:1029700000F0A2FA2DA16846E269FDF7CFFC684697
:1029800000F0F0FA2BA000F0EDFA0A21002000F090
:1029900093FA26A16846226AFDF7C0FC684600F05B
:1029A000E1FA24A000F0DEFA0021012000F084FA10
:1029B00021A16846626AFDF7B1FC684600F0D2FAD0
:1029C000432000F0AFFA0A21012000F075FA1CA1A3
:1029D0006846A26AFDF7A2FC684600F0C3FA25200B
:1029E00000F0A0FA0021022000F066FA12A1684669
:1029F000E26AFDF793FC684600F0B4FA432000F069
:102A000091FA0A21022000F057FA0DA16846226BC4
:102A1000FDF784FC684600F0A5FA252000F082FA54
:102A2000012000F08DFB7DE7000000204C3A25647A
:102A3000000000004C75780054656D703A25640004
:102A400052683A256400000010B5FEF74BFE01F015
:102A50005DFB012803D0BDE8104001F099B810BD1E
:102A600030B58FB028216846FDF772FD14210AA801
:102A7000FDF76EFD01210804CDE900100024029449
:102A800002250491CDE907504FF4E0100990684603
:102A9000FEF7B2FF08B172B6FEE70F20CDE90A05D6
:102AA0004FF48060CDE90C4002210AA80E94FEF795
:102AB000B7FE002801D072B6FEE70FB030BD7047F8
:102AC000F0B50268164B174C174D4FF080479842EF
:102AD00005D0B84203D0A04201D0A84203D122F0D1
:102AE00070064A683243984205D0B84203D0A042EB
:102AF00001D0A84203D122F44074CA6822434C6931
:102B000022F08002224302608A68C2620A688262FE
:102B1000984201D10969016301214161F0BD0000C2
:102B2000002C0140000400400008004010B58468FB
:102B300042EA032224F47F440A432243826010BD08
:102B4000826822F070020A4342F0070181607047F8
:102B500010B5036A046A24F001040462846924F055
:102B6000F00444EA021423F00A020A438461026278
:102B700010BD10B5036A23F0100303628369046A71
:102B800023F4704343EA023224F0A00343EA011124
:102B90008261016210BD10B5406A0021C185C18407
:102BA000FFF7D8F910BD0168CA6822F49072CA60B4
:102BB00001684A6922F001024A61016B012904D1CE
:102BC0000168CA6822F01002CA60202180F83E1015
:102BD00000210163704708B590F83E10222901D00A
:102BE000022008BD82684FF480539A4201D10169E6
:102BF00021B1816A9A421BD04AB10AE00268816A17
:102C00005268C2F308020A80816A891C08E00269DE
:102C100072B10268526802F07F020A70816A491C30
:102C20008162C18D491E0904090CC18503D019E0D8
:102C300002685268F1E70168CA6822F02002CA609F
:102C40000168CA6822F48072CA6001684A6922F089
:102C500001024A61202180F83E10016B012903D056
:102C6000FFF768FB002008BD002101630168CA6806
:102C700022F01002CA6001680A68D20602D50A680A
:102C800049680091818DFFF764F9EBE770B5044660
:102C900000680169E26821F4405111430161216932
:102CA000A0680843616908432168CA6841F20C635F
:102CB0009A430243CA6020684169A26921F44071C5
:102CC000114341611E492068884202D1FEF74EFE41
:102CD00001E0FEF73BFE00EBC00101EB0012606873
:102CE00064218000B2FBF0F3B3FBF1F36FF0180640
:102CF0007343B2FBF0F5B2FBF0F605EB830532232C
:102D000003EB0515B5FBF1F5B6FBF1F605F0F005A3
:102D100005EB0615B2FBF0F6B2FBF0F0B0FBF1F0FC
:102D20006FF01802504306EB800003EB0010B0FB7D
:102D3000F1F0216800F00F002844886070BD0000A9
:102D40000038014081628285C2850021016422220F
:102D500080F83E2080F83C100168CA6842F4807216
:102D6000CA6001684A6942F001024A610068C168AC
:102D700041F02001C160002070472DE9F0419846E4
:102D800017460E460446069D1DE0681C1BD02DB15B
:102D9000FEF71AFBA0EB0800A84214D92068C1680E
:102DA00021F4D071C1602068416921F001014161C5
:102DB000202084F83D0084F83E00002084F83C0088
:102DC0000320BDE8F0812068006836EA000004D0E6
:102DD0000020B842D9D00020F3E70120F9E7000035
:102DE0000148FFF7B9B80000C8010020FEE7090755
:102DF000090E002804DB00F1E02080F80014704781
:102E000000F00F0000F1E02080F8141D7047000072
:102E1000044900220B685A6209684A6A8242FCD35C
:102E2000704700008001002010B5802000F05AF8A3
:102E30000024202000F076F8641C462CF9DB10BD3D
:102E400010B53220FEF7B4F9302000F04BF8052021
:102E5000FEF7AEF9302000F045F80120FEF7A8F9A2
:102E6000302000F03FF80A20FEF7A2F9202000F001
:102E700039F80A20FEF79CF9282000F033F80120E9
:102E8000FEF796F9082000F02DF80120FEF790F9E2
:102E9000012000F027F80120FEF78AF90120FEF753
:102EA00087F9062000F01EF80120FEF781F9BDE841
:102EB00010400C2000F016B830B1012807D00228CD
:102EC00008D003280BD108E041F0800107E041F071
:102ED000C00104E041F0940101E041F0D401C8B226
:102EE000AFF300801CB500F0F00141F00C028DF84A
:102EF000042041F0080100018DF8051040F00C019C
:102F00008DF8061040F008008DF80700642000904E
:102F1000042301AA4E210248FEF720FB1CBD00003D
:102F20002C0100201CB500F0F00141F00D028DF8DD
:102F3000042041F0090100018DF8051040F00D0159
:102F40008DF8061040F009008DF80700642000900D
:102F5000042301AA4E210248FEF700FB1CBD00001D
:102F60002C01002010B5044602E0641CFFF7DAFFD4
:102F700020780028F9D110BDB4B0FEF7BBFBFFF7F5
:102F80006FFDFFF711FC61485F4900240160604953
:102F9000C0E901144FF48041C0E9034144618461F8
:102FA000C4610462FEF716FA08B172B6FEE7FFF7D5
:102FB00051FCFFF7A9FBFFF7CFFB544855499C3064
:102FC00001604FF41651C0E901140C21C460C0E93E
:102FD00004418461C461FFF7C5F808B172B6FEE729
:102FE0004A485430FEF722FFFFF72AFF4AA0FFF7B6
:102FF000B9FF4FF4FA60FEF7DBF8FFF715FF4A4D13
:103000000DF1700C95E80F008CE80F0000211CA852
:1030100000F0A3F8454C10350DF1800C606495E884
:103020000F008CE80F00002120A8103D00F095F85B
:103030002035A06495E80F000DF1900C203D8CE840
:103040000F00002124A800F088F83035E06495E8EE
:103050000F000DF1A00C303D8CE80F00002128A8D6
:1030600000F07BF84035206595E80F000DF1B00CBD
:10307000403D8CE80F0000212CA800F06EF8503580
:10308000606595E80F000DF1C00C8CE80F00002181
:1030900030A800F062F8A0651C2205F11001684616
:1030A000FDF724FA0021684600F06CF860631C22EA
:1030B00005F12C0107A8FDF719FA002107A800F077
:1030C00061F8A0631C2205F148010EA8FDF70EFA75
:1030D00000210EA800F056F8E0631C2205F16401FF
:1030E00015A8FDF703FA002115A800F04BF820649D
:1030F00000F02EF80E4C4FF40065012229462046C0
:10310000FEF75DF9F9E70000005400402C010020B3
:10311000A086010000380140494E495449414C49BC
:103120005A494E472E2E0000D843000800000020C8
:10313000000801400021842800D0C11C08467047C7
:1031400010B5002800D1012000F0FCFB002010BDCC
:1031500010B500F047FC002010BD08B58268D0F81B
:1031600000C04168002A07D0C3682BB1002000903E
:10317000604600F048FD08BDBDE8084000226046FA
:1031800000F01CBD30B585B004460D466169B4F948
:103190000800002910D0A16971B1FFF7CBFF626967
:1031A000A1690192029100902B4622692168606812
:1031B00000F07CFF049010E0FFF7BCFF04A9019130
:1031C0000090208A2B4682B22168606800F038FFA8
:1031D000012802D005B0002030BD049805B030BDF4
:1031E0002DE9F04104460F46194E75693068001DFF
:1031F00000F0DEFA48B93068012190F82C0001FA9D
:1032000000F0B16921EA0000B061B4F1FF3F07D1DD
:1032100037B13068BDE8F041011D0E4800F00FBB2A
:103220002C4430684460AC4206D23068011DB0685E
:10323000BDE8F04100F0E8BA3068011D706800F0A8
:10324000E3FA306B844200D23463BDE8F0810000C1
:103250006C0000203C05002070B5044600F0FCFA2C
:103260001C4D2869401C2861286810B1E86938B1F4
:103270000CE02C602869012808D100F03DF905E038
:103280002868E16AC06A884200D82C60E86A401C5D
:10329000E862E06A0121AA6981401143A9610E49EF
:1032A00000EB800001EB8000211D00F0C8FA00F067
:1032B000F3FAE86900280CD02868E16AC06A8842FD
:1032C00007D206494FF080500860BFF34F8FBFF31D
:1032D0006F8F70BD6C0000206004002004ED00E0E2
:1032E00070B50D4CE068002815D00C4E00F0B4FA13
:1032F000F068C568281D00F05BFA2069401E206157
:10330000E068401EE06000F0C7FA284600F051F87F
:10331000E0680028EAD170BD6C000020280500207C
:103320000B46026C002A0CD0C1681144C160D0F871
:1033300004C0614501D30168C160C1681846FDF74A
:1033400090B870472DE9F041044616460027A56B5A
:10335000226C002A10D0C6B1E068FDF782F8E1685F
:10336000206C091AE1602268914202D26168081A51
:10337000E060022E16D017E02068A8B9606800F05F
:103380003BFF0746002060600EE0A068FDF769F88B
:10339000216CA0680844A0606168884204D320685A
:1033A000A06001E005B16D1E681CA0633846BDE851
:1033B000F08110B5044694F8511000290BD0012972
:1033C00011D0022914D0502080F31188BFF34F8F01
:1033D000BFF36F8FFEE7206B00F074FA2046BDE864
:1033E000104000F06FBA2046BDE8104000F06ABA05
:1033F00010BD00004FF44061104810F0070F06D0D8
:10340000C01D20F007000D49411AC1F540610C4A6A
:103410001060002353600144083921F00701103A7D
:1034200011604B600B600B1A436001604068906054
:1034300050604FF00040D060704700005005002001
:10344000B8000020074E4FF08054074DFFF748FFAB
:1034500030680128FAD92C60BFF34F8FBFF36F8F0C
:10346000F4E700006004002004ED00E0034600984B
:10347000002905D00260C3630164012100F0FCBB98
:103480000060F8E72DE9F0478146099E089D0A9CF7
:103490009A46521E206B00EB820020F0070800279E
:1034A000002023180A5C83F834200A5C12B1401C07
:1034B0001028F6D384F84370072D00D30625E56263
:1034C0006564A764201D00F09CF904F1180000F069
:1034D00098F92461C5F10700A0616462E76484F88B
:1034E000507052464946404600F050F92060002E88
:1034F00000D03460BDE8F08770B500240F4D04EBB8
:10350000840005EB800000F071F9641C072CF6D3F1
:103510000B4800F06BF90B4800F068F90A4800F01E
:1035200065F90A4800F062F9094800F05FF90948B6
:10353000034941601431816070BD000060040020C7
:10354000EC040020000500201405002028050020C0
:103550003C0500206C00002010B4144900E0114626
:103560000A688242FBD34B6803EB010C844503D10C
:1035700040681844486008460C68D0F804C00CEB5A
:103580000003A3420CD10A4B1B689A4206D0526832
:10359000624442600A681268026002E0036000E070
:1035A0000260814200D0086010BC7047B800002063
:1035B000A800002010B5044600F04EF9A06B20B121
:1035C000002400F069F9204610BD0124F9E710B588
:1035D000044600F041F9A06BE16B884201D101245F
:1035E00000E0002400F058F9204610BD0749486863
:1035F0000068002805D04868C068C0684068086353
:1036000070474FF0FF300863704700006C000020E7
:103610000A484068B0F1FF3F07D0502080F311887E
:10362000BFF34F8FBFF36F8FFEE7502080F31188F9
:10363000BFF34F8FBFF36F8FFEE70000C000002085
:1036400070B5044600F008F994F94550002D0CDDE2
:10365000606A50B104F1240000F01CFE08B100F0D3
:10366000A1F9681E45B2002DF2DC4FF0FF3684F858
:10367000456000F011F900F0EFF894F94450002D86
:103680000CDD206950B104F1100000F003FE08B118
:1036900000F088F9681E45B2002DF2DC84F8446021
:1036A000BDE8704000F0F8B82DE9F041054600266D
:1036B00000F0DCF9334F386808B9FFF79BFEF86873
:1036C00005424ED19DB1083515F0070F0FD005F01A
:1036D0000700C0F10800054415F0070F07D050207F
:1036E00080F31188BFF34F8FBFF36F8FFEE7002D7C
:1036F00037D07868854234D823490846046801E009
:10370000214604466068A84202D220680028F7D10A
:103710003868844225D0086800F1080620680860EF
:103720006068411B10290FD9601910F0070F07D0EE
:10373000502080F31188BFF34F8FBFF36F8FFEE7E8
:1037400041606560FFF708FF61687868401A78603B
:10375000BA68904200D2B860F86808436060002000
:10376000206000F0D3FD16F0070F07D0502080F343
:103770001188BFF34F8FBFF36F8FFEE73046BDE870
:10378000F0810000A8000020B8000020001F4FF0CA
:1037900080730360001F21F001010160001F0349D5
:1037A00001601438026020387047000011360008AC
:1037B0000169436882689A60836842685A604A680F
:1037C000824201D182684A60002202610868401E7C
:1037D0000860086870470000034B036003F1540061
:1037E00008608020106070470C02002000F1080182
:1037F00041604FF0FF328260C160016100210160D1
:10380000704700210161704710B4D1F800C0BCF1CD
:10381000FF3F02D000F1080202E0026904E01A460C
:1038200053681C686445FAD953684B6099608A6094
:10383000516008610168491C016010BC7047426812
:103840004A6093688B609368596091600861016871
:10385000491C016070470000502080F31188BFF3BD
:103860004F8FBFF36F8F0A494868401C486001289A
:103870000CD10848006810F0FF0F07D0502080F3EB
:103880001188BFF34F8FBFF36F8FFEE770470000C3
:10389000C000002004ED00E009494868002806D077
:1038A000401E4860002801D180F3118870475020E5
:1038B00080F31188BFF34F8FBFF36F8FFEE70000D7
:1038C000C000002070B5002827D0A0F10804134DD7
:1038D0006068E968084207D1502080F31188BFF37F
:1038E0004F8FBFF36F8FFEE722683AB1502080F30D
:1038F0001188BFF34F8FBFF36F8FFEE7884360607F
:1039000000F0B4F860686968084468602046FFF712
:1039100023FEBDE8704000F0F9BC70BDA800002097
:103920004FF0E02000210161816105494FF47A7276
:103930000968B1FBF2F1491E41610721016170473D
:103940006800002010B502460020002A12D00F485F
:10395000806B38B1502080F31188BFF34F8FBFF3D5
:103960006F8FFEE700F082F800211046FFF738FC69
:1039700000F0CCFC002807D105494FF080500860CA
:10398000BFF34F8FBFF36F8F10BD00006C0000209E
:1039900004ED00E002498A6A0260496941607047AB
:1039A0006C00002001490120486270476C00002033
:1039B00010B50C4600280BD0094A126802F1180114
:1039C000FFF722FF2046BDE810400121FFF708BCA9
:1039D000502080F31188BFF34F8FBFF36F8FFEE746
:1039E0006C00002010B586B000240594049403AA4E
:1039F00004A905A8FFF7F0FE05980499019102902B
:103A00000023009415A11748039A00F04FFB1649B4
:103A1000486308B1012000E0002001280AD0B0F17D
:103A2000FF3F19D1502080F31188BFF34F8FBFF3B0
:103A30006F8FFEE7502080F31188BFF34F8FBFF3E5
:103A40006F8F4FF0FF3008630120C8614C6106B0F2
:103A5000BDE8104000F042B806B010BD49444C45E6
:103A600000000000453400086C0000200248816B13
:103A7000491C8163704700006C000020154A906B60
:103A8000002802D0012050627047002050629069E7
:103A9000B0FA80F0C0F11F000F4900EB800051F830
:103AA000203073B101EB800041684968416000F14A
:103AB0000803994201D1496841604068C0681060BC
:103AC0007047502080F31188BFF34F8FBFF36F8F83
:103AD000FEE700006C0000206004002000B583B009
:103AE000284908780290FF200870087801909DF816
:103AF00004009DF8042000F0F000904207D0502010
:103B000080F31188BFF34F8FBFF36F8FFEE79DF8EF
:103B100004001D4B00F050001870072098609DF8BD
:103B2000040010F0800F0BD09868401E98609DF83C
:103B30000400400001909DF8040010F0800FF3D1C4
:103B40009868032807D0502080F31188BFF34F8F67
:103B5000BFF36F8FFEE74FF44070986002980870D3
:103B60000A48016841F470010160016841F0704148
:103B70000160FFF7D5FE00205860FCF71FFB03B083
:103B8000002000BD00E400E0C000002020ED00E0C7
:103B900010B5502080F31188BFF34F8FBFF36F8FA4
:103BA00000F0C2FA18B104494FF0805008600020BC
:103BB00080F3118810BD000004ED00E0F8B5054663
:103BC0000E461746002D14D0DEB105FB06F0483036
:103BD000FFF76AFD044654B104F14802002084F85E
:103BE00046003B46314628460094FFF73FFC2046FE
:103BF000F8BD502080F31188BFF34F8FBFF36F8F54
:103C0000FEE70020E3E738B5049D002804D05BB14F
:103C100002B189B1C2B120E0502080F31188BFF316
:103C20004F8FBFF36F8FFEE7502080F31188BFF3F3
:103C30004F8FBFF36F8FFEE7502080F31188BFF3E3
:103C40004F8FBFF36F8FFEE739B1502080F311889B
:103C5000BFF34F8FBFF36F8FFEE74FF0480CCDF8E7
:103C600000C01C46012384F846302B460094FFF721
:103C7000FDFB204638BD000070B504460D46002C03
:103C800025D0FFF7E9FD226CE16B206801FB020003
:103C900060600020A0632068A060E16B226C206857
:103CA000491E01FB0200E0604FF0FF3084F8440041
:103CB00084F845009DB104F11000FFF797FD04F171
:103CC0002400FFF793FDFFF7E7FD012070BD5020B2
:103CD00080F31188BFF34F8FBFF36F8FFEE720692A
:103CE0000028F0D004F1100000F0D4FA0028EAD047
:103CF00004494FF080500860BFF34F8FBFF36F8FC0
:103D0000E1E7000004ED00E02DE9FF4782B0044642
:103D10008A461F460025002C03D0BAF1000F08D0B8
:103D200011E0502080F31188BFF34F8FBFF36F8FE6
:103D3000FEE7206C38B1502080F31188BFF34F8F1D
:103D4000BFF36F8FFEE7022F0AD1E06B012807D087
:103D5000502080F31188BFF34F8FBFF36F8FFEE7C2
:103D600000F0D4F948B9049838B1502080F3118894
:103D7000BFF34F8FBFF36F8FFEE700264FF08058E1
:103D8000DFF8F090FFF768FDA06BE16B884205D388
:103D9000022F03D0049808B335B329E03A465146C0
:103DA0002046FFF7CFFA616A59B104F1240000F010
:103DB00071FA68B1C9F80080BFF34F8FBFF36F8FFE
:103DC00006E028B1C9F80080BFF34F8FBFF36F8FB3
:103DD000FFF762FD06B00120BDE8F087FFF75CFD4C
:103DE00006B00020BDE8F0876846FFF7D3FD012547
:103DF000FFF752FDFFF73AFEFFF72EFD94F944005E
:103E0000B0F1FF3F01D184F8446094F94500B0F16E
:103E1000FF3F01D184F84560FFF73EFD04A96846E5
:103E200000F0CEF840B12046FFF70AFC00F06EFA31
:103E300006B00020BDE8F0872046FFF7C8FB90B130
:103E400004F110000499FFF7B3FD2046FFF7F8FBDB
:103E500000F05CFA002895D1C9F80080BFF34F8FBD
:103E6000BFF36F8F8EE72046FFF7EAFB00F04EFAB4
:103E700088E7000004ED00E02DE9F74783B0044631
:103E80008A460025002C03D0BAF1000F08D011E0BB
:103E9000502080F31188BFF34F8FBFF36F8FFEE781
:103EA000206C38B1502080F31188BFF34F8FBFF3DF
:103EB0006F8FFEE700F02AF948B9059838B1502015
:103EC00080F31188BFF34F8FBFF36F8FFEE700279A
:103ED0004FF08058DFF8E490FFF7BEFCA66BC6B148
:103EE00051462046FFF71CFA701EA063206950B1AE
:103EF00004F1100000F0CEF928B1C9F80080BFF33A
:103F00004F8FBFF36F8FFFF7C7FC06B00120BDE8EE
:103F1000F087059808B135B109E0FFF7BDFC06B0A0
:103F20000020BDE8F0876846FFF734FD0125FFF764
:103F3000B3FCFFF79BFDFFF78FFC94F94400B0F151
:103F4000FF3F01D184F8447094F94500B0F1FF3F80
:103F500001D184F84570FFF79FFC05A9684600F081
:103F60002FF868B12046FFF76BFB00F0CFF9204631
:103F7000FFF720FB0028AFD006B00020BDE8F08797
:103F80002046FFF717FB90B104F124000599FFF7D5
:103F90000FFD2046FFF754FB00F0B8F900289BD135
:103FA000C9F80080BFF34F8FBFF36F8F94E72046AF
:103FB000FFF746FB00F0AAF98EE7000004ED00E0F1
:103FC00070B505460C46002D15D0E4B1FFF744FC52
:103FD000DFF868C0DCF814006B68C11A2268B2F11F
:103FE000FF3F18D02E68DCF828C0664515D0834204
:103FF00013D801241DE0502080F31188BFF34F8FA8
:10400000BFF36F8FFEE7502080F31188BFF34F8F0F
:10401000BFF36F8FFEE700240BE08A4206D9501AE7
:1040200020602846FFF7B6FC002402E00020206054
:104030000124FFF731FC204670BD00006C00002019
:104040002DE9F04F85B081460F9F0E9E8A4690461F
:104050009B464FEA8800FFF727FB054628000AD059
:104060005420FFF721FB04460CB1256304E02846E9
:10407000FFF728FC00E000249CB1002084F85100E8
:1040800003905B464246514601970096029448468B
:10409000FFF7F8F92046FFF7DFF805B00120BDE88B
:1040A000F08F05B04FF0FF30BDE8F08F70B586B0EF
:1040B0000646DDF828C00C9C0B98002816D0ECB101
:1040C000542504952063022084F85100002005AD9A
:1040D0000390CDF800C0019502943046FFF7D2F965
:1040E0002046FFF7B9F8059806B070BD502080F360
:1040F0001188BFF34F8FBFF36F8FFEE7502080F31F
:104100001188BFF34F8FBFF36F8FFEE70548C1697A
:10411000002903D0806B18B1002070470120704740
:10412000022070476C0000202DE9F0470026304F38
:10413000B86B002808D0386A401C3862786A00B131
:1041400001263046BDE8F0877869451C7D619DB940
:104150007868006838B1502080F31188BFF34F8F22
:10416000BFF36F8FFEE77868B9687960B860B86AA6
:10417000401CB862FFF73AFA386BDFF87880854266
:104180000FD34FF001097868006838B17868C068CB
:10419000C468606885420ED2386302E04FF0FF3099
:1041A00038633868C06A00EB800058F820000128A6
:1041B000C4D90126C2E7201DFFF7FAFAA06A18B198
:1041C00004F11800FFF7F4FAE16ABA6909FA01F09C
:1041D0001043B86101EB810008EB8000211DFFF75F
:1041E0002EFBE06A3968C96A8842CCD30126CAE747
:1041F0006C0000206004002070B5044600210028F7
:1042000041D0224D2868844207D0502080F3118885
:10421000BFF34F8FBFF36F8FFEE7A06C38B1401E26
:10422000A064636CE26A9A422DD040B12BE050202A
:1042300080F31188BFF34F8FBFF36F8FFEE7201D10
:10424000FFF7B6FA1249012258B9E06A00EB800381
:1042500051F823302BB9AB6902FA00F023EA0000D1
:10426000A861606CE062C0F10700A061E06AAB6920
:1042700082401A43AA6100EB800001EB8000211DFF
:10428000FFF7DDFA0121084670BD00006C00002038
:104290006004002070B5C068C468002C14D004F11C
:1042A0001800FFF785FA164DA86B0126A0B104F19E
:1042B00018011448FFF7C3FAE06A2968C96A8842FE
:1042C0001CD901206E6270BD502080F31188BFF3AD
:1042D0004F8FBFF36F8FFEE7201DFFF769FAE06A8B
:1042E000AA6906FA00F11143A961074900EB8000B1
:1042F00001EB8000211DFFF7A2FADDE7002070BD71
:104300006C00002014050020600400202DE9F04717
:104310000024A0462D4DA86B002807D0FFF79CFA7B
:10432000A86B401EA863A86B40B149E0502080F301
:104330001188BFF34F8FBFF36F8FFEE72869002806
:104340003ED0234F3868012600B3A7F1B409F868BE
:10435000C46804F11800FFF72BFA201DFFF728FAB4
:10436000E06AAA6906FA00F11143A96100EB800036
:1043700009EB8000211DFFF762FAE06A2968C96A2B
:10438000884200D36E6238680028E0D10CB1FFF794
:104390002DF92C6A44B1FFF7C7FE00B16E62641EAE
:1043A000002CF8D100202862686A48B14FF001085B
:1043B00008494FF080500860BFF34F8FBFF36F8FF5
:1043C000FFF76AFA4046BDE8F08700006C00002065
:1043D0001405002004ED00E01000000002000000C1
:1043E00000000000000000001000000002000000BB
:1043F00000000000000000001000000002000000AB
:10440000000000000000000010000000020000009A
:10441000000000000000000010000000020000008A
:10442000000000000000000010000000020000007A
:104430000000000000000000D8440008192900080E
:1044400000000000000000008000000000000000EC
:1044500000000000C0440008E90A00080000000055
:1044600000000000800000000000000000000000CC
:10447000CC440008E1090008000000000000000032
:10448000800000000000000000000000C844000898
:10449000FF2600080000000000000000800000006F
:1044A000000000000000000000000000000000000C
:1044B00001020304060708090000000001020304CA
:1044C00044485431310000004C434400416E685F61
:1044D00053616E670000000064656661756C74541A
:1044E00061736B000445000800000020CC00000050
:1044F00028010008D0450008CC000020E416000088
:10450000440100080000000000000000000000005E
:10451000000000000000000000000000000000009B
:10452000000000000000000000000000000000008B
:10453000000000000000000000000000000000007B
:10454000000000000000000000000000000000006B
:10455000000000000000000000000000000000005B
:104560000100000010000000000000000024F40022
:10457000000000000000000000000000000000003B
:10458000000000000000000000000000000000002B
:10459000000000000000000000000000000000001B
:1045A000000000000000000000000000000000000B
:1045B00000000000000000000000000000000000FB
:1045C0000000000000000000AAAAAAAA0000000043
:04000005080000ED02
:00000001FF
