:020000040800F2
:10000000081700203102000817210008651C0008AD
:1000100015210008E90600081B2400080000000064
:10002000000000000000000000000000990100082E
:10003000FD07000800000000DD010008892100081C
:100040004B0200084B0200084B0200084B0200085C
:100050004B0200084B0200084B0200084B0200084C
:100060004B0200084B0200084B0200084B0200083C
:100070004B0200084B0200084B0200084B0200082C
:100080004B0200084B0200084B0200084B0200081C
:100090004B0200084B0200084B0200084B0200080C
:1000A0004B0200084B0200084B0200084B020008FC
:1000B0004B0200084B020008000000004B02000841
:1000C0004B02000800000000000000004B02000886
:1000D000000000004B0200084B0200080000000076
:1000E0004B0200084B0200084B02000800F002F827
:1000F00000F042F80AA090E8000C82448344AAF180
:100100000107DA4501D100F037F8AFF2090EBAE87D
:100110000F0013F0010F18BFFB1A43F0010318473B
:100120005833000078330000103A24BF78C878C1F3
:10013000FAD8520724BF30C830C144BF04680C60ED
:10014000704700000023002400250026103A28BF35
:1001500078C1FBD8520728BF30C148BF0B60704739
:10016000642900F0F780632900F00D8200207047B9
:100170001FB51FBD10B510BD00F011FA1146FFF7F5
:10018000F7FF02F0F7F900F02FFA03B4FFF7F2FFE0
:1001900003BC00F037FA0000224B19680868B0E889
:1001A000F00F80F30988BFF36F8F4FF0000080F3EA
:1001B00011884EF00D0E70470000000006480068E0
:1001C000006880F3088862B661B6BFF34F8FBFF353
:1001D0006F8F00DF00BF00BF08ED00E0EFF3098084
:1001E000BFF36F8F0F4B1A6820E9F00F106008B54E
:1001F0004FF0500080F31188BFF34F8FBFF36F8F24
:1002000002F0F0FE4FF0000080F31188BDE80840D6
:1002100019680868B0E8F00F80F30988BFF36F8FA2
:10022000704700BF34000020EFF3058070470000E6
:100230000948804709480047FEE7FEE7FEE7FEE77A
:10024000FEE7FEE7FEE7FEE7FEE7FEE704480549B6
:10025000054A064B70470000F1210008ED00000838
:1002600008110020081700200813002008130020A0
:100270000FB41CB5074B06AA7B446946009005984D
:1002800000F05FF90020694600F06EF91CBC5DF8D3
:1002900014FB0000ED0200002DE9F0410E4604467B
:1002A000002020622046E168884730B3252805D029
:1002B000D4E901219047206A401CF2E7E16820461A
:1002C00000278847050018D0A5F14100192802D859
:1002D00020354FF400673246294620462760FFF755
:1002E0003FFF40B1012804D0F61D26F0070608366E
:1002F000D8E7361DD6E72846DAE7206ABDE8F08160
:1003000070B50C460546012A05D02878800600D530
:10031000EA69002302E0012305E05B1C934202D25C
:10032000E05C0028F9D1A869E618C01AA861286A1B
:10033000184428622846AFF3008004E0D5E9012183
:1003400014F8010B9047B442F8D32846AFF300806D
:1003500070BD00002DE9F0410646002410687529A3
:10036000314616A510D0AFF30080002802DA4042D3
:1003700013A507E031688A0701D512A502E04907F5
:1003800004D511A5012401E0AFF3008000210A2269
:1003900006F1240709E0B0FBF2FCB0FBF2F302FB2C
:1003A0001C00303078541846491C0028F3D12346ED
:1003B0002A463046BDE8F04100F064B80000000075
:1003C0002D0000002B0000002000000010B5203A96
:1003D000C0F00B80B1E81850203AA0E81850B1E8FE
:1003E0001850A0E81850BFF4F5AF5FEA027C24BFB4
:1003F000B1E81850A0E8185044BF18C918C0BDE8AB
:1004000010405FEA827C24BF51F8043B40F8043B73
:1004100008BF7047D20728BF31F8023B48BF11F828
:10042000012B28BF20F8023B48BF00F8012B704782
:100430004FF0000200B5134694469646203922BF7D
:10044000A0E80C50A0E80C50B1F12001BFF4F7AFC8
:10045000090728BFA0E80C5048BF0CC05DF804EBAA
:10046000890028BF40F8042B08BF704748BF20F818
:10047000022B11F0804F18BF00F8012B7047704716
:10048000704770472DE9F0470D469946924604465D
:1004900000F124080168880604D5E06921F0100104
:1004A000216000E00120A84201DD471B00E0002799
:1004B000A1697A1902EB0900081AA0612078C00628
:1004C00002D42046AFF30080002608E0D4E90121E1
:1004D0001AF806009047206A401C761C20624E45A0
:1004E000F4DB2078C0060AD52046AFF3008006E092
:1004F000D4E9012130209047206A401C2062381E38
:10050000A7F10107F4DC07E0D4E9012118F80500A0
:100510009047206A401C2062281EA5F10105F3DCEB
:100520002046AFF300802078000602D50220BDE807
:10053000F0870120FBE7000001694A1C026108788E
:10054000704700B58FB0CDE9013100210591054913
:100550007944CDE9031011466846FFF79DFE0FB0C0
:1005600000BD0000E5FFFFFF0A6802F8010B0A600A
:10057000704710B5436913B1AFF3008001E0FFF796
:10058000BFFE012010BD127800F124010A70002284
:100590004A700122EDE711684FF0FF32E9E7754636
:1005A00000F02CF8AE4605006946534620F00700DF
:1005B000854618B020B5FFF749FEBDE820404FF052
:1005C00000064FF000074FF000084FF0000B21F03D
:1005D0000701AC46ACE8C009ACE8C009ACE8C0090A
:1005E000ACE8C0098D46704710B50446AFF30080F3
:1005F0002046BDE81040FFF7C8BD00000048704726
:10060000A410002001491820ABBEFEE7260002001E
:100610007047000070B5044600688168C943C90787
:1006200017D1816821F00101816000F043FC05468B
:100630000AE000BF00F03EFC401B022804D92068FD
:100640008068C043C00706D020688068C043C007E8
:10065000F0D0002070BDA06A40F01000A062E06AF7
:1006600040F00100E062012070BD0000F8B50026F6
:100670000446009600688168C943C9072DD0816887
:1006800041F001018160164816490068B0FBF1F0A5
:1006900000E0401E00900028FBD100F00BFC054656
:1006A00016E000BF00F006FC401B022810D92068AD
:1006B0008068C043C0070BD0A06A40F01000A06261
:1006C000E06A40F00100E06284F824600120F8BD97
:1006D00020688068C043C007E4D10020F8BD000056
:1006E0003000002040420F00FEE700002DE9F047F7
:1006F000394D687803286AD2002405F1140905F100
:100700001C062027A0464FF4FA7A315D19F8040040
:10071000814241D1072C57D100203754401C082872
:10072000FBDB444685F800800021022001F0C2FE78
:100730002AA001F015FF0421294801F049FA284EAA
:10074000FA20316888630122DFF898805703394620
:10075000404600F0AAFB41F2883000F0AFFA316861
:1007600040F2EE20886300223946404600F09DFBAF
:100770000021022001F09EFE1BA001F0F1FE0021ED
:10078000012001F097FE19A001F0EAFE6C704FF411
:10079000FA6000F093FA1AE000203754401C082851
:1007A000FBDB85F800800021022001F083FE12A00F
:1007B00001F0D6FE504600F081FA0021022001F03F
:1007C00079FE09A001F0CCFE641C082C9DDB687842
:1007D000401C6870BDE8F087000000204F4B4500CA
:1007E000180100200010014020202000202020209F
:1007F00020202020202000005341490070470000A5
:1008000010B586B0044614216846FFF711FE00219A
:10081000084601F04FFE224605A16846FFF728FD75
:10082000684601F09DFE04A001F09AFE06B010BDDE
:100830004C3A2564000000004C757800F8B500249F
:10084000009490F824202546012A12D0012280F835
:1008500024204A681F23072A0DD20668776B521E90
:1008600002EB820293409F430B6893401F437763E0
:1008700019E00220F8BD06680D2A0AD2376BD21F94
:1008800002EB820293409F430B6893401F43376300
:1008900009E0F76A0D3A02EB820293409F430B682E
:1008A00093401F43F7620A68072306680A2A0AD39F
:1008B000F7680A3A02EB420293409F438B689340E9
:1008C0001F43F76008E0376902EB420293409F4301
:1008D0008B6893401F4337610A68102A01D0112AA0
:1008E00020D1124B02689A4217D193681B0219D487
:1008F000936843F4000393600968102912D10C49EE
:100900000C4A0968B1FBF2F101EB8101490000E0FA
:10091000491E00910029FBD104E0816A41F02001C9
:100920008162012480F824502046F8BD0024014053
:100930003000002040420F000068C06C704700008B
:100940002DE9F0414FF0000704003D467ED0A06A3B
:10095000002628B9E66284F82460204600F07EF87C
:100960002046FFF757FEA16A01F01001014304D0B1
:10097000A06A40F01000A06268E0A16A21F48851EA
:1009800041F00201A1626268E169237B0A4347EA00
:1009900043010A43A1684FF48077B94208D0012986
:1009A00006D0002194F814C0BCF1010F02D00AE077
:1009B0003946F7E7F3B1A36A43F02003A362E36A81
:1009C00043F00103E3622368D3F804C02CF4694CBC
:1009D0004CEA010CC3F804C023689968DFF870C0C2
:1009E00001EA0C0111439960A168B9420BD00129B9
:1009F00009D00CE0DFF85CC0A3690CEB43330B4378
:100A000043F40061DFE7218A0D05A5F58015216813
:100A1000CB6A23F470032B43CB62216889680E4BA9
:100A20001940914208D1E662A16A21F0020141F029
:100A30000101A162BDE8F081A06A20F0020040F04F
:100A40001000A062E06A40F00100E0620120F1E7DE
:100A5000FDF7E1FF00E0FFFFFE0E1FFF00B585B0D0
:100A60000021009101910291039100680E49884292
:100A700018D10E48816941F400718161816901F4E6
:100A800000710491816941F00401816180696946C6
:100A900000F004000490042000900320019004481A
:100AA00000F01EF905B000BD002401400010024016
:100AB000000801402DE9F84300270D460446009741
:100AC00000F0F8F9804620688168C90508D5A06A59
:100AD00040F02000A06284F824700120BDE8F88373
:100AE0004168C90503D4C06A10F4700F2AD00220EF
:100AF00000F008FC3B490968B1FBF0F62068036987
:100B000039490B424FEA61014FEAA1121FD1C36874
:100B10004FEA611C13EA0C0F19D103690B4225D16E
:100B2000C068104222D1142023E0681C0AD02DB1E5
:100B300000F0C0F9A0EB0800A84203D920680068C3
:100B4000800725D5206800688007EED52DE0036971
:100B50000B4202D1C168114206D0026923490A4200
:100B600006D1C068084203D1542002E0292000E0E9
:100B7000FC204643009816E0681C11D02DB100F00F
:100B800099F9A0EB0800A8420AD90098B04207D210
:100B9000A06A40F00400A06284F8247003209DE75E
:100BA0000098401C0090B042E6D321686FF012001C
:100BB0000860A06A40F40070A06220688068C0F3FA
:100BC000424007280CD1207B50B9A06A20F48070E5
:100BD000A062A06AC00403D4A06A40F00100A06231
:100BE00000207BE730000020244992244992240011
:100BF00070B5044690F8240001280DD0012084F837
:100C000024002046FFF732FD02004FF0000005D01F
:100C100084F82400104670BD022070BDA16A40F621
:100C20000163994341F48071A162224D23682249F6
:100C3000AB4218D10E6816F4702F14D0A66A46F491
:100C40008016A6620E68760505D5A66A26F40056BB
:100C500046F48056A662A66AF6040AD5E66A26F02D
:100C60000606E66206E0A66A26F48016A6625E68BC
:100C7000E9E7E06284F824006FF002001860206861
:100C8000436843F02003436020688368C3F3424312
:100C9000072B05D1A84208D1096811F4702F04D0A0
:100CA000816841F480118160B4E7816841F4A0015A
:100CB000F9E70000002801400424014070B5044613
:100CC00000F0F8F80546601C02D00448007804449F
:100CD00000F0F0F8401BA042FAD370BD24000020C1
:100CE0002DE9F84FDFF89C910024A9F1040B23466D
:100CF0000F2709F1040AABF1040EBBE00125A54062
:100D00002A40AA4276D1DFF880C14E68A6EB0C08D3
:100D100066452BD00DDC032E34D005DC36B3012E16
:100D200019D0022E2FD11BE0112E16D0122E2AD14F
:100D300019E0B8F5881F19D006DCB8F5803F15D04A
:100D4000B8F5801F1FD111E0B8F5001F0ED0B8F51F
:100D5000041F18D10AE0CB6815E0CB681B1D12E018
:100D6000CB6808330FE0CB680C330CE08B682BB1F9
:100D7000012B4FF0080303D0456104E0042302E097
:100D8000056100E00023FF2A01D8064601E000F1DA
:100D900004064FEA840501D9A5F12005D6F80080A4
:100DA00007FA05FC28EA0C0803FA05F548EA0508E5
:100DB000C6F800804D68ED005BD5344DAE6946F055
:100DC0000106AE61AD6924F0030605F0010500954A
:100DD0002F4D06EB050CDCF80850A607360F07FA76
:100DE00006F825EA0805DFF8AC80404503D14FF04E
:100DF000000810E03DE0DFF8A080404502D14FF050
:100E0000010808E0DFF89480404502D14FF0020865
:100E100001E04FF0030808FA06F848EA0508CCF8A4
:100E200008804D68D9F80060ED024D4601D51643A3
:100E300000E096432E604D68DAF80060AD0255463A
:100E400001D5164300E096432E604D68DBF8006044
:100E5000AD035D4601D5164300E096432E604D6814
:100E6000DEF80060ED03754601D5164300E09643B9
:100E70002E60641C0A6832FA04F57FF43FAFBDE8C7
:100E8000F88F00000804014000001110001002401B
:100E90000000014000080140000C0140001001402A
:100EA0008068084000D0012070470AB10161704796
:100EB0000904FBE701488068704700002400002017
:100EC00070B5040025D094F83D00002520B984F8C1
:100ED0003C50204600F04EF9242084F83D00206864
:100EE000016821F0010101602068016841F40041BE
:100EF00001602068016821F40041016000F0EAFA15
:100F00004D4A6168914201D84C4900E04C49884201
:100F100001D2012070BD4B492368B0FBF1F15E683E
:100F200026F03F060E435E606368934206D94FF495
:100F3000967359434FF47A73B1FBF3F12368491C5C
:100F40001E6A26F03F06314319626168914210D84B
:100F50004900401EB0FBF1F2521CC2F30B02042AFE
:100F600001D2042022E0B0FBF1F0401CC0F30B00E2
:100F70001CE0A268F2B301EBC10303EB0116431EB0
:100F8000B3FBF6F35B1C43F480431B0549D092B3DB
:100F900001EBC10202EB0111401EB0FBF1F0401C5D
:100FA000C0F30B0040F4804040F400402168CA695F
:100FB0004CF6FF739A431043C861D4E9071001430C
:100FC0002068026822F0C00211430160D4E90301E5
:100FD00001432068826848F2FF339A4311438160DD
:100FE000D4E9050108432168CA6822F0FF021043D2
:100FF000C86001E00EE016E02068016841F00101E0
:1010000001602564202084F83D00256384F83E506B
:10101000002070BD01EB4106431EB3FBF6F35B1CE1
:10102000B3E70120C2E701EB4101401EB0FBF1F044
:10103000401CC0F30B00B7E7A086010080841E00AF
:1010400000093D0040420F002DE9F84F1F46904631
:101050008A460446DDF82890FFF72CFF054694F8F1
:101060003D0020287FD119230122404920460095C8
:1010700000F08AFE002876D194F83C00012872D056
:10108000012084F83C0020680168C90703D1016889
:1010900041F0010101602068016821F400610160F4
:1010A000212084F83D00102084F83E0000262664AC
:1010B000C4F824806785608D20852D48E0622B462A
:1010C0004A465146204600F0E5FD90B92068416946
:1010D0008069009036E02A464946204600F0FAFE34
:1010E00050B1206C042804D12068016841F40071DB
:1010F00001600120BDE8F88F606A2168007808610E
:10110000606A401C6062618D491E6185218D491EA7
:1011100089B2218522685369DB435B070BD451B147
:1011200000781061606A401C6062608D401E6085BE
:10113000208D401E20852A464946204600F0F8FDB5
:101140000028CED1208D0028C5D154F83D0B016870
:1011500041F400710160202004F81E09E6776677EB
:101160000020C7E7FFE70220C4E7000002001000EC
:101170000000FFFF10B586B000210091019102919F
:10118000039100681349884222D1134CA06940F0B2
:101190000800A061A069694600F0080004904FF4BF
:1011A0004070009012200190032003900B48FFF73D
:1011B00097FD0B48416841F0E06141F00201416058
:1011C000E06940F40010E061E06900F40010049070
:1011D00006B010BD0054004000100240000C014059
:1011E0000000014002488168027811448160704724
:1011F00024000020074810B5016841F0100101608B
:10120000032000F06DF80F2000F006F800F024F83D
:10121000002010BD0020024070B50D4D04464FF473
:101220007A712878B1FBF0F00A490968B1FBF0F057
:1012300000F026FB48B9102C07D200222146501E90
:1012400000F02EF800206C6070BD012070BD000021
:1012500024000020300000200F4808B5816941F0CB
:1012600001018161816901F001010091C16941F0D1
:101270008051C161C069002200F0805000900F21B0
:10128000901E00F00DF80548416821F0E06141F042
:101290000071416008BD00000010024000000140E4
:1012A000F0B40E4B1B680C46C3F30223C3F10705D1
:1012B000042D00D90425191D072901D2002300E0BF
:1012C000DB1E012606FA05F1491E214099409E4089
:1012D000761E16403143F0BC01F0A0B80CED00E0E2
:1012E000064900F0070208684FF6FF03184040EA7D
:1012F0000220034A10430860704700000CED00E034
:101300000000FA0510B501460020234C012922D027
:10131000022939D010291DD161682268D20119D55E
:101320001E48C1F38342C903805C0AD561681B4A29
:10133000C1F34041921E515C194AB2FBF1F148439E
:1013400001E0184948436168490203D44000032181
:10135000B0FBF1F010BD226AC2F30121012903D1D3
:10136000920701D5C80310BD022905D1626A920710
:1013700002D549F6404010BD0329FCD121688903FC
:10138000F9D54FF2244010BD00F0B4F86168C1F304
:101390008131491C4900DBE7001002402C34000871
:1013A00000127A0000093D002DE9F0470F460500C4
:1013B00061D0434E306800F00700B84209D230686F
:1013C00020F0070038433060306800F00700B84272
:1013D00051D128683B4C810712D5400703D560687E
:1013E00040F4E06060602878000703D5606840F44E
:1013F000605060606068A96820F0F0000843606099
:101400002878C00728D06868012810D021680228F1
:1014100010D0890700292EDA616821F00301014309
:101420006160FFF747FD804641F288390DE0216891
:101430008903EFE78901EDE7FFF73CFDA0EB080129
:10144000494502D90320BDE8F0876068696800F06B
:101450000C00B0EB810FEFD1306800F00700B8420C
:101460000BD9306820F0070038433060306800F056
:101470000700B84201D00120E5E72878400705D5EC
:101480006068E96820F4E06008436060287800073D
:1014900006D56068296920F4605040EAC1006060A8
:1014A00000F038F86168084AC1F30311515CC84084
:1014B0000649086006480068FFF7AEFE0020C2E754
:1014C00000200240001002403C34000830000020A0
:1014D000280000200448054900684968044AC1F30F
:1014E0000221515CC84070473000002000100240CB
:1014F0004C3400080448054900684968044AC1F3AF
:10150000C221515CC84070473000002000100240EA
:101510004C3400080E4A51680E4801F00C03042BAD
:1015200011D0082B0FD10C48C1F38343C903C05C11
:101530000AD55168084AC1F34041921E515C054AE0
:101540005043B0FBF1F07047044948437047000036
:101550000010024000127A001A34000800093D0011
:101560002DE9F84F040070D02078C04DC00749D055
:101570006868C0F38100012807D06868C0F3810063
:10158000022809D16868C00306D52868800339D5C8
:1015900060680028E7D035E06068B0F5803F0BD088
:1015A00010B1B0F5A02F11D0286820F48030286049
:1015B000286820F4802002E0286840F48030286009
:1015C000606890B1FFF776FC06460AE0286840F4B0
:1015D00080202860F0E700BFFFF76CFC801B6428C8
:1015E00073D828688003F7D50CE0FFF763FC064644
:1015F00005E000BFFFF75EFC801B6428F0D8286878
:101600008003F7D420789A4E80074FF001094FF0FD
:10161000000839D5686810F00C0F07D06868C0F36F
:101620008100022809D16868C00306D428688007B1
:1016300014D52069012808D110E02069B0B1C6F89E
:101640000090FFF737FC074605E00AE1FFF732FCA0
:10165000C01B0228C4D828688007F7D528686169AC
:1016600020F0F80040EAC10028600DE0C6F80080D4
:10167000FFF720FC074604E0FFF71CFCC01B022814
:1016800023D828688007F7D4207800072CD579481C
:10169000A169D9B1C0F80090FFF70CFC074604E03F
:1016A000FFF708FCC01B02280FD8686A8007F7D52F
:1016B00071484FF4FA510068B0FBF1F0009000BFA0
:1016C0000098411E0091FAD20EE080E0C0F8008040
:1016D000FFF7F0FB074604E0FFF7ECFBC01B022816
:1016E00075D8686A8007F7D42078400760D5E86924
:1016F0000027C00008D4E86940F08050E861E8693C
:10170000012700F0805000905C480168C90513D49F
:101710000168834641F480710160FFF7CBFB82468C
:1017200006E000BFFFF7C6FBA0EB0A0064284ED816
:10173000DBF80000C005F5D5E06801280AD008B143
:10174000052813D0286A20F001002862286A20F0BA
:10175000040002E0286A40F001002862E06841F2DB
:10176000883B98B1FFF7A6FB82460BE0286A40F061
:1017700004002862EEE700BFFFF79CFBA0EB0A0124
:1017800059455AD8286A8007F6D50CE0FFF792FB36
:10179000824605E0FFF78EFBA0EB0A0159454CD8C5
:1017A000286A8007F6D41FB1E86920F08050E8610C
:1017B000E06988B36968C1F38101022944D0022835
:1017C000C6F8608004D0FFF775FB044638E034E0CB
:1017D000FFF770FB074604E0FFF76CFBC01B022815
:1017E0002BD828688001F7D4206AB0F5803F05D156
:1017F0006868A16820F4003008436860D4E90801F3
:101800000843696821F4741108436860C6F8609061
:10181000FFF750FB044606E025E000BFFFF74AFB58
:10182000001B022809D828688001F7D51BE000BFFB
:10183000FFF740FB001B022802D90320BDE8F88F08
:1018400028688001F4D40EE00128F7D06868226A85
:1018500000F48031914204D1616A00F47010884232
:1018600001D00120EAE70020E8E700000010024074
:1018700000004242800442423000002000700040DC
:1018800010B5401EB0F1807F01D3012010BD4FF094
:10189000E02460610F21601700F0C0FD0020A0610E
:1018A00007202061002010BD70B590F83C20012A6F
:1018B00023D0012480F83C40022280F83D200368B8
:1018C0005A689D6822F070060A6832435A600C4BD1
:1018D00002689A4205D0B2F1804F02D0094B9A4279
:1018E00004D1496825F080031943916080F83D4098
:1018F000002180F83C10084670BD022070BD000039
:10190000002C01400004004010B5040003D094F8FE
:101910003D0010B107E0012010BD002084F83C001C
:10192000204600F01FF8022084F83D00211D2068A9
:1019300000F060FC012084F8460084F83E0084F842
:101940003F0084F8400084F8410084F8420084F8A5
:10195000430084F8440084F8450084F83D000020EA
:1019600010BD000008B50068B0F1804F08D10548EF
:10197000C16941F00101C161C06900F0010000903E
:1019800008BD00000010024070B5044690F83C000D
:101990000025012817D0012684F83C60022084F835
:1019A0003D002068826822F0770222F47F42826044
:1019B0000868502838D00DDC20284FD005DC90B3C3
:1019C000102811D14AE0022070BD302846D04028AE
:1019D0000AD13BE060282FD070280DD0B0F5805F91
:1019E00003D0B0F5005F12D0012584F83D600020DF
:1019F00084F83C00284670BDCB68D1E901212068FD
:101A000000F033FC2068816841F0770109E0CB6881
:101A1000D1E90121206800F028FC2068816841F4A8
:101A200080418160E1E719E0CA684968206800F0F8
:101A3000D1FC5021206806E0CA684968206800F09F
:101A4000DAFC6021206800F01AFCCEE7CA68496819
:101A5000206800F0BFFC40212068F4E722680146BE
:101A60001046F0E700B585B0002100910191029188
:101A700003910068B0F1804F10D10948816941F0AD
:101A8000040181618069694600F00400049002202D
:101A90000090019003900348FFF722F905B000BDC4
:101AA000001002400008014070B5044690F83C0068
:101AB00000260D4601280FD0012084F83C006AB1B1
:101AC000042A1DD0082A2FD00C2A3FD0012600203E
:101AD00084F83C00304670BD022070BD206800F0E4
:101AE000D7FB2068816941F0080181612068816924
:101AF00021F004018161206881692A69114311E0A4
:101B0000206800F0EDFB2068816941F4006181618B
:101B10002068816921F480618161206881692A6976
:101B200041EA02218161D2E7206800F005FC2068CB
:101B3000C16941F00801C1612068C16921F0040157
:101B4000C1612068C1692A69114311E0206800F071
:101B50001FFC2068C16941F40061C1612068C1694E
:101B600021F48061C1612068C1692A6941EA0221CA
:101B7000C161ACE710B5040003D094F83D0010B18A
:101B800007E0012010BD002084F83C00204600F052
:101B90001EF8022084F83D00211D206800F02AFB79
:101BA000012084F8460084F83E0084F83F0084F861
:101BB000400084F8410084F8420084F8430084F82F
:101BC000440084F8450084F83D00002010BD7047B3
:101BD00010B50446022249B104290ED0082913D0B9
:101BE00094F84100012816D0012010BD94F83E0061
:101BF0000128F9D184F83E200FE094F83F00012835
:101C0000F2D184F83F2008E094F840000128EBD19D
:101C100084F8402001E084F841200122206800F08F
:101C200017FB0E492068884203D1426C42F40042FF
:101C300042642068884205D0B0F1804F02D0084944
:101C4000884204D1816801F00701062903D00168A8
:101C500041F001010160002010BD0000002C014096
:101C600000040040FEE701684A69D24352050FD4E0
:101C70006FF480624A61002140F8301F20224273D5
:101C80008173026942F0040202610173012070470E
:101C900000207047F8B50446C06A1E460D46174638
:101CA000082807D0012805D010F5803F02D0206B0E
:101CB000122804D12068016841F480710160134644
:101CC00000224FF001112046009600F05DF840B16F
:101CD00020680068C00502D54FF40070206403201E
:101CE000F8BD2069B0F5804F0ED00620216800EACB
:101CF000D51040F0F000086133463A460B492046C3
:101D000000F08AF878B902E005F0FE0000E0E8B2E1
:101D100021680861054933463A46891F204600F08C
:101D20007BF80028DCD00120F8BD0000080001008D
:101D300070B516460D4604461EE02046FFF793FF99
:101D400008B1012070BD681C16D0FFF7B3F8801BE6
:101D5000A84200D885B920684069C04340070BD528
:101D6000002044F8300F20216173A073216941F0F5
:101D7000200121612073E4E720684069C0434007E7
:101D8000DBD4002070BD00002DE9F04798461746CF
:101D90000D460446C1F30746DDF820902AE000BF57
:101DA000B8F1FF3F26D0FFF785F8A0EB09014145C8
:101DB00002D8B8F1000F1DD12068012E16D080691D
:101DC00025EA00000004000C12D00020B84211D116
:101DD000002044F8300F20216173A073216941F085
:101DE0002001216120730120BDE8F0874069E7E709
:101DF0000120EBE72068012E0AD0806925EA000067
:101E00000004000C06D00020B842C9D00020EBE747
:101E10004069F3E70120F7E72DE9F04798461646B9
:101E20000D4604464FF000094FF0200AC1F3074762
:101E300023E020684069C043400515D4206801684C
:101E400041F40071016021686FF480604861C4F85A
:101E5000309084F83DA084F83E90216C41F004015C
:101E6000216484F83C9021E0701C06D0FFF722F832
:101E7000A0EB0800B04203D816B1012F1FD021E01B
:101E80002068012F15D0806925EA00000004000CAD
:101E900018D000BF44F8309F84F80DA084F80E904D
:101EA000216941F02001216184F80C900120BDE8F6
:101EB000F087406925EA00000004000CEAD12068A0
:101EC000406901E02068806925EA00000004000CF8
:101ED000AFD1ECE770B516460D4604461EE020462D
:101EE000FFF7C1FE08B1012070BD681C16D0FEF7D7
:101EF000E1FF801BA84200D885B920684069C04333
:101F000000060BD5002044F8300F20216173A07328
:101F1000216941F0200121612073E4E720684069D4
:101F2000C0430006DBD4002070BD00003EB5002198
:101F30001148009101910F4A029102608160017382
:101F4000017501244FF460220461C2614160FEF713
:101F5000F7FC08B172B6FEE70220CDE900040520C7
:101F6000029069460448FEF769FC002801D072B669
:101F7000FEE73EBD00240140940000202DE9F0431F
:101F800085B0002438480094019402940394816938
:101F900041F010018161816901F0100104918169B2
:101FA00041F020018161816901F020010491816982
:101FB00041F004018161816901F0040104918169AA
:101FC00041F0080181618069284F00F008004FF45A
:101FD00000550490002229463846FEF766FFDFF8D8
:101FE0009080012283214046FEF75FFFDFF8849056
:101FF000002220214846FEF758FF009502260125C1
:102000000396CDE9015469463846FEF769FE832000
:10201000CDE90005CDE9024669464046FEF760FE7F
:10202000042000901448CDE9010469464046FEF7BB
:1020300057FE78208DE8310069464046FEF750FE95
:10204000CDE90054694648460295FEF749FE202036
:10205000CDE90005CDE9024669464846FEF740FE57
:1020600005B0BDE8F0830000001002400010014000
:10207000000C0140000801400000111010B58EB0A6
:1020800000240794089409940A940B941C21684630
:102090000C94FEF7CDF91E484FF0804101600F21EE
:1020A000C0E9011442F20F71C0E903148461FFF723
:1020B0002BFC08B172B6FEE74FF48050079007A9D9
:1020C0001348FFF761FC08B172B6FEE71048FFF74E
:1020D00051FD08B172B6FEE70B940BA90C480C94A5
:1020E000FFF7E2FB08B172B6FEE76020CDE900041D
:1020F00002940422694606480494FFF7D5FC08B10F
:1021000072B6FEE70248FFF7ADFC0EB010BD00004E
:1021100018010020FEE7FEE71FB50B4D00F028FD7B
:1021200000240AA12A5D6846FEF7A2F82146012094
:1021300000F0C0F9684600F013FA641C082CF0DBCC
:10214000012000F097FAE9E71C0000202563000059
:10215000084C01212046FEF7A3FE012808D00022EA
:1021600020212046FEF7A1FE012000F083FAF0E7CF
:102170000122F5E700080140012000F07BFAFBE7AF
:10218000012000F077FAFBE710B5FFF72BF801F01C
:102190002FF8012803D0BDE8104000F0ADBF10BDFE
:1021A00010B590B028216846FEF742F914210AA81C
:1021B000FEF73EF902200090012004901020002438
:1021C000059007946846FFF7CBF908B172B6FEE7B1
:1021D0000F20CDE90A040C940D9400210AA80E9456
:1021E000FFF7E2F8002801D072B6FEE710B010BD8C
:1021F0007047000070B50268134B144C4FF08046D6
:10220000984203D0B04201D0A04203D122F0700521
:102210004A682A43984203D0B04201D0A04203D179
:1022200022F44074CA6822434C6922F0800222439F
:1022300002608A68C2620A688262984201D10969B2
:1022400001630121416170BD002C01400004004088
:1022500010B501F01F030121046A99408C43046208
:10226000016A9A401143016210BD10B5846842EAC8
:10227000032224F47F440A432243826010BD826813
:1022800022F070020A4342F00701816070470000AB
:1022900030B5036A026A22F0010202624268846970
:1022A00024F073050C682C4323F002058B682B4344
:1022B0000A4DA8420BD123F00805CB6822F44072E6
:1022C0002B434D6923F0040315438A692A43426076
:1022D000846149684163036230BD0000002C014005
:1022E00030B5026A036A23F010030362436884690D
:1022F0000D6824F4E64444EA05248D6822F02002A7
:1023000042EA05120B4DA8420ED1CD6822F08002A0
:1023100042EA05124D6923F4406343EA85038D695F
:1023200022F0400243EA8503436084614968816387
:10233000026230BD002C014030B5036A026A22F40B
:10234000807202624268C46923F4007324F073054A
:102350000C682C438D6843EA05230C4DA8420ED12E
:10236000CD6823F4006343EA05234D6922F440520B
:1023700042EA05128D6923F4806342EA0512426045
:10238000C4614968C163036230BD0000002C014094
:1023900030B5046A026A22F4805202624268C3695C
:1023A0000D6823F4E64343EA05238D6824F40054C2
:1023B00044EA0534064DA84204D14D6922F4804216
:1023C00042EA85124260C36149680164046230BD1B
:1023D000002C014010B5036A046A24F00104046271
:1023E000846924F0F00444EA021423F00A020A4348
:1023F0008461026210BD10B5036A046A24F01004FF
:102400000462846923F0A00324F4704444EA023295
:1024100043EA01118261016210BDFEE70907090E5E
:10242000002804DB00F1E02080F80014704700F081
:102430000F0000F1E02080F8141D704710B5322025
:10244000FEF73CFC302000F04BF80520FEF736FC90
:10245000302000F045F80120FEF730FC302000F07D
:102460003FF80A20FEF72AFC202000F039F80A2065
:10247000FEF724FC282000F033F80120FEF71EFCB4
:10248000082000F02DF80120FEF718FC012000F0D4
:1024900027F80120FEF712FC0120FEF70FFC0620B2
:1024A00000F01EF80120FEF709FCBDE810400C20EA
:1024B00000F016B830B1012807D0022808D0032850
:1024C0000BD108E041F0800107E041F0C00104E0D9
:1024D00041F0940101E041F0D401C8B2AFF30080B3
:1024E0001CB500F0F00141F00C028DF8042041F021
:1024F000080100018DF8051040F00C018DF8061060
:1025000040F008008DF8070064200090042301AA21
:102510004E210248FEF798FD1CBD0000C4000020BB
:102520001CB500F0F00141F00D028DF8042041F0DF
:10253000090100018DF8051040F00D018DF806101D
:1025400040F009008DF8070064200090042301AAE0
:102550004E210248FEF778FD1CBD0000C40000209B
:1025600010B5044602E0641CFFF7DAFF207800286B
:10257000F9D110BD9CB0FEF73DFEFFF711FEFFF74D
:10258000FDFC31482F494FF4804201602F494160E2
:1025900000218160C0E9031241618161C161016272
:1025A000FEF78EFC08B172B6FEE7FFF767FDFFF796
:1025B000BDFCFFF743FF03210020FFF77BFF24A0B2
:1025C000FFF7CEFF1C2226496846FDF7FFFE0021DB
:1025D000684600F05CF8234C21491C2260601C31E5
:1025E00007A8FDF7F3FE002107A800F050F81C49EA
:1025F000A0601C2238310EA8FDF7E8FE00210EA8CD
:1026000000F045F81649E0601C22543115A8FDF78A
:10261000DDFE002115A800F03AF8206100F032F844
:1026200009483038FEF7E4FA4FF0FF3406482146F7
:102630003038FEF73FFA04483038FEF77DF9FEF7F0
:10264000DFF8F3E700540040C4000020A08601003A
:10265000204E686170204D6174204D6100000000C3
:10266000A8330008000000200021842800D0C11CED
:102670000846704710B5002800D1012000F03EFC4C
:10268000002010BD10B500F061FC002010BD30B579
:1026900085B004460D466169B4F90800002910D0E0
:1026A000A16971B1FFF7E0FF6269A169019202912E
:1026B00000902B4622692168606800F069FD049053
:1026C00010E0FFF7D1FF04A901910090208A2B466A
:1026D00082B22168606800F025FD012802D005B0B3
:1026E000002030BD049805B030BD00002DE9F04158
:1026F00004460F46194E75693068001D00F034FB22
:1027000048B93068012190F82C0001FA00F0B16955
:1027100021EA0000B061B4F1FF3F07D137B1306862
:10272000BDE8F041011D0E4800F065BB2C44306847
:102730004460AC4206D23068011DB068BDE8F0418B
:1027400000F03EBB3068011D706800F039FB306B53
:10275000844200D23463BDE8F081000034000020E0
:102760009004002070B5044600F052FB1C4D28690F
:10277000401C2861286810B1E86938B10CE02C6071
:102780002869012808D100F0E7F805E02868E16A27
:10279000C06A884200D82C60E86A401CE862E06A9F
:1027A0000121AA6981401143A9610E4900EB800013
:1027B00001EB8000211D00F01EFB00F049FBE869E1
:1027C00000280CD02868E16AC06A884207D206490E
:1027D0004FF080500860BFF34F8FBFF36F8F70BD15
:1027E00034000020B403002004ED00E070B50D4C6F
:1027F000E068002815D00C4E00F00AFBF068C568B0
:10280000281D00F0B1FA2069401E2061E068401EDA
:10281000E06000F01DFB284600F008F8E0680028A2
:10282000EAD170BD340000207C04002010B50446BD
:1028300094F8511000290BD0012911D0022914D08D
:10284000502080F31188BFF34F8FBFF36F8FFEE7E7
:10285000206B00F013FB2046BDE8104000F00EBBDB
:102860002046BDE8104000F009BB10BD4FF44061A8
:10287000104810F0070F06D0C01D20F007000D49CA
:10288000411AC1F540610C4A1060002353600144B5
:10289000083921F00701103A11604B600B600B1AE8
:1028A000436001604068906050604FF00040D0602D
:1028B00070470000A404002080000020074E4FF065
:1028C0008054074DFFF792FF30680128FAD92C6039
:1028D000BFF34F8FBFF36F8FF4E70000B403002006
:1028E00004ED00E02DE9F0478146099E089D0A9C11
:1028F0009A46521E206B00EB820020F0070800274A
:10290000002023180A5C83F834200A5C12B1401CB2
:102910001028F6D384F84370072D00D30625E5620E
:102920006564A764201D00F048FA04F1180000F067
:1029300044FA2461C5F10700A0616462E76484F889
:10294000507052464946404600F000F92060002E83
:1029500000D03460BDE8F08770B500240F4D04EB63
:10296000840005EB800000F01DFA641C072CF6D3F0
:102970000B4800F017FA0B4800F014FA0A4800F070
:1029800011FA0A4800F00EFA094800F00BFA09485B
:10299000034941601431816070BD0000B403002020
:1029A0004004002054040020680400207C0400201F
:1029B000900400203400002010B4144900E01146B7
:1029C0000A688242FBD34B6803EB010C844503D1B8
:1029D00040681844486008460C68D0F804C00CEB06
:1029E0000003A3420CD10A4B1B689A4206D05268DE
:1029F000624442600A681268026002E0036000E01C
:102A00000260814200D0086010BC70478000002046
:102A100070000020074948680068002805D0486811
:102A2000C068C0684068086370474FF0FF300863B3
:102A300070470000340000200A484068B0F1FF3FB2
:102A400007D0502080F31188BFF34F8FBFF36F8FF3
:102A5000FEE7502080F31188BFF34F8FBFF36F8FD5
:102A6000FEE70000880000202DE9F0410546002621
:102A700000F0B0FA334F386808B9FFF7F7FEF8688E
:102A800005424ED19DB1083515F0070F0FD005F066
:102A90000700C0F10800054415F0070F07D05020CB
:102AA00080F31188BFF34F8FBFF36F8FFEE7002DC8
:102AB00037D07868854234D823490846046801E055
:102AC000214604466068A84202D220680028F7D157
:102AD0003868844225D0086800F10806206808603C
:102AE0006068411B10290FD9601910F0070F07D03B
:102AF000502080F31188BFF34F8FBFF36F8FFEE735
:102B000041606560FFF758FF61687868401A786037
:102B1000BA68904200D2B860F8680843606000204C
:102B2000206000F0DBFB16F0070F07D0502080F389
:102B30001188BFF34F8FBFF36F8FFEE73046BDE8BC
:102B4000F08100007000002080000020001F4FF086
:102B500080730360001F21F001010160001F034921
:102B6000016014380260203870470000392A0008DC
:102B700070B57B4D002201212846FEF796F9082109
:102B80002846FEF78DF9774EA6F11C0460B908219E
:102B90002846FEF785F90028F9D02078082803D2C6
:102BA00031213154401C207010212846FEF778F95D
:102BB00060B910212846FEF773F90028F9D0207873
:102BC000082803D234213154401C2070202128468B
:102BD000FEF766F960B920212846FEF761F9002862
:102BE000F9D02078082803D237213154401C2070B6
:102BF00040212846FEF754F960B940212846FEF7E7
:102C00004FF90028F9D0207820B1401EC0B22070C2
:102C100020213154012211462846FEF746F90022B0
:102C200002212846FEF741F908212846FEF738F927
:102C300060B908212846FEF733F90028F9D020783A
:102C4000082803D232213154401C2070102128461C
:102C5000FEF726F960B910212846FEF721F9002871
:102C6000F9D02178082903D235207054491C2170ED
:102C700020212846FEF714F960B920212846FEF7E6
:102C80000FF90028F9D02078082803D238213154D0
:102C9000401C207040212846FEF702F960B940210F
:102CA0002846FEF7FDF80028F9D02178082903D23C
:102CB00030207054491C2170012202212846FEF761
:102CC000F4F8002280212846FEF7EFF80821284674
:102CD000FEF7E6F860B908212846FEF7E1F800287B
:102CE000F9D02078082803D233213154401C2070B9
:102CF00010212846FEF7D4F860B910212846FEF7C7
:102D0000CFF80028F9D02178082903D23620705452
:102D1000491C217020212846FEF7C2F860B9202105
:102D20002846FEF7BDF80028F9D02078082803D2FD
:102D300039213154401C207040212846FEF7B0F85C
:102D400038B940212846FEF7ABF80028F9D0FDF746
:102D5000CDFC2846BDE8704001228021FEF7A5B8D1
:102D6000000C01401C0000200169436882689A60E1
:102D7000836842685A604A68824201D182684A6028
:102D8000002202610868401E086008687047000061
:102D9000034B036003F1540008608020106070470B
:102DA0006001002000F1080141604FF0FF328260B5
:102DB000C16001610021016070470021016170471D
:102DC00010B4D1F800C0BCF1FF3F02D000F10802FE
:102DD00002E0026904E01A4653681C686445FAD9A7
:102DE00053684B6099608A60516008610168491CB2
:102DF000016010BC704742684A6093688B609368BA
:102E00005960916008610168491C016070470000C9
:102E1000502080F31188BFF34F8FBFF36F8F0A49A3
:102E20004868401C486001280CD10848006810F030
:102E3000FF0F07D0502080F31188BFF34F8FBFF3EF
:102E40006F8FFEE7704700008800002004ED00E06F
:102E500009494868002806D0401E4860002801D172
:102E600080F311887047502080F31188BFF34F8F93
:102E7000BFF36F8FFEE700008800002070B50028C8
:102E800027D0A0F10804134D6068E968084207D113
:102E9000502080F31188BFF34F8FBFF36F8FFEE791
:102EA00022683AB1502080F31188BFF34F8FBFF3EF
:102EB0006F8FFEE78843606000F08CF86068696897
:102EC000084468602046FFF777FDBDE8704000F0D9
:102ED00005BA70BD700000204FF0E02000210161B4
:102EE000816105494FF47A720968B1FBF2F1491E1C
:102EF00041610721016170473000002010B5024692
:102F00000020002A12D00F48806B38B1502080F387
:102F10001188BFF34F8FBFF36F8FFEE700F05AF8B1
:102F200000211046FFF7E2FB00F0D8F9002807D196
:102F300005494FF080500860BFF34F8FBFF36F8F8C
:102F400010BD00003400002004ED00E010B586B094
:102F500000240594049403AA04A905A8FFF718FF08
:102F600005980499019102900023009415A1174837
:102F7000039A00F00DF91649486308B1012000E0FA
:102F8000002001280AD0B0F1FF3F19D1502080F372
:102F90001188BFF34F8FBFF36F8FFEE7502080F390
:102FA0001188BFF34F8FBFF36F8F4FF0FF3008636F
:102FB0000120C8614C6106B0BDE8104000F042B885
:102FC00006B010BD49444C4500000000BD28000873
:102FD000340000200248816B491C81637047000067
:102FE00034000020154A906B002802D00120506266
:102FF0007047002050629069B0FA80F0C0F11F0065
:103000000F4900EB800051F8203073B101EB8000D4
:1030100041684968416000F10803994201D149685B
:1030200041604068C06810607047502080F311888C
:10303000BFF34F8FBFF36F8FFEE700003400002017
:10304000B403002000B583B0284908780290FF201F
:103050000870087801909DF804009DF8042000F0A5
:10306000F000904207D0502080F31188BFF34F8FBB
:10307000BFF36F8FFEE79DF804001D4B00F050007A
:103080001870072098609DF8040010F0800F0BD096
:103090009868401E98609DF80400400001909DF8DB
:1030A000040010F0800FF3D19868032807D0502057
:1030B00080F31188BFF34F8FBFF36F8FFEE74FF49C
:1030C00040709860029808700A48016841F47001E5
:1030D0000160016841F070410160FFF7FDFE0020D2
:1030E0005860FDF76BF803B0002000BD00E400E07D
:1030F0008800002020ED00E010B5502080F31188FA
:10310000BFF34F8FBFF36F8F00F080F818B1044901
:103110004FF080500860002080F3118810BD00003F
:1031200004ED00E02DE9F04F85B081460F9F0E9E23
:103130008A4690469B464FEA8800FFF795FC054675
:1031400028000AD05420FFF78FFC04460CB12563F9
:1031500004E02846FFF792FE00E000249CB1002026
:1031600084F8510003905B46424651460197009611
:1031700002944846FFF7B6FB2046FFF7F3FA05B086
:103180000120BDE8F08F05B04FF0FF30BDE8F08FB3
:1031900070B586B00646DDF828C00C9C0B98002858
:1031A00016D0ECB1542504952063022084F8510018
:1031B000002005AD0390CDF800C001950294304683
:1031C000FFF790FB2046FFF7CDFA059806B070BDDB
:1031D000502080F31188BFF34F8FBFF36F8FFEE74E
:1031E000502080F31188BFF34F8FBFF36F8FFEE73E
:1031F0000548C169002903D0806B18B100207047D1
:103200000120704702207047340000202DE9F0476C
:103210000026304FB86B002808D0386A401C38624E
:10322000786A00B101263046BDE8F0877869451C10
:103230007D619DB97868006838B1502080F31188AD
:10324000BFF34F8FBFF36F8FFEE77868B96879607F
:10325000B860B86A401CB862FFF7DCFB386BDFF877
:10326000788085420FD34FF001097868006838B143
:103270007868C068C468606885420ED2386302E02E
:103280004FF0FF3038633868C06A00EB800058F8B0
:1032900020000128C4D90126C2E7201DFFF764FDE4
:1032A000A06A18B104F11800FFF75EFDE16ABA697F
:1032B00009FA01F01043B86101EB810008EB8000CE
:1032C000211DFFF798FDE06A3968C96A8842CCD3AE
:1032D0000126CAE734000020B40300202DE9F0479E
:1032E0000024A0462D4DA86B002807D0FFF790FDC5
:1032F000A86B401EA863A86B40B149E0502080F342
:103300001188BFF34F8FBFF36F8FFEE72869002846
:103310003ED0234F3868012600B3A7F1B409F868FE
:10332000C46804F11800FFF71FFD201DFFF71CFD06
:10333000E06AAA6906FA00F11143A96100EB800076
:1033400009EB8000211DFFF756FDE06A2968C96A74
:10335000884200D36E6238680028E0D10CB1FFF7D4
:1033600059FB2C6A44B1FFF751FF00B16E62641E35
:10337000002CF8D100202862686A48B14FF001089B
:1033800008494FF080500860BFF34F8FBFF36F8F35
:10339000FFF75EFD4046BDE8F087000034000020E6
:1033A0006804002004ED00E06C34000819210008D6
:1033B000000000000000000080000000000000008D
:1033C00000000000543400085121000800000000F3
:1033D000000000008000000000000000000000006D
:1033E0005C340008792100080000000000000000A3
:1033F00080000000000000000000000064340008AD
:103400008121000800000000000000008000000092
:10341000000000000000000001020203040506078E
:1034200008090A0B0C0D0E0F10100102020304050F
:10343000060708090A0B0C0D0E0F10100000000003
:103440000000000001020304060708090000000054
:10345000010203045461736B303100005461736BDB
:10346000303200005461736B303300006465666174
:10347000756C745461736B00983400080000002070
:1034800094000000280100082C350008940000205A
:103490007416000044010008000000000000000055
:1034A0000000000000000000000000003131313158
:1034B0003131313100000000000000000100000047
:1034C00010000000000000000024F40000000000D4
:1034D00000000000000000000000000000000000EC
:1034E00000000000000000000000000000000000DC
:1034F00000000000000000000000000000000000CC
:1035000000000000000000000000000000000000BB
:1035100000000000000000000000000000000000AB
:0C35200000000000AAAAAAAA00000000F7
:04000005080000ED02
:00000001FF
